:020000022000DC
:1060000000000120756302005D6302005F6302000F
:106010006163020063630200656302000000000028
:1060200000000000000000000000000067630200A4
:1060300069630200000000006B6302006D630200F0
:10604000658A02006F630200758E02006F630200B2
:106050006F6302006F630200298D02006F6302000C
:106060006F6302006F6302006F6302006F630200E0
:106070006F6302006F6302006F6302006F630200D0
:106080006F630200ED7802006F6302006F6302002D
:106090006F6302006F6302003DBA02006F6302008B
:1060A0006F6302006F6302006F6302006F630200A0
:1060B0006F6302006F630200000000000000000038
:1060C0006F6302006F6302006F6302006F63020080
:1060D0006F6302006F6302006F6302000000000044
:1060E00000000000000000000000000000000000B0
:1060F00000000000000000000000000000000000A0
:10610000000000000000000000000000000000008F
:10611000000000000000000000000000000000007F
:10612000000000000000000000000000000000006F
:10613000000000000000000000000000000000005F
:10614000000000000000000000000000000000004F
:10615000000000000000000000000000000000003F
:10616000000000000000000000000000000000002F
:10617000000000000000000000000000000000001F
:10618000000000000000000000000000000000000F
:1061900000000000000000000000000000000000FF
:1061A00000000000000000000000000000000000EF
:1061B00000000000000000000000000000000000DF
:1061C00000000000000000000000000000000000CF
:1061D00000000000000000000000000000000000BF
:1061E00000000000000000000000000000000000AF
:1061F000000000000000000000000000000000009F
:10620000354936480A1A02D0072291438D4634494F
:1062100034480A1A06D00722914381F309880222E2
:1062200082F3148830483149314A00F044F831484B
:106230003149324A00F03FF831483249324A00F0E1
:106240003AF832483249334A00F035F83248334997
:10625000334A00F030F833483349344A00F02BF821
:1062600033483449344A00F026F83448344900228F
:1062700000F02CF833483449002200F027F8334866
:106280003349091A082902DB002202604160314AC1
:1062900090471F481F49884205D00268043003B464
:1062A000904703BCF7E700208646EC46002000211B
:1062B000294A9047FEE7884207D0521A05D0037852
:1062C00001300B700131013AF9D17047884202D098
:1062D00002700130FAE770470000012000E0002062
:1062E0000000012000000120F8DA0200282A002026
:1062F0004C300020D0630200D063020090C702003F
:10630000F8DA0200282A0020282A0020D0C802003B
:10631000D0C80200D0C80200D0C80200D0C8020015
:10632000D0C80200D0C80200D0C80200F7DA0200CC
:106330001CE102004C3000204C3000204C3000208A
:10634000584000205840002058400020584000206D
:10635000586000209D630200B5A10200FEE7FEE741
:10636000FEE7FEE7FEE7FEE7FEE7FEE7FEE7FEE705
:1063700000F002B8FFF7FCBF0F484FF00701884359
:1063800085460E4880470E48016841F4700101605F
:10639000BFF34F8FBFF36F8FFFF732BF09480A4932
:1063A0000A4A884207D0521A05D0037801300B7090
:1063B0000131013AF9D17047000001201584020033
:1063C00088ED00E0D0C80200282A0020282A0020FA
:1063D0007047000007B5044B0093044A402300F0C7
:1063E00032F803B05DF804FBF16302004D30002089
:1063F0002DE9F84388461446B2B10F4B0F4E0325E2
:10640000002743F00109224608EB0701002004F0B1
:1064100019F80744241A48B933782BB14FF47A405D
:10642000C847013D02D13570BDE8F88301233370C0
:10643000002CE8D1F8E700BFD0C802004C300020A3
:10644000704704F02FB8F0B595B01D4616460846C3
:106450000C4601F0D1FD1A9B0D93CDE9086500258E
:106460002B46082205A920460A958DF82C500C953C
:1064700001F0DEFD079B0293069B03939DF8143009
:106480008DF8115003F00302012A1DD1BDF814202C
:10649000059DC3F3C203C2F383168DF81030B2001A
:1064A00008230EA9204601F0C3FDC5F3952508ABCE
:1064B0000093324602AB0EA9284600F04FFB20465F
:1064C00001F09EFD15B0F0BD022AF8D1BDF81650BE
:1064D000C3F3C203C5F389158DF810300827082DC2
:1064E0002E4628BF08263B4632460EA9204601F01C
:1064F0009FFDAD1B08AB02AA31460EA8374400F041
:1065000091FB002DEBD1DAE708B5FFF79AFF0448BD
:10651000042100F08DFA034B01225A7108BD00BF1F
:10652000C0C80200282A0020037813F0040216D005
:1065300003F00303012B03D0022B09D00120704785
:106540000A6800880232C0F3831002440A60F5E74B
:106550000B684288023303EB92130B60EEE71046A0
:10656000704700002DE9F04FDFF81CA187B00F46FF
:1065700000230446861C0DF1070015468DF80730F0
:1065800001F046F8DAF804203A60DAF8083003F54A
:1065900080739B1A0AF21C470AF583690AF21448B1
:1065A000B3421AD30020002D69D004F00F039B01E1
:1065B00043F0050363F30F00DAF80430DAB2033274
:1065C00033444AF822009DF80700CAF8043001F06D
:1065D00043F8012007B0BDE8F08F0121384601F0F3
:1065E0003AFA484601F04FFA404601F04CFADAF820
:1065F00008000290C0B203300AEB800002A9FFF746
:1066000093FF029B30BBDAB20AEB8202D16803919E
:106610009A1C0133DBB20AEB83030292D3F80CB06D
:1066200001F00303012B22D0022B15D083464046F4
:1066300001F02CFA10B1029BCAF8083059463846CE
:1066400001F009FADAF80830DAF8042003F580736B
:106650009B1AA5E7D8B2CEE7BDF80E30C3F3891375
:1066600003334FEA1B4B02EB93030293DFE7BDF8C2
:106670000C30C3F383134FEA1B4B1344F5E7A40517
:1066800044F0060098E700BF60310020064B074841
:1066900010B500221A7001F068FC044610B90448D5
:1066A00001F021FE204610BD6031002034C80200F8
:1066B0000CC9020030B50A4C71B10A4A0A49121BD2
:1066C000D20800239A4201D1002030BD31F8235076
:1066D000854202D00133F5E7034654F83300F4E76E
:1066E0009CC7020034C80200282A0020094B013947
:1066F00003EBC000032909D8DFE801F00A02040611
:106700000420704700797047407970470020704737
:10671000022070479CC70200044BD3E90130584067
:10672000C0B2B0FA80F04009704700BF603100206D
:106730002DE9F04186B0FFF7EFFF0546002840F055
:10674000ED80774CC4F81804BFF34F8FA368029311
:10675000DBB2033304EB830002A9FFF7E5FE029BE3
:1067600018B1D4F81824002A5AD0DAB2991C01338F
:1067700004EB8202DBB204EB8303D268DB68049390
:1067800002F00303022B0392029154D1BDF80E30A4
:106790006448C3F38917502F3E4628BF502606F1A0
:1067A000080166F38F13C1F30901ADF80E3001F053
:1067B000F4FB0546002800F09C8001F01DFC00233E
:1067C000082203A9284601F029FC0299CB43DBB239
:1067D0000133C9B20331B6EB830F4FEA830204EBF6
:1067E000810125D95FFA82F80823A6EB080628461E
:1067F00001F014FCF6B208F108034B4903F0FC0366
:106800003246284601F00AFC029B033703EB970748
:106810000297D4F81834002B43D1D4F8106453E015
:1068200062689A4294D8A260284606B0BDE8F0811A
:1068300008233246E5E7012B5BD1BDF80C3039481F
:10684000C3F38311062928BF062161F3891302319E
:1068500001F00F018900ADF80C3001F09EFB0546F8
:10686000002846D001F0C8FB0023082203A92846CF
:1068700001F0D4FB0026BDF80C20C2F38312B30054
:10688000964203F10803C4D202994A1CC9B20331EB
:10689000029204EB81010422284601F0BFFB01367D
:1068A000E9E7284601F0ACFBFFF736FF80F0010076
:1068B000C5B2B9E7F3685B7923B1336829461B6831
:1068C00030469847F3681E68002EF3D1284601F041
:1068D00097FB0DF107008DF8076000F099FED4F8E2
:1068E00018340BB9029BA3609DF8070000F0B4FEBA
:1068F000DAE7D4F8104454B90C4B0D480D49C01ACE
:10690000C008000440F0020000F05CF8CCE7236807
:1069100020469B689847E3681C68ECE7002583E7FE
:106920006031002034C802006C3100209CC7020096
:10693000C4C70200F4C802002DE9F34704460E461E
:10694000924601A9012218469946FFF70BFE1B4FFC
:1069500010B3019D4FF00008AA1CC84508EB0201C6
:1069600023D11748002101F053F880F310000004F0
:1069700040EA1440E4006B1C04F03804DBB2EDB2D2
:1069800044F0010407EB8303033544EA881444EA26
:106990008624D86047F825403B781BB1FFF7C8FE36
:1069A0000028FBD102B0BDE8F087C9B207EB810136
:1069B0005AF82830CB6008F10108CEE7603100209A
:1069C0007C35002000231A46FFF7B6BF07B5012328
:1069D000019201AAFFF7B0FF03B05DF804FB07B511
:1069E000CDE9002302236A46FFF7A6FF03B05DF856
:1069F00004FB1FB5CDE90123069B039301AA0323E2
:106A0000FFF79AFF05B05DF804FB7FB5CDE90023E1
:106A1000089B0293099B03930A9B04930B9B05938A
:106A20006A460623FFF788FF07B05DF804FB000005
:106A300030B50F4CD4F8102403460020114631B96C
:106A4000D96808714AB9C4F810340A6030BDC96801
:106A50000D79854206D00968F1E7D26814680C60A8
:106A60001360F3E701300A28E8D14FF0FF30EDE77B
:106A70006031002038B5084B0125D3F810441D7053
:106A800004B938BDE3685D71236820465B689847A8
:106A9000E3681C68F4E700BF6031002030B5C388AC
:106AA00085B004460D4633B1144A00921449154A84
:106AB000284601F04EF8217A05291DD0637A4BB1A2
:106AC000A088FFF713FE104B104953F820202846EA
:106AD00001F03FF8227A0E4BA08853F8222003924F
:106AE0000021FFF7E7FD039A0A490346284605B04F
:106AF000BDE8304001F02DB805B030BD38C9020006
:106B000020C9020018C90200A4C902003DC9020040
:106B1000C8C9020040C9020007B503460846197AF1
:106B2000052911D05B7A2BB1094A0A49019001F07D
:106B300010F801980849019001F00BF8019803B092
:106B40005DF804EB00F0FABF002AF8D0F2E700BFCE
:106B500038C902003DC90200FCD102002DE9F04312
:106B600085B01F460C9D002395F80C902B730646AC
:106B70000C46904629463846FFF790FFB8F1060FBD
:106B800009D8DFE808F00412181F28334000314606
:106B9000284600F0DEFF002229463846FFF7BCFFFA
:106BA00085F80C9005B0BDE8F08322683146284690
:106BB00000F0CFFFEFE7D4E900233146284600F08C
:106BC000C8FFE8E7A36800933146D4E900232846CC
:106BD00000F0BFFFDFE7E3680193A368009331464D
:106BE000D4E90023284600F0B4FFD4E723690293D8
:106BF000E3680193A36800933146D4E90023284653
:106C000000F0A7FFC7E76369039323690293E36872
:106C10000193A36800933146D4E90023284600F08D
:106C200098FFB8E708292DE9F74F80460E4617462A
:106C30001C463CD8002593F80C901D73194610464D
:106C4000FFF72CFFDFF888A0DFF888B0AE4231D91B
:106C500018F805205946204600F07BFF0135082D25
:106C6000F4D11949194DDFF870A0204600F071FFEA
:106C70004FF0000B5E4522D918F80B207E2A05D86C
:106C80001046019205F04AF9019A00B92E225146A8
:106C9000204600F05EFF0BF1010BBBF1080FE9D1BC
:106CA000012221463846FFF737FF84F80C9003B0E5
:106CB000BDE8F08F5146204600F04BFFCEE7294655
:106CC000204600F046FFE6E754C9020052C9020020
:106CD00050C902004AC9020056C90200C30710B5D4
:106CE00007D4F023054A4008145C2340194311548B
:106CF00010BD0901C9B20F23F4E700BF48360020D8
:106D000030B5094B1C78094B196800239C4202DC02
:106D10000022104630BD11F83350854201EBC3020A
:106D2000F7D00133F2E700BF1836002058360020B4
:106D300013B504460191FFF7E3FF38B143682BB167
:106D40000199204602B0BDE81040184702B010BDBE
:106D5000034B044819680022490800F05EBA00BFDE
:106D60001C3600202036002010B5C0B2FFF7C8FF47
:106D70000446007801F0CEFF63785A1E5342534117
:106D8000834208D1044BD3E90023134303D1BDE868
:106D90001040FFF7DDBF10BD4036002037B5430877
:106DA000374AD35CC2074CBF1B0903F00F030446EC
:106DB0000D46042B25D8DFE803F003262F3C4000C6
:106DC000F9B10121FFF78AFF00230DF107008DF8CB
:106DD000073000F01DFC0120A4F12003C4F12001C4
:106DE000284A20FA01F100FA03F30B43A040D2E94C
:106DF000004120430B43C2E900039DF8070000F067
:106E00002BFC03B030BD002918BF0221204603B07F
:106E1000BDE83040FFF762BF49B10321FFF75EFFD5
:106E20000121204603B0BDE83040FFF781BF0121BA
:106E3000ECE70029E5D10421E8E709B10321E5E702
:106E4000FFF74CFF29462046FFF772FF0DF10700C0
:106E50008DF8075000F0DCFB0120A4F12003C4F101
:106E60002001084A20FA01F100FA03F30B43A04085
:106E7000D2E9004124EA000021EA0303BBE700BF96
:106E800048360020403600202DE9F041124E134FC5
:106E900000243378A34208DC114BD3E900231343C9
:106EA00018D0BDE8F041FFF753BF3D6805EBC408BB
:106EB00015F8340001F02EFF98F801305A1E5342A5
:106EC0005341181A4142414115F83400FFF766FF5B
:106ED0000134DEE7BDE8F081183600205836002086
:106EE00040360020092AF7B505460C4616463ED91D
:106EF00001F048FEE8B11F4B1F481D601F4B204F9B
:106F00001C70204B002110221E6005F09DF81E4BC6
:106F100000200021C3E90001013CE4B20326FF2C5C
:106F20000DD11A4A1A48002103B0BDE8F04000F024
:106F300069B901F0E9FD0028DDD003B0F0BD9DF88E
:106F4000063015F834008DF8046005EBC40223F018
:106F500007038DF8063001A993788DF805303A467D
:106F600001F01AFE013CE4B20028D8D0E5E7072082
:106F7000E3E700BF583600204836002018360020CE
:106F8000696D02001C36002040360020896E020028
:106F9000E8C9020070B5084D084E00242B789C42C9
:106FA00001D3002070BD3368012113F8340001F0D3
:106FB0006BFE0134F2E700BF18360020583600207F
:106FC0001FB50021039001AA44F20100CDE901118F
:106FD00000F004F805B05DF804FB000038B572B6A7
:106FE000FFF748FDFFF7A4FB0028FBD1104B114C25
:106FF000114D1249E41AE408240444F00100FFF79B
:10700000E1FCD5F8F030DB0700D500BE0C4944F0B8
:107010000200FFF7D7FCBFF34F8FEA68094B02F479
:10702000E0621343EB60BFF34F8F00BFFDE700BF8B
:107030009CC70200C4C7020000ED00E0ECC90200DA
:10704000F8C902000400FA0549B152B1531E1A40B2
:1070500007D1826001608380C260104670470E20B5
:1070600070470920704710B58468C2688388121B76
:10707000934208D3C26813400268D154C3680133F5
:10708000C360002010BD0420FCE78268C3689A42F8
:107090000AD08268838813400268D35C0B708368CF
:1070A00001338360002070470520704710B5D0E998
:1070B0000243D1E90202A04272EB03032CBF01207C
:1070C000002010BD08B50A4800F0F9FB094AD2E9D2
:1070D0000031C018084BD3E9002341F10001904270
:1070E00071EB030303D210F1807041F1000108BD80
:1070F000302A002060360020D836002037B50546FB
:107100000C460A4801A900F00EFC60B1057044600D
:1071100001A9064800F031FC18B1054800F0D4FB85
:10712000002003B030BD0420FBE700BFC4360020C0
:10713000302A002038B5184B1B78044613B90025B7
:10714000284638BD0028FAD0037F03F0FF05002B46
:10715000F5D0FFF7B7FFD4E90223904271EB0303A8
:1071600014D3236903B92377D4E9053098472169FB
:107170000029E4D0237F03F0FF05002BDFD0D4E902
:1071800002325B1842F10002C4E902320348214690
:1071900001F0C8F8D4E700BF6836002014CA020026
:1071A00013B5114B11491868019008231048582253
:1071B00000F0A6FB044698B90E4A0F4801A900F05A
:1071C0006FFA044660B90C48012100F05BFB012313
:1071D0000A4A0948194600F0BDFA094B01221A7003
:1071E000204602B010BD00BF10CA02006C3600205D
:1071F000C436002065720200302A0020FFFF7F00A5
:10720000683600203AB103685A614A1E5142514122
:107210001961002070470720704738B5037F044686
:107220000D4683B98261FFF74DFF2369281841F1AC
:107230000001C4E9020103B1256121460020BDE837
:107240003840FFF75BBF002038BD002301460377BD
:107250000120FFF753BF0000014800F030BB00BF22
:10726000302A00202DE9F347064600F013FB40B119
:10727000584AD2E9003113F1807341F10001C2E9AB
:1072800000310021304600F014FB38B1524C236825
:1072900023B12068FFF74EFF002323600121304611
:1072A00000F007FB20B1FFF70DFF4C4BC3E90001D5
:1072B0004B48494D4B4C4C4F01A900F06EFB002848
:1072C00042D1DFF82081444CDFF82491404601F0A0
:1072D0003FF82368002872D07BB12368D0E90252BE
:1072E000D3E902138D4272EB03032AD223681B7F7A
:1072F0001BB12168404601F015F8404601F022F824
:10730000D0E9027A0546FFF7DDFE381A6AEB010A7A
:1073100001287AF1000345DBB0F5350F40D3FFF7C4
:107320009BFF324A02444FF496030021484600F086
:1073300031FA00283ED1236813B9304600F002FA32
:10734000256002B0BDE8F0870378012B1DD0022B29
:1073500009D14FF00008204600F0F4FF002836D095
:1073600080F81C80F7E73BB941680B7F23B9012304
:107370000B77204600F0D6FF01A9194800F038FB32
:1073800001A9174800F009FB99E741682B68994269
:1073900002D100232B60EFE7204600F0DCFFEBE793
:1073A000AA68C0E70021484600F079FA2846FFF7AE
:1073B000C1FE01E00D28F9D00023236086E7002BF1
:1073C000BFD1304602B0BDE8F04700F0BFB901239D
:1073D0003B70D1E760360020E0360020D836002030
:1073E000C436002014CA020068360020FFFFB40033
:1073F000302A00200648074A03780749D35C012257
:1074000013B1043002F096B90C3001F059BF00BF3F
:10741000382A0020543700200C3700200648074A3D
:1074200003780749D35C012213B1043002F034B968
:107430000C3001F0F5BE00BF382A00205437002080
:107440000D37002037B50578012D0DD0022D30D035
:1074500075B91F491F48FFF718FE002834D103B043
:10746000BDE83040FFF7DABF037A1BB9FFF7C2FF70
:1074700003B030BD4368184C19782046FFF7F3FD80
:1074800080B18DF800500190144B68461B689847F6
:10749000A168E368A2885B1A9A42E7D2104B0122E6
:1074A0001A70E5E7A268E3689A42F1D08DF800000F
:1074B000EAE7C3688DF800500193FFF79BFF074B85
:1074C00068461B689847D3E703238DF80030F6E73A
:1074D0000D370020FC360020E8360020E43600207E
:1074E000F8360020F0B51F46234B89B004461A60D9
:1074F0000D4600293DD08A8820480968FFF7A4FD81
:10750000002834D1AA89A9681D48FFF79DFD0028ED
:107510002DD11C4E0FCE6D460FC596E80F0085E8A5
:107520000F0063690693237C174A18488DF81C7076
:10753000003B18BF01238DF81430637C002B14BF6F
:107540000E2300238DF81530E3680293A36803939C
:107550002368019369466368009301F00BFA30B920
:107560000B4B18702368013301D0FFF743FF09B0BC
:10757000F0BD0720FBE700BFE4360020E83600201E
:10758000FC36002020CA020045740200382A002080
:10759000F836002070B5084D014608482E78FFF7F0
:1075A00074FD044636B100232B70FFF723FF08B1AA
:1075B000FFF706FD204670BDF8360020E8360020B3
:1075C00010B501460E48FFF74EFD0446A8B90D4818
:1075D0000D4A0378D35C63B1043002F051F860B90E
:1075E0000A490748FFF751FD38B9BDE81040FFF7D9
:1075F00015BF0C3001F008FEF1E7204610BD00BFBA
:10760000FC360020382A0020543700200D37002097
:1076100070B5EFF3108672B60C4A946801239CB9DA
:1076200093600B4B0B4DD3F8801029401160C3F8C9
:107630008050D3F8841051604FF0FF32C3F884209B
:10764000047006B962B670BD0370FAE71037002007
:1076500000E100E0FC06FFBD084B9A6810B55AB186
:1076600050B9EFF3108172B6054A1C6814605C686B
:107670005460986001B962B610BD00BF1037002099
:1076800000E100E0435882B03BB10023435043582F
:107690000193019B012002B070471846FBE70000F0
:1076A000F8B5204B4479204E43F824201F4A204B44
:1076B00006EBC4049B1A2279DB081B0432B143F0A9
:1076C00002001C49FFF77EF90820F8BD02680C880B
:1076D000C2F8084590F904508A7804795201002DC7
:1076E000D2B219DB14494F1987F8002301226D0922
:1076F00004F01F0402FA04F441F82540427906EB35
:10770000C201012446F832000C7143F003000B491A
:10771000FFF758F90020D8E7094904F00F040A558B
:10772000ECE700BF243700201C3700209CC7020074
:10773000D4C7020040CA020000E100E062CA0200B1
:1077400014ED00E0036801221A607047036801220B
:107750005A60704773B501F15005AD000068ADB2D5
:107760004FF480348C400026C0F80843C0F84843EA
:10777000465101F5A8714559019522F07F42019DBE
:1077800040F82120C0F844430BB1C0F8044302B0D4
:1077900070BD00002DE9F74F0D4622F07F440268CE
:1077A0004FF4803705F150068F408046B60002EB5B
:1077B0008500C2F84873B6B2C2F80873D2F804154F
:1077C00099464FF0000BD0F84035C0F8401542F80C
:1077D00006B05B1A9259009223F07F43012B009A66
:1077E0004FEA850A0CD1264B4FF4806043F0010329
:1077F0009847D8F8003043F806B09B590193019B95
:10780000D8F80010D1F80465C1F84473A31B23F025
:107810007F43012B1CD11A4B05F5A875013443F0A9
:10782000010341F825404FF480609847D8F80030B4
:10783000D3F804359E4209D1D8F800300020C3F8AF
:107840004473C3F8047303B0BDE8F08F0D20FAE76A
:107850008A44C9F1FF13CAF84045D1F80405221A39
:10786000013A22F07F4203F57F439342EED3002A90
:10787000E2D10134CAF84045D1F804359842DAE73C
:1078800080CA020003680222C3F8442309B1C3F886
:107890000423704700684FF48271FFF7F3BE4FF482
:1078A000803303FA01F10368C3F84813C3F80813DF
:1078B000704750318900006889B2FFF7E3BE036862
:1078C000D3F804057047000090F90430002B09DB61
:1078D0005A09012103F01F0301FA03F34032024960
:1078E00041F82230704700BF00E100E0024B034A3C
:1078F0001B681068184700BF243700201C37002081
:1079000010B561B1B2FBF3F403FB1424A4B244B983
:10791000C0E9001484608281C381204610BD0E201E
:10792000FCE70920FAE737B550E8013F9DB2C4896A
:1079300025448489A54228BF2D1B0489A54202BF86
:10794000BFF32F8F002207E0C5EA030540E801548A
:10795000002CE9D14FF001028DF803200193019A28
:107960000A609DF8031001F0FF0321B1006810FACE
:1079700082F003B030BD1846FBE70A884B889A4274
:1079800009D150E8012FC2EA024240E80123002B4E
:10799000F7D1012070470020704737B550E8023F0B
:1079A0001FFAA3F5C488A54202BFBFF32F8F0022A0
:1079B0000DE0C48925448489A54228BF2D1BC3EA54
:1079C000054540E80254002CE8D14FF001028DF843
:1079D00003200193019A0A609DF8031001F0FF0350
:1079E00021B1006800EB124003B030BD1846FBE740
:1079F0000A884B889A4209D150E8022FC2EA2242F3
:107A000040E80223002BF7D1012070470020704787
:107A100010B5034653E8000F0A4643E8002494F0EB
:107A2000000FF7D110BD10B5034653E8002F42EA0E
:107A3000010043E8000494F0000FF6D110BD10B52A
:107A4000034653E8000F00EA010243E8002494F0E3
:107A5000000FF6D110BD10B5034653E8002F02EB1E
:107A6000010043E8000494F0000FF6D110BD10B5FA
:107A7000034653E8002FA2EB010043E8000494F012
:107A8000000FF6D110BD0121FFF7CDBF0021FFF798
:107A9000D6BF10B590B1D0E9012301689B1ADBB2C3
:107AA0000A60013BDBB2FF2B026802D1002010719B
:107AB00010BD11684C1C14600B70F2E70E20F7E744
:107AC00037B5054600240DF107008DF80740FFF794
:107AD0009FFD2A686B68116899420ED9481E106094
:107AE00011F8013CEC68298A01FB0344AB68117969
:107AF0001B1ADBB2994238BF13719DF80700FFF7DC
:107B0000ABFD204603B030BD37B5054600230DF16F
:107B100007000C468DF80730FFF77AFD2A681368D6
:107B2000591C1160E968641A298AB4FBF1F41C70CD
:107B30009DF80700FFF790FD03B030BD826810B5D7
:107B400004462AB143690168006998470023A3608D
:107B500010BD0EB403B5039921B104AB01AA019382
:107B600000F076F802B05DF804EB03B070470A2924
:107B700038B504460D4602D10D21FFF7F8FFA36882
:107B80002268591CA160D554D4E901329A4204D329
:107B90002046BDE83840FFF7D1BF38BD2DE9F84F8A
:107BA0009846DDE90A43154682460F460A464FF0DD
:107BB0000109AA420FD2C14538BFC14613F0010BDB
:107BC00001D16CB900240126B8F1010F1BD908F1CD
:107BD000FF386E43F8E709F10109B2FBF5F2E8E777
:107BE0009B070ED5B8F1000F0CBF30262026A1450B
:107BF000E9D2013C31465046FFF7B9FF002CF6D1DF
:107C0000E0E72026F3E7B7FBF6F39D42E1D9DFF882
:107C10003C80B7FBF6F3504618F8031006FB1377C9
:107C2000FFF7A5FF3346AB42B6FBF5F6F1D2BBF149
:107C3000000F02D00CB1A14501D3BDE8F88F20217F
:107C40005046013CFFF793FFF4E700BF86CA0200ED
:107C50002DE9F74F054617468846002900F03E817A
:107C600018F8011B49B92B7B002B00F037812846FF
:107C700003B0BDE8F04FFFF761BF252940F0B780A2
:107C8000002698F800302D2B424608F1010823D039
:107C9000302B24D02B2B25D000242A2B02F10101DC
:107CA00023D13B681A1D1B683A601C440A461378AE
:107CB0002E2B26D101324FF0000A104610F8011B7E
:107CC000A1F1300CBCF1090F1DD80A2303FB0A13E4
:107CD000A3F1300A0246F0E746F00106D1E746F08C
:107CE0000206CEE746F00406CBE711F8013CA3F10B
:107CF00030000928DBD80A2202FB0434303C0A4653
:107D0000CBE74FF0000A12F8011B01F0FB006828D6
:107D10009046F8D0782909D86F290CD8632962D009
:107D200022D8252963D0582900F0888098F800309F
:107D3000002B95D197E770390829F7D801A353F89C
:107D400021F000BFB77E02002D7D02002D7D0200D4
:107D50004D7E02002D7D02002B7E02002D7D020053
:107D60002D7D02003D7E0200642901D06929DDD10C
:107D70003A68D2F80090111D89EAE9723960A2EBE5
:107D8000E9724FF0010B092A35DCD34538BFD346E1
:107D90002CB1B9F1000F01DB720700D5013CB3072C
:107DA00002D5BAF1000F03D0F00701D44CBB002478
:107DB000B9F1000F2DDAC9F100092D212846FFF78E
:107DC000D6FE06F00302022A04D1BAF1000F01D157
:107DD0001CBB0024CDE9004653460A2249462846EA
:107DE000FFF7DCFEA2E73B681A1D19783A602846C7
:107DF000FFF7BDFE9AE70A230BF1010BB2FBF3F28A
:107E0000C1E7A345D4D220212846013CFFF7AFFEAD
:107E1000CCE77107D5D52B21D0E7A345DAD23021A5
:107E20002846013CFFF7A3FED2E73968CDE90046BA
:107E30000A1D3A6053460A220968D0E739680A1DCC
:107E40003A60CDE9004653461022F5E73B681A1D1B
:107E50003A6016F00106D3F8009024D1B9F1000F72
:107E600003D0484604F045F90646B4421DD809F14E
:107E7000FF3919F8011F00293FF458AF2846FFF7D2
:107E800076FEF6E728460136FFF771FE19F8061070
:107E90000029F7D1A642BFF449AF20212846013C72
:107EA000FFF765FEF6E70026F0E720212846013CB3
:107EB000FFF75DFED9E73B681A1D3A60302128467E
:107EC0001C68FFF754FE78212846FFF750FE002279
:107ED0000823CDE900322146102280E703B0BDE837
:107EE000F08F00BF2DE9F84FB0F806A04579D2F821
:107EF00000B09DF828900AFB05F5043D88460BEB81
:107F00000301A94203F1040488BFA5EB030BB4FBF2
:107F1000FAF607460AFB1644C2F800B04EB9AAEBBF
:107F200004055D4528BF5D46BBF1000F04D1BDE8E7
:107F3000F88F3F68013EF1E7043408EB06003C444B
:107F40002A46B9F1000F0DD02146ABEB050B04F02A
:107F500052F8DA452E443F6855464FF0000428BFDA
:107F60005D46E1E701462046EFE7FFF792BDF8B531
:107F700046790146721E0546002393422D6803D3BD
:107F80000024A64202D8F8BD0133F6E70F68284660
:107F9000FFF7BAFD01343946F3E72DE9F843068AC5
:107FA000CD1C0746FFF78CFD043E35440446B5FB67
:107FB000F6F5F0B14FF48073EDB28380C680013DD9
:107FC000076081464FF00008A84512D23846FFF7F7
:107FD00077FD064648B163790133637108F1010802
:107FE000C9F8000007608146EEE72046FFF7BFFFB3
:107FF00034462046BDE8F88301210430FFF72BBD4D
:1080000010B5012104460430FFF731FDC0B220B99C
:108010002046BDE81040FFF7AABF10BD1FB5039270
:108020000022009203AAFFF75DFF05B05DF804FB94
:108030001FB503920122009203AAFFF753FF05B078
:108040005DF804FB33DF704741DF7047064B10B526
:1080500000241C70054B1C60BFF35F8F044905486A
:1080600000F04AF9204610BD313700203437002097
:10807000A0CA02002837002007B500230DF1070031
:108080008DF80730FFF7C4FAF1EE103A23F09F03A2
:10809000E1EE103ABFF35F8F0A4B4022C3F8842110
:1080A0009DF80700FFF7D8FA03F0AEFC20B103B04B
:1080B0005DF804EBFFF7C8BF20BF40BF20BF03B08F
:1080C0005DF804FB00E100E070B5244D0446012199
:1080D0002846FFF79DFCBFF35F8F38B9042C0AD008
:1080E0001F4B1A781AB1BFF35F8F286070BD1D4A0D
:1080F000147001221A701C4C1A4E6368BBB9FEF74B
:10810000B9FCFEF715FB0028FBD1164B1B78023B90
:10811000012B15D8BFF34F8F1449154BCA6802F4D1
:10812000E0621343CB60BFF34F8F00BFFDE71B68D6
:10813000307898470028D6D0204600F0E7F8DCE7F2
:1081400003F062FC08B1FFF77DFF4FF0804301228E
:10815000C3F80025BFF34F8F20BFFDE73437002061
:1081600031370020303700202837002000ED00E0B4
:108170000400FA05026813685268934291BFD01A4E
:1081800080680130801888BFC01A70470368816812
:108190001A685B688B4234BF01330023D31A5842FC
:1081A0005841704773B5002304460DF107000D4692
:1081B0008DF80730FFF72CFA2046FFF7E7FF10B1E4
:1081C000237C002B3BD12368A1685E685A688A42F1
:1081D00034BF013200225A6028B11A688A4234BF83
:1081E000013200221A60E2686368511E072920D814
:1081F000DFE801F004101F141F1F1F182A789A557A
:108200002046FFF7B7FF23689A68824200D2986041
:10821000002415E02A8823F81620F1E72A6843F89D
:108220002620EDE7D5E9000103EBC603C3E9000111
:10823000E6E7294602FB063003F0DDFEE0E7042412
:108240009DF80700FFF708FA204602B070BD0368EA
:1082500018685B68C31A58425841704773B50023C9
:1082600005460DF107000C4616468DF80730FFF75E
:10827000CFF92846FFF7EBFF002832D12B681968A9
:108280002EB91A68A868824238BF561C1E60EA6878
:108290006B68501E07281ED8DFE800F0040E1D1280
:1082A0001D1D1D165B5C237000249DF80700FFF761
:1082B000D3F9204602B070BD33F811302380F3E7C4
:1082C00053F821302360EFE703EBC103D3E9002328
:1082D000C4E90023E8E701FB0231204603F08BFEEE
:1082E000E2E70524E1E7836800225A60C3E904223B
:1082F0009A60DA601A6070470B684A68436093427C
:1083000008BF0023016008BF43607047436843B162
:108310000268916852680B449342436004BF002393
:108320004360704770B5446806460D46206818B132
:10833000B3682946984718B923682B60256070BD3B
:108340002468F3E74368186808B102681A60704748
:108350004368186870474368186800B970478842D6
:1083600003D102681A600120704703460068F4E7F1
:1083700010B50D49A1F59472914201D800200FE08B
:108380008C1AE30F03EBE4035B1002EBC30452F817
:108390003330834205D802D204F10802ECE760686A
:1083A00010BD2146E8E700BFACCF020008B5FFF7DB
:1083B000DFFF024B002808BF184608BD6FCE020041
:1083C00010B50446C0B2FFF7FBF8204610BD4FF0D1
:1083D0008053D3F83001421C04BF4FF0704393F830
:1083E000E00F831F58425841704700004FF0704320
:1083F00093F8E02F062A09D1D3F8E83FC3F303131B
:10840000033B032B02D8024AD05C70470020704720
:10841000B4CF020008B5FFF7DAFF40B14FF0805348
:108420008F4AD3F82433C3F30423C2F84035FFF74F
:10843000DDFF10B18B4B8C4A5A67FFF7C8FF48B17C
:108440004FF080534FF08042D3F84432C3F34233AD
:10845000C2F83C35FFF7CAFF30B1844AD2F8FC308D
:1084600023F08073C2F8FC30FFF7B1FF40B14FF04A
:1084700080430022C3F80C21C3F81021C3F838252B
:10848000FFF7B4FF20B14FF080430322C3F8A025CB
:10849000FFF7ACFF60B1764B0522C3F8102601222E
:1084A000C3F888260022C3F818263F22C3F81426F2
:1084B0004FF08053D3F83021511C09BF4FF0704367
:1084C000D3F8343193F8E02FD3F8E83F08BFC3F373
:1084D0000313062A4DD1033B032B03D8654AD35C13
:1084E000002B46D04FF08052634BD2F80414C3F8EF
:1084F0002015D2F80814C3F82415D2F80C14C3F8C8
:108500002815D2F81014C3F82C15D2F81414C3F897
:108510003015D2F81814C3F83415D2F81C14C3F867
:108520004015D2F82014C3F84415D2F82414C3F827
:108530004815D2F82814C3F84C15D2F82C14C3F8F7
:108540005015D2F83014C3F85415D2F83414C3F8C7
:108550006015D2F83814C3F86415D2F83C14C3F887
:108560006815D2F84014C3F86C15D2F84424C3F847
:108570007025FFF72CFF48B14FF080534FF0804239
:10858000D3F8583203F04F03C2F8E43EFFF71FFF61
:1085900048B14FF08043D3F80024D20744BF6FF0B6
:1085A0000102C3F800244FF08053D3F83021062A8B
:1085B0000ED1D3F83431033B032B02D82F4AD35CBE
:1085C00033B12F4AD2F83C3743F48063C2F83C37CA
:1085D000264AD2F8883043F47003C2F88830BFF3DB
:1085E0004F8FBFF36F8F4FF01023D3F80022002A74
:1085F00003DBD3F80432002B2EDA224B0122C3F81E
:108600000425D3F80024002AFBD04FF010221521B6
:10861000C2F80012D3F80024002AFBD04FF0102338
:108620001522C3F80422174BD3F80024002AFBD0EC
:108630000022C3F80425D3F80024002AFBD0BFF39E
:108640004F8F0A49104BCA6802F4E0621343CB60B3
:10865000BFF34F8F00BFFDE70C4B0D4A1A6008BDFA
:108660000030014000C007400DF0ADBA00ED00E061
:1086700000500040ACCF020000C00040B0CF02006C
:108680000010004000E001400400FA054C2A0020E0
:108690000090D003054A4FF0A043105CD3F8043596
:1086A00023FA00F0C04300F001007047BCCF020085
:1086B000044B1A5C012393404FF0A042C2F80C35E2
:1086C000704700BFBCCF0200044B1A5C01239340EB
:1086D0004FF0A042C2F80835704700BFBCCF02007F
:1086E00008B50020FFF7F0FF0120FFF7EDFF0220A3
:1086F000FFF7EAFFBDE808400320FFF7E5BF08B534
:108700000020FFF7D5FF0120FFF7D2FF0220FFF77F
:10871000CFFFBDE808400320FFF7CABF074A4FF06C
:10872000A041105CD1F804350122824022EA030006
:108730001340C1F80805C1F80C357047BCCF0200E2
:10874000054A4FF0A043105CD3F8103523FA00F02F
:10875000C04300F001007047B8CF02000D2809D0D7
:108760000E2809D00F2809D010280CBF03204FF085
:10877000FF3070470020704701207047022070478B
:10878000014B185C704700BFB8CF0200C20708B5A4
:1087900001460CD54FF0A0430322C3F84427C3F889
:1087A0004827C3F84C27C3F85027FFF799FF8B07DA
:1087B0000AD54FF0A0430C22C3F83427C3F838275A
:1087C000C3F83C27C3F8402708BD000038B5074C64
:1087D000051E04F1080318BF1C4623682BB11A6854
:1087E00022605B6828469847F7E738BD403700208D
:1087F00020B9054B01225A70FFF7E8BF012802D1CA
:10880000014A9070F8E770473837002020B9034BD1
:1088100001225A70FFF7DABF704700BF38370020D7
:1088200038B50E4C2378B3B90D486360A36023615B
:10883000E36000F0E7F8054603F0E6F808B900F059
:10884000EDF801232370074BD3F800340BB101235B
:10885000A370284638BD8525F5E700BF38370020CE
:10886000F18702000000014037B50D4C00230DF1E7
:1088700007008DF80730FEF7CBFEE368013BE360AD
:10888000E36833B9074BD3F8005415B900F0D8F8B2
:10889000A5709DF80700FEF7DFFE03B030BD00BFF6
:1088A0003837002000000140012813B50CD0032800
:1088B00020D038B9134B0122C3F88020BFF34F8F6B
:1088C000BFF36F8F02B010BD0F4C00230DF10700F6
:1088D0008DF80730FEF79CFE23780BB9FFF7A0FF59
:1088E000E3689DF807000133E3600123A370FEF7FE
:1088F000B3FEE7E700F092F802B0BDE81040FFF7E2
:10890000B3BF00BF00E100E0383700201FB5037897
:108910008DF800304368019383688DF80830C36890
:10892000054A0393054B684653F8213052F821104D
:10893000984705B05DF804FB4C3700205037002005
:108940001FB503788DF800304368019383688DF874
:108950000830C368054A0393054B684653F8213035
:1089600052F82110984705B05DF804FB4C37002001
:1089700050370020F0B5194B90F800C091F81DE079
:1089800043F82C20164B16460A6943F82C20154B49
:1089900003F80CE00C4607460FCC89B06D460FC5B6
:1089A00094E80F0085E80F00CDF810C0BEF1000F6D
:1089B00009D0002E0C4A694608BF3246381D00F027
:1089C0009DFD09B0F0BD002E084A694608BF324639
:1089D00007F10C0000F064FBF3E700BF5037002004
:1089E0004C370020543700200D89020041890200D5
:1089F00000F18040002382B0036003680193019B73
:108A000002B07047044A137923B9012110609180A4
:108A1000184670478520704758370020074B1A6862
:108A2000D20704D4C02283F8002301221A604FF039
:108A300080430122C3F81825704700BF00E100E021
:108A40004FF0804208B50223C2F808334FF4827019
:108A5000FFF7CEFF0123D360D2F81834DB03FBD439
:108A600008BD00004FF0804110B5D1F8003163B16E
:108A70004FF48070FFF7BCFF0D4B58790122C1F80D
:108A8000082310B95A711B6898474FF08042D2F8FA
:108A9000043163B14FF48270FFF7AAFF0223C2F8DA
:108AA0000833034BBDE810401B680120184710BD78
:108AB0005837002000F1804000F5C040002382B00C
:108AC000036003680193019B02B07047800000F1CE
:108AD000A040D0F8002722F44032C0F80027D0F898
:108AE000003743EA0141C0F800177047054B4FF0CB
:108AF000FF32072843F8202084BFC01880F84820A0
:108B0000704700BF6037002010B51A4C94F85830F9
:108B10006BBB4FF0FF3222FA03F1C90748BFE118DF
:108B200003F1010348BF81F83020202BF3D100214D
:108B3000C8B20131FFF7DAFF0C29F9D10422002174
:108B40000D4803F081FA0D4BC02283F80623402222
:108B50001A604FF4BE70FFF7ADFF094B4FF00042B3
:108B6000C3F80423012384F85830002010BD0820E6
:108B7000FCE700BF60370020B437002000E100E0D0
:108B800000600040034B93F85800003818BF0120E4
:108B9000704700BF60370020F0B5394E331893F9A5
:108BA0003030002B69DA8D78C5F34005002D0BBFFE
:108BB000082300230C240824A34201D10420F0BD83
:108BC00056F82370013743D137185CB246F823209A
:108BD00087F8304015B9F21882F848008A785507AE
:108BE00016D4D70736D5820002F1A042D2F800573A
:108BF00025F00205C2F80057224FC50800F0070C07
:108C0000012202FA0CF217F805C042EA0C027A556A
:108C10008A780D7812F0020225D09B0003F1804380
:108C200003F5C0430002D3F8102522F4473222F4A2
:108C30004072C3F810252D04D3F8102500F4F85025
:108C400005F4403528431043C3F810050020B6E76B
:108C50000133B1E74D7800F5E0724FF0A047AD0069
:108C600047F82250C8E7083C46FA84F494F85000CC
:108C700040EA851584F85050E8E708209FE700BFD8
:108C800060370020B437002038B5204C251895F9FE
:108C90003020072A18DD083A44FA82F494F850305C
:108CA0009B09032B0BD14FF0A043D3F81015C14003
:108CB00001F001010231BDE83840FFF707BF012B89
:108CC0000CBF02210321F6E7D3B2072B1DD8930076
:108CD00003F1804303F5C043D3F8100540F00100D1
:108CE000C3F8100502F1400040B2800080B2FFF7E7
:108CF000E1FE51B195F9303054F823302BB1012306
:108D000003FA02F2024BC3F8042338BD6037002097
:108D1000006000404FF0A043D3F8103523FA00F074
:108D200000F00100704700002DE9F74F00244E4D80
:108D300001944FF48072012102F1804303F5C04396
:108D400090B21B68012B06D1D5F804330B4202D038
:108D5000FFF7B0FE0C430432B2F5907F4FEA4101B9
:108D6000EAD1414BD3F87C31012B0CD14FF4BE70CA
:108D7000FFF7A0FE4FF0A04344F00044D3F82025B5
:108D80000192C3F82025E3B2D3B1384F0025012664
:108D9000344210D0AB0003F1804303F5C043D3F855
:108DA0001005D3F8101557F8253023B1C1F3014150
:108DB000C0F3042098470135082D4FEA4606E7D155
:108DC000002C48DA294D4FF0A048294E4FF00009F9
:108DD000012716F9013B5A1C31D0C3F3C20202A984
:108DE0000A44DCB212F8042C03F03F0A03F0070334
:108DF00007FA03F31A4222D00AF5E073504658F8F6
:108E00002330C3F3014BBBF1020F0CBF032102213E
:108E1000FFF75CFE07FA0AF3C8F8203505EB0A03F2
:108E200093F9303055F823304BB1A109032904D010
:108E3000BBF1020F12D1012901D15046984709F127
:108E40000109B9F1040FC4D1D8F820350193C8F84D
:108E50002035002BB9D103B0BDE8F08FBBF1030F73
:108E6000EDD10229E8E700BF006000406037002034
:108E7000B0370020014B1B68184700BFBC370020EB
:108E80000E4B984237B50C4602D0002003B030BDDF
:108E900000230DF107008DF80730FEF7B9FB084BF2
:108EA0001D7915B901221C601A719DF80700FEF7A3
:108EB000D3FB002DE9D01120E8E700BF00200040DF
:108EC000BC3700200023435082B043580193019BDC
:108ED00002B070470A4610B54FF48E71FFF7F2FFEB
:108EE000136A9168C95C136A01331362C0F81C15D8
:108EF00010BD024608B500684FF49271FFF7E2FF1B
:108F000010684FF48471FFF7DDFF136801221A60C7
:108F100008BD8B690A4610B54FF4847123B9FFF779
:108F2000D1FFD0F8183510BDFFF7CCFF536AD168D8
:108F3000D0F81805C854536A01335362F3E70000B0
:108F40001FB501238DF80030044BCDE90110D3E9A2
:108F500000126846904705B05DF804FBC437002056
:108F600030B54D4DD5F804339A0585B051D5D5F8B7
:108F70002431002B4DD04FF492712846FFF7A2FF09
:108F80004FF40173C5F80833444B93F829200AB90C
:108F900001226A60404902228DF80020D1F8802425
:108FA000C1F8802403929A690292DA680192002241
:108FB000C3E906226846D3E9001290473648D0F844
:108FC0001C315BB1354A5169136A99424DD992F807
:108FD0002830002B49D11146FFF77CFF2E48D0F8EE
:108FE0004431002B56D04FF4A271FFF76BFF2B4B8F
:108FF00093F829200AB1012202609A69002A49D017
:10900000586AD96800229A6105B0BDE83040FFF780
:1090100097BFD5F804335B07D0D5D5F80831002BBE
:10902000CCD01E4C1C482146FFF773FF636AA2692F
:109030009A42C3D1E369E1684BB1A3612369E3605C
:109040000023606AE3616362FFF77AFFB6E794F892
:1090500029300BB901236B600F4B4FF40172C3F839
:1090600008230023606AA361EEE70B484FF48E717A
:10907000FFF728FF5369002BB0D0516902910023FC
:1090800091688DF80030019153616846D2E9001370
:109090009847A3E705B030BD00200040C43700204A
:1090A0002DE9F843534D90F804802C2303FB08531B
:1090B000064693F82A300C469146002B40F09680E5
:1090C0004D490068FFF7DCFE0746002840F090801D
:1090D00022683068511C0BD04FF0A041012393400F
:1090E000C1F8083502F5E0734FF0030C41F823C0D6
:1090F00061684B1C1FBF01F5E0734FF0A04C4FF0AF
:10910000000E4CF823E0A369C0F8243594F814C08D
:10911000637DBCF1010F4CEA0303C0F86C35C0F865
:109120001415C0F80C251DD1A268531C1FBF02F5F1
:10913000E0734FF0A0414FF0000C41F823C0E3680A
:10914000591C0BD04FF0A04C01219940CCF80815C8
:1091500003F5E0714FF0030E4CF821E0C0F808353C
:10916000C0F810252C2202FB08F2AB18C3F80490BB
:109170002369AB50B9F1000F20D04FF48E71247FDA
:10918000FFF7A0FE4FF4A2713068FFF79BFE326834
:109190001A4BC2F80433130B42F307326101002A61
:1091A000C9B21EDB1648841884F800130121520945
:1091B00003F01F0301FA03F340F82230336804225E
:1091C000C3F800252C2303FB08530022C3E9062221
:1091D00083F829205A61012283F82A203846BDE805
:1091E000F883084A03F00F03D154E7E70827F5E7AF
:1091F0001127F3E7C4370020618F020080000200CE
:1092000000E100E014ED00E00279044B2C2101FBA9
:1092100002335869003818BF01207047C437002056
:109220002DE9F84F064690F8048089469246FFF7EC
:10923000EBFF044600283CD1204F2C2508FB057B82
:109240004FF48E71CBF814A0CBF80890CBF8200027
:109250008BF828003068FFF735FE30680123836003
:109260005946FFF737FEDBF804305D461BBB30681C
:10927000DBF814402B6A9C4211D83368D3F81C21C8
:10928000002AFBD00122DA6000202C2303FB0877A0
:1092900000237B61BDE8F88F95F828303BB9D0F802
:1092A0001C31002BF8D05946FFF714FEE2E70F20DF
:1092B000EBE71120EEE72046ECE700BFC4370020C3
:1092C0002DE9F0473A4D07792C2303FB0753064657
:1092D0005C6824B103684FF40170C3F808032C23C1
:1092E00003FB0753986950B1D869002841D024B1D5
:1092F00033684FF40172C3F80423112436E09A61F5
:10930000D9605862D8612C2303FB075393F82930A6
:109310001BB910B93046FFF7ECFD4FF02C0808FBE5
:10932000075A3068DAF80430002B37D14FF4A271B5
:10933000D046FFF7C7FD3068D0F82491D0F8083147
:10934000D0F84441CBB914B9B9F1000FF3D02C23B4
:1093500003FB07550023AB61B9F1000F24D12CBBEF
:1093600095F8291033680122B1B11A602046BDE892
:10937000F0871961DA610120C5E7B9F1000FE6D184
:10938000002CE4D14146FFF7C4FDDAF82430DAF8C6
:1093900018209A42CFD8DAE75A60E7E74FF4017312
:1093A000C0F804330024E1E70324DFE70F24DDE7FE
:1093B000C43700200023435082B043580193019BDF
:1093C00002B070471FB501238DF80030044BCDE982
:1093D0000110D3E900126846904705B05DF804FB20
:1093E000F03700207FB5434AD2F82461002E60D0C8
:1093F00010464FF49271FFF7DDFF02238DF8003025
:10940000D2F88034C2F880340393D2F83C3502930A
:10941000394BDA6801920022C3E906226846D3E993
:10942000001290473348D0F8443173B14FF4A27121
:10943000FFF7C0FF304B9A693AB10022C3E9062218
:10944000D968D0F83C05FFF7BDFF2A48D0F8203195
:10945000ABB14FF49071FFF7ADFF0123C360264B12
:109460005A6962B1D0F84C150291002299688DF8C2
:10947000002001915A616846D3E9001290471D48C7
:10948000D0F858319BB14FF4AC71FFF793FF1A4BF2
:109490005A6962B1D0F84C150291002299688DF892
:1094A000002001915A616846D3E90012904704B048
:1094B00070BDD2F81031002BB4D04FF48871104633
:1094C000FFF778FF0C4BD2F83C0599698842A9D187
:1094D000DC69D96864B1D2F8005225F02005C2F8E1
:1094E00000521A699C61DA60DE61FFF76BFF99E751
:1094F0009C61FAE700200040F03700202DE9F84396
:109500005A4E90F80480242303FB0863044693F822
:1095100020300D469146002B40F0A380544900684E
:10952000FFF7AEFC0746002840F09D802A682068BF
:10953000511C0BD04FF0A04101239340C1F80835D6
:1095400002F5E0734FF0030C41F823C069684B1C2F
:109550001FBF01F5E0734FF0A04C4FF0000E4CF828
:1095600023E0AB69C0F8243595F814C06B7DBCF1DD
:10957000010F4CEA0303C0F86C35C0F80C25C0F8A5
:1095800014151DD1AA68531C1FBF02F5E0734FF0DC
:10959000A0414FF0000C41F823C0EB68591C0BD0E0
:1095A0004FF0A04C01219940CCF8081503F5E0716B
:1095B0004FF0030E4CF821E0C0F80835C0F8102534
:1095C000242202FB08F2B318C3F804902B69B350AD
:1095D000B9F1000F2FD04FF488712A7FFFF7EAFE10
:1095E00020684FF49071FFF7E5FE20684FF4927108
:1095F000FFF7E0FE20684FF4A271FFF7DBFE4FF4A7
:10960000AC712068FFF7D6FE23681A49C3F804132B
:10961000190B43F307335201002BD2B21CDB16485F
:10962000C51885F8002301225B0901F01F0102FA29
:1096300001F140F8231023680822C3F800252423F1
:1096400003FB08660023C6E906337361012386F82D
:1096500020303846BDE8F883084B01F00F015A541A
:10966000E9E70827F5E71127F3E700BFF037002007
:10967000E59302001003420000E100E014ED00E079
:109680000279044B242101FB02335869003818BFCA
:1096900001207047F037002001F06043B3F1005F14
:1096A0002DE9F0470646884692463BD190F8049053
:1096B000FFF7E6FF0446002836D11D4F3068242509
:1096C00005FB09754FF49071C5F814A0C5F8088022
:1096D000FFF770FE4FF4AC713068FFF76BFE336834
:1096E0006A69A968C3F84415C3F8482501229A603D
:1096F0006A68DAB9D3F82021D3F858011AB90028DA
:10970000F8D00F2007E00028FBD10122DA60D3F85F
:109710005821002AFBD0242303FB097700237B6117
:10972000BDE8F0871020FBE71120F9E72046F7E7B6
:10973000F0370020F8B501F06043B3F1005F044654
:109740000F465ED10379304D242101FB0351496856
:1097500021B100684FF40476C0F80863242000FBB0
:1097600003539E6956B1D869002839D021B12368C6
:109770004FF40472C3F80423112030E09A61DF60D3
:10978000DE6120684FF48871FFF714FE20684FF403
:10979000A271FFF70FFE2368C3F83475C3F83825AC
:1097A00016BB01221A602479242202FB045252685B
:1097B0000ABBD3F81011D3F84421D3F82401114384
:1097C00002D10028F5D00A46242303FB04550023C8
:1097D000984218BF03209A42AB6118BF0F20F8BD12
:1097E0001F61DA610126CCE7D3F8002242F02002A3
:1097F000C3F80022D7E74FF40472C3F80423002013
:10980000EDE71020EBE700BFF03700200220FEF765
:1098100085BF00002DE9F04780460D46FEF79EFF0C
:109820000328044610D8012D10D0022D30D05DB988
:109830001A48FDF70AFD1A4B04EB440213449D78C5
:10984000184B1B5DAB4219D0BDE8F087144E00EBFE
:109850004003F218F55C5378470053B1DFF84C90A1
:109860000E484A464FF48041FDF7D7FC08B989F805
:10987000008027443E440B4BB2781A55002DE3D0AC
:10988000094B1B68002BDFD02846BDE8F04718477E
:1098900000EB4004024804446578EFE738380020C4
:1098A00078380020913800208C38002014380020AF
:1098B00000780221FFF7AEBF08B5094B1B7853B102
:1098C0000020FEF701FF0120FEF7FEFEBDE8084084
:1098D0000320FEF7F9BEBDE80840FEF701BF00BF58
:1098E00015380020F8B57A4C237805461BB10023C3
:1098F0002370FFF7E1FF172D00F28780DFE805F006
:109900000C1717425364757F878C878C94999999AB
:109910009999C3C8D0D8E3E3FFF7CEFF6D48FDF7B0
:1099200094FC6D4B002204461A702046F8BD0020BE
:10993000FEF7B0FEF0B10020FEF7C6FE022D0CBF10
:109940004FF4E1644FF47A64634B1D7000254FF4CB
:1099500000464FF47A7029464FF4FA620023E4FB84
:10996000060102F0E5F92A460146BDE8F8405948EB
:10997000FDF753BCFEF79CFE022D0CBFC8244FF42C
:10998000C874E1E70020FEF785FE40B10020FEF735
:109990009BFE4FF44874504B03221A70D6E7FEF733
:1099A00087FEC824F7E70020FEF774FE38B10020D8
:1099B000FEF78AFE4FF47A64474B0422EDE7FEF788
:1099C00077FE4FF4C874F7E70020FEF763FE48B156
:1099D0000020FEF779FE404B05221A7040F6CD417B
:1099E0000022C2E7FEF764FEF5E70020FEF796FED0
:1099F000394B06221A70002240F26661B5E700205A
:109A0000FEF756FE344B07221A7000248DE7012022
:109A10002070FEF783FEEEE701202070FEF77EFE49
:109A200000224FF40051A0E7FEF769FE2A4B0C22FA
:109A3000EAE72A482A4EFDF708FCD5F1110504464D
:109A40001CD0D8B9012D13D0C820454321464FF46E
:109A500000474FF47A704FF4FA620023C5FB070108
:109A600002F066F9224601461C48FDF7D6FB044683
:109A70000220FEF71DFE0123337056E70220FEF799
:109A800023FE0023F8E7FFF717FF134B1222BBE773
:109A9000FFF712FF0020FEF70BFE0F4B1322B3E778
:109AA000FFF70AFF0120FEF703FE0B4B1422ABE782
:109AB000FFF702FF0020FEF7FBFD0120FEF7F8FD97
:109AC000054B1522A0E7FEF71AFE034B1D709CE71D
:109AD000883800205838002090380020183800209E
:109AE00015380020044B1B68DB0703D5034B18789F
:109AF000FFF7F8BE704700BF843800209038002080
:109B000010B5002914BF03240024FEF739FE80009D
:109B100000F1A040D0F8002722F44032C0F800271E
:109B2000D0F8003743EA0443C0F80037002010BDE6
:109B3000032801D8FEF704BE00207047044B1B68C1
:109B400013F0010301D0FFF7CDBE1846704700BFE8
:109B50008438002038B51C4B18601C4B10F00204F0
:109B6000054619601AD01A4B1A480E221A700F2295
:109B7000DA7010229A7111225A72042140F23332A3
:109B8000FDF7B0F9044648B9FDF704FA044628B9D0
:109B90000146114A1148FDF735FB0446EB0711D584
:109BA0000120FEF7F3FD6CB921460D4A0D48FDF783
:109BB00029FB044630B9BDE838400B4A0B48012167
:109BC000FDF720BB204638BD843800208C380020AB
:109BD00078380020E4CF0200B198020008D00200DB
:109BE000E59A02000CD002000D98020004D0020099
:109BF000032811D8012A0AD101290FD100F10E0240
:109C0000D2B20D4B00EB40001A54002070470129DE
:109C1000F7D0022904D049B1072070470022F8E7A5
:109C2000054B00EB400018444270EEE7024B00EB9E
:109C3000400018448270E8E778380020032802D8F2
:109C40000121FFF75DBF0620704708B50122022100
:109C50000020FFF7CDFF08B1072810D1072202210D
:109C60000120FFF7C5FF08B1072808D100210A220B
:109C70000846FFF7BDFF10B1072808BF002008BD48
:109C80000388102B10B502D0112B1ED010BD1A4C1A
:109C90002168B1B901220846FFF7AAFF08B10728D9
:109CA00024D1072202210120FFF7A2FF08B10728D3
:109CB0001CD1042202210020FFF79AFF08B10728D7
:109CC00014D1236801332360E0E70B4A1368013B9A
:109CD0001360002BDAD1FFF7B8FF0028D6D0074B6E
:109CE0001B68002BD2D0BDE810401847034B1B68FF
:109CF000002BE6D09847E4E79C38002098380020F5
:109D000008B50020FFF79AFF08B1062806D1012008
:109D1000FFF794FF10B1062808BF002008BD00001F
:109D20000D4B10B518600C4629B10120FFF700FF5C
:109D300040B102232370094B1B6853B9BDE81040A2
:109D4000FFF783BFFFF7F4FE08B10B23F2E72070A3
:109D5000F1E7002010BD00BF983800209C3800209B
:109D600075DF704776DF70477FDF70478FDF7047A2
:109D7000FDF726B970B50378012B044637D0022BC6
:109D800026D023BB1D4C1E4D20882844FDF702FC25
:109D9000238801339BB21D44238015F8012C0A2A25
:109DA00005D00D2A03D0174A12889A420FD8144DB5
:109DB000154E22882946304601F040FD082804D07F
:109DC0001328F6D008B1FDF7FBF80023238070BDFF
:109DD0000E4B0F480F491B1ADB081B0443F0010010
:109DE000FCF7F0FD6068BDE87040FDF7E9B8074B8F
:109DF000074809491B1ADB081B04EFE794390020C8
:109E0000A0380020662A0020243B0020C4C702009E
:109E10009CC7020010D0020042D002000146014857
:109E200001F027BC243B00200388212B13B50446F6
:109E30000FD80F2B11D9103B112B0ED8DFE803F0F0
:109E40000F280D470D0D0D0D0D0D0D370D0D0D4E80
:109E50000D543B2B56D0562B54D002B010BD8188E8
:109E60002B48002201F03AFD08B1FDF7A9F80720C0
:109E7000FFF764FE08B1FDF7A3F8A188254800F0BC
:109E80005BFD0028E9D002B0BDE81040FDF798B8AE
:109E9000214B2248A2882249C01AC008237A000414
:109EA00040F0030002B0BDE81040FCF798BD037A13
:109EB000022BD2D1184B19481A49C01AC008000405
:109EC00040F0030002B0BDE81040FCF77BBD00236A
:109ED0001A4685218088FFF747FFD2E700F1080185
:109EE0008088FFF73DFFCCE7002380888DF80430A1
:109EF00001A98DF80530FFF739FF0028ADD0FDF737
:109F00005FF8AAE7A0881321FFF72CFFB9E700BF8D
:109F1000243B0020682A00209CC70200C4C702001E
:109F20006ED002009CD0020008B5074801F0B0FADC
:109F300008B1FDF745F80120FFF700FE18B1BDE8B4
:109F40000840FDF73DB808BD503B00202DE9F8431F
:109F50000B78012B06460D4623D0022B5FD0002B39
:109F60006BD1374B374C3849E41AE408240444F0E9
:109F700003042046FCF726FD698805F10E023046F1
:109F800001F0ACFC08B1FDF71BF8304601F022FCF3
:109F900008B1FDF715F820462C49BDE8F843FCF759
:109FA00011BD284C264B8E688F89DFF8AC90E41ADF
:109FB000E408240444F001040025BD4219D3F31938
:109FC00013F8013C0D2B25D0DFF890803A4631463E
:109FD000404601F033FC054678B31128F6D002461E
:109FE0001B492046FCF7F2FC2846BDE8F843FCF785
:109FF000E7BF705DFDF7E4FA804648B11128F8D05C
:10A0000020462A464946FCF7E1FC4046FCF7D8FFCB
:10A010000135D2E70A20FDF7D3FA1128D3E7084B20
:10A0200008480C49C01AC008000440F00300FCF7BF
:10A03000C9FCBDE8F843FFF777BFBDE8F88300BF70
:10A040009CC70200C4C70200BAD00200CED00200F2
:10A0500022D102004BD10200FCD00200243B0020A0
:10A060001FB50378052B12D0062B17D0042B2AD14D
:10A07000164B17481749C01AC008000440F00300E7
:10A08000FCF7A0FC04B0BDE81040FFF74DBF4068EE
:10A09000C8B104B0BDE81040FCF792BF41680B4C5A
:10A0A0000B488B784A78001B8C7903944C79029486
:10A0B0000C790194C008C97800910004064940F069
:10A0C0000300FCF7A2FC04B010BD00BF9CC7020057
:10A0D000C4C7020087D1020059D1020010B504465E
:10A0E0000020FFF72BFD08B1FCF76AFF24B9FFF74A
:10A0F00007FE08B1FCF764FF012010BD0A8840F696
:10A1000077239A4213B50C4617D10D4B0D480E49D3
:10A11000C01AC008000440F003000190FCF752FC94
:10A12000A3880A4A0A490198033B9BB213801A4646
:10A1300002B0BDE81040FCF752BC02B010BD00BF39
:10A140009CC70200C4C7020097D10200662A002003
:10A15000B3D10200042808B506D00A2810D1BDE802
:10A1600008400020FDF7B0BF064B13215888FFF7C9
:10A17000F9FD30F0080303D0BDE80840FCF720BF2C
:10A1800008BD00BF243B002008B50849084800F07E
:10A19000B1FD08B1FCF714FF0548F72100F0BEFD42
:10A1A00018B1BDE80840FCF70BBF08BDFDA00200D8
:10A1B0003C3B002000B54FF480418BB00020FCF701
:10A1C00065FA08B1FCF7FCFEFCF79EF9FCF7E8FF26
:10A1D00008B1FCF7F5FE4B4D0FCD04AC0FC495E86C
:10A1E0000300494B494A00934FF4807384E803000D
:10A1F000CDE902230193464A0723694604A8FDF7E7
:10A2000071F908B1FCF7DCFE42490120FFF7A2FC1E
:10A2100008B1FCF7D5FE04A90020FFF781FD08B1C5
:10A22000FCF7CEFE0822002104A801F00DFF3A4CF5
:10A230003A4B049304A8059400F040FB08B1FCF7E6
:10A24000BFFEFDF703FF08B1FCF7BAFE01F09EFB6D
:10A2500008B1FCF7B5FE002304A90120049301F026
:10A2600027FC08B1FCF7ACFE04A801F0F3FC08B130
:10A27000FCF7A6FEFFF788FF294B0493294B2A48D9
:10A2800004A9CDE9053401F03FFA08B1FCF798FEC6
:10A29000102200210DEB020001F0D6FE0123234A1B
:10A2A00023488DF8143004A98DF81C3001F095F87E
:10A2B00008B1FCF785FE1F4A1D48032101F062F832
:10A2C00008B1FCF77DFE1A480022042101F071F864
:10A2D00008B1FCF775FE184801F05CFE174B1848F2
:10A2E0001849C01AC008000440F00300FCF76AFBDC
:10A2F000FFF71AFEFCF71CFA0028FBD1FDF7BCFEA5
:10A30000F8E700BF24D20200A03B0020A03C0020C0
:10A31000759D020055A10200502A00201D9E0200DA
:10A320004D9F0200719D0200243B002061A00200AD
:10A33000503B002050D20200DBD102009CC702003B
:10A34000C4C70200FFD102000369C26893429CBFE8
:10A3500080681B18013B981A70472DE9F843D0E933
:10A3600002940546A9EB04084068904520440F4636
:10A37000144404D901F03FFEEC60BDE8F883424686
:10A38000A4EB090401F037FE6868224607EB0801D8
:10A39000F0E72DE9F843C5680646894617464FF0B1
:10A3A00000083469B3687068A54228BFE418013C0E
:10A3B000621B5C1BBC4228BF3C46944228BF14462B
:10A3C00049462844224601F016FEB3682544AB42B4
:10A3D00008BF00253F1BA044A144F560E1D14046E1
:10A3E000BDE8F88310B5114C114AA2610223C4E9FB
:10A3F0000433104BE361A2644FF400730E4A0F491B
:10A400002362E26400231022E01DA3626362E36220
:10A41000A3656365E365226501F049FE08492046AE
:10A4200001F045FE2023A37110BD00BFA03D002018
:10A4300054D20200283E0020183E00205DD20200C7
:10A4400061D2020070B5164B182400FB04451D4470
:10A4500004FB00331646DC6A012C0ED0022C18D007
:10A46000E4B92846FFF770FF864204D832462846F2
:10A47000FFF773FF3446204670BD2846FFF764FFA0
:10A480008642344628BF044622462846FFF765FF29
:10A49000F1E72846BDE87040FFF77BBF0024EAE7FC
:10A4A000A03D0020FFF79EBF64DF704730B5C8B104
:10A4B000F2B10024651C8D4206DA1588A54212D837
:10A4C00005196D789D420ED1A14211D9005D48B1A8
:10A4D000013880B230B10234A3B210FA84F4A14240
:10A4E00006DB138030BD055D01352C44A4B2E1E7E5
:10A4F0000020F7E7F0B587B0002306460C4610466B
:10A50000ADF8063002AA10230DF105018DF80530D3
:10A51000FFF7CAFF16B9002007B0F0BD0028FAD136
:10A520009DF80550042D29D0102D29D0022DF3D1EE
:10A530000323BDF806206AB90DF106022146304614
:10A54000FFF7B4FFBDF806301BB92B463046FFF7C6
:10A55000ADFF0446BDF80670002FDCD00025AC42EC
:10A56000D9D9E8199DF8052002A9304401F0DBFC97
:10A5700048B19DF805301D44ADB2F0E70523D8E79A
:10A5800006250723D5E70120C6E7000030B50B4BB1
:10A5900019680B4B0022914201D1002009E09D78FF
:10A5A0008478A54206D11D880488A54202D1054BB6
:10A5B000186830BD01320433EDE700BF30400020A1
:10A5C00034400020284000202DE9F84F90F8C6A222
:10A5D0004FF0760B04460AFB0B0088469146FFF7C6
:10A5E000D5FF074668B3D4F8CC52052D29D804EB23
:10A5F000C5165A46A6F8D2920BFB0A4106F53570ED
:10A6000001F0F9FCB8F1000FC6F84C730E4F14BFFF
:10A610000023022386F8D0323B6801359D42C4F8FE
:10A62000CC520ED104F534750026EB6F28469847BE
:10A630003B6801369E4205F18005F6D30023C4F83D
:10A64000CC32BDE8F88F00BF3040002030B5A1B05B
:10A6500004460D467C22002101A801F0F5FC0323ED
:10A660008DF80430044BADF806501B6802940BB112
:10A6700001A8984721B030BD284000202DE9F041C5
:10A68000074691F8C60276234FF00008A0B081F883
:10A69000C88200FB03100C461546FFF777FF0646FD
:10A6A00060B17C22414601A801F0CEFC01238DF867
:10A6B0000430ADF80650029701A8B047294620465D
:10A6C00020B0BDE8F041FFF7C1BF000030B58BB04E
:10A6D000044620220D4602A8002101F0B5FC042208
:10A6E00000210DEB020001F0AFFC94F8C53294F8A4
:10A6F000C61213B3013BDAB276234B43122000FBA0
:10A70000023323445B8A01339BB2ADF804307623D5
:10A7100003FB01412A460B89ADF8063003238DF86F
:10A720000830019BCDE90543064B0493064B02A973
:10A73000186800F0FBFC0BB030BD762303FB01432F
:10A74000DB88E2E77DA602004C400020F0B504461D
:10A7500089B020220D466846002101F075FC94F86E
:10A76000C7321E4A01331268DBB2934284F8C73203
:10A770004FF000022AD294F8C632194F84F8C5224D
:10A780000133DBB2762113FB01F057F8237084F814
:10A79000C632261827504B433271E358CDF8123099
:10A7A000104B02930222104B8DF800200122ADF8CD
:10A7B0001020186803942A46694600F0B7FC18B1C7
:10A7C0002A462146FFF75AFF09B0F0BD84F8C82297
:10A7D00029462046FFF73AFFF6E700BF3040002049
:10A7E000344000207DA602004C4000202DE9F047B7
:10A7F000044688B00D46164600212022684601F026
:10A8000023FC94F8C6C294F8C51276231CFB03F20D
:10A81000A0184FF0120E07791EFB012301F1010C65
:10A820000A33BC4523441CD004F11C0C00F122085F
:10A8300007F1FF399444CAB2974216D989451B895A
:10A8400019D00EFB01FA013338F80A2093422AD1BD
:10A850000CEB0A0394F8C522013284F8C5220131B9
:10A86000E9E71B890289934208D101232B7000205C
:10A8700008B0BDE8F0870289934218D001339BB23B
:10A88000ADF810300B4B029300210B4B29700421C3
:10A890008DF80010ADF8122018680394324669460E
:10A8A00000F044FCE4E7013A9BB292B2E8E70023EF
:10A8B000D0E700BF7DA602004C40002010B570B16B
:10A8C000026862B1436853B1064900200860064936
:10A8D00001240C7005490A60054A136010BD0E2062
:10A8E000FCE700BF304000202C4000202840002022
:10A8F0004C40002010B5044680B10C4B1B787BB156
:10A90000FFF744FE70B90A4A1368052B0CD80949B1
:10A91000246841F823400133136010BD0E20FCE78A
:10A920000820FAE70020F8E70420F6E72C40002092
:10A930003040002034400020F0B50D468BB0044676
:10A9400000283BD0204B1B78002B39D01F4B1B68B5
:10A95000002B35D090F8C812002933D14FF4BA62D9
:10A960001B4F019101F070FB0199202202A801F018
:10A970006BFB3868294600F079FCE8B9154BC4F840
:10A98000CC0284F8C502A4F8C6021868206002232D
:10A990008DF808300126104BCDF81A00A4F8CA52E1
:10A9A0003868ADF818602A4602A90594049300F0AF
:10A9B000BDFB08B984F8C8620BB0F0BD0E20FBE700
:10A9C0000820F9E71120F7E72C4000203040002054
:10A9D0004C400020344000207DA602002DE9FF41BC
:10A9E0000C46054660B159B1974B1B7843B10388BB
:10A9F000322B67D007D8112B00F01881302B1FD0D5
:10AA000004B0BDE8F081332BFAD18288B1F8CA32A4
:10AA10009342F5D1C08891F8C6C291F8C56200286A
:10AA200000F0C080762101FB0C41002309798DF8EC
:10AA30000F30731C8B4200F0E68084F8C532A5E02D
:10AA40008388B1F8CA229A42DAD1C3887BBB91F8D5
:10AA5000C632762202FB03130269C3F8062091F87E
:10AA6000C432827A1344062B0EDC81F8C432A988E2
:10AA70002046FFF72BFE0028C2D0AA88214604B04A
:10AA8000BDE8F041FFF7FABD062381F8C4326F48F4
:10AA90006F4B7049C01AC008000440F002000190DA
:10AAA000FBF790FF6C490198FBF78CFFDFE720462E
:10AAB0000021FFF789FDA988204604B0BDE8F041D8
:10AAC000FFF744BE8288B1F8CA329A4298D1C3884F
:10AAD000002B57D191F8C672762317FB03F701EBD1
:10AAE0000708837A98F804603344062B25DC88F83D
:10AAF0000430122212FB0672334605F10C01224487
:10AB0000002098F80460B34201F10A0102F1120238
:10AB100027D31222013B02FB034394F8C62276217D
:10AB20003B4401FB0242598A138999422AD2062EDC
:10AB300028D0A98884F8C5629AE7062388F80430EB
:10AB40004248434BCA5B4549C01AC008000440F064
:10AB500002000190FBF73AFF41490198FBF732FFF1
:10AB6000C7E751F80A6C42F8086C51F8066C42F8D5
:10AB7000046C31F8026C168050809080D080108177
:10AB80000133BEE7002384F8C532AA880DF10F0116
:10AB90002046FFF72BFE002842D0AA882146FFF767
:10ABA0006DFD2DE7762303FB0CF3122707FB06331D
:10ABB000B5F80AE0294623447045BFF433AFCF8986
:10ABC000A7F52457082F08D8DFE807F01417050762
:10ABD000070707071A008F899F829F8A3FB1DF8A84
:10ABE0002FB11F8B1FB15F8B002F7FF41BAF013084
:10ABF0000631E1E78F89DF82EFE78F891F83ECE77A
:10AC00008F895F83E9E701238DF80F302046AA88FA
:10AC10000121FFF7D9FCA9882046FFF797FDEFE651
:10AC20009DF80F30002B3FF4EBAEEFE7B1F8CA32DE
:10AC300082889A4201BF002381F8C8324FF6FF7321
:10AC4000A1F8CA32DCE600BF2C400020DCC70200BD
:10AC50009CC7020068D2020087D20200CCD2020058
:10AC600012D3020090DF7047A5DF7047B5DF704751
:10AC70007FB50023ADF80810ADF80A106A4602A9A6
:10AC80000646ADF80C30ADF80E300093ADF8043048
:10AC9000FFF7E8FF054600B3114B124CE41AE40835
:10ACA000FDF784FB240444F0010403460E493246B8
:10ACB0002046FBF794FEBDF80020BDF8023052EAB2
:10ACC000030103D009492046FBF789FEBDF80420A3
:10ACD0001AB107492046FBF779FE284604B070BD3B
:10ACE0009CC70200FCC7020078D30200C2D3020056
:10ACF00001D4020080B14FF0F7130360FB2303710E
:10AD0000F723C3801723038141F6FB32002301613F
:10AD100043818281184670470E20704730B1A1F1FF
:10AD20001703E02B04D84180002070470E207047A5
:10AD30000720704713B5034680880C46B8B91A88B7
:10AD4000242A00F09C8014D8112A74D0232A00F001
:10AD5000A780102A3ED0A37A4BB1E1880020FFF7EC
:10AD600083FF002840F0A2804FF48073638102B01B
:10AD700010BD3A2A68D0552AEDD1DB88C988A07267
:10AD8000172B38BF17238B4228BF0B462381FFF7B1
:10AD90006DFF60B1FDF70AFB4E4B4F4902464F482D
:10ADA0001B1ADB081B0443F00100FBF70FFEE27ADD
:10ADB000002AD0D12369002BCDD040F67721ADF801
:10ADC00002202289ADF80010ADF804206946204623
:10ADD0009847C0E7DB7B0A790A73012B13D0022B5B
:10ADE00014D0E18823898B4205D20020FFF73CFF75
:10ADF00070B90123E372217B637B8B42ABD20020CD
:10AE0000FFF736FFA7E70B88E380EAE74B88FBE70D
:10AE1000112802D10123A372EDE7FDF7C7FA2D4BEC
:10AE20002F4902462D481B1ADB081B0443F0010082
:10AE3000FBF7CCFDDFE7F723CB8017230B8141F62F
:10AE4000FB3348818B8186E75B89CA88934228BFA0
:10AE50001346172B0A6938BF17230B8162B1C97AD1
:10AE600051B140F67721ADF80010ADF80200ADF811
:10AE70000430694620469047002363816BE71A7AC5
:10AE80000B694A73002B3FF466AF4DF67A218DF8BB
:10AE90000500ADF80010ADF802008DF8042095E72C
:10AEA000197A237B994228BF1946A9E711283FF454
:10AEB0005EAFFDF77BFA074B0949024607481B1AAC
:10AEC000DB081B0443F0010002B0BDE81040FBF7B3
:10AED0007DBD00BFFCC7020088D402009CC70200F1
:10AEE00057D402009BDF70479DDF70479EDF70479D
:10AEF000A1DF7047A3DF7047AEDF704730B504882D
:10AF000000239AB2944206D9456835F813508D4211
:10AF100003F10103F5D1104630BD8B6910B50C4625
:10AF20001988102913D8023189B2FDF736F860600C
:10AF300078B1A16900230222FDF770F8A269606868
:10AF40001288E1690223FDF769F8002010BD09208D
:10AF5000FCE70420FAE710B50C46C98A10290AD884
:10AF6000FDF71BF8606040B1E28AA1690023FDF79C
:10AF700055F8002010BD0920FCE70420FAE7000086
:10AF8000F0B58BB004460022C068124E0DF10601E8
:10AF9000FDF764F9142508B10BB0F0BDBDF806301B
:10AFA000A76805FB0377002202A93846FDF756F98A
:10AFB00030B1E06800220DF10601FDF74FF9EAE734
:10AFC0009DF8083056F82330002BECD00398FCF79E
:10AFD000CEFFE8E734D50200F7B505460C4C0D4826
:10AFE0000092241AE40824040B460F4616460A4928
:10AFF0002A7844F00100FBF7FCFCAB6833B1E96848
:10B000003A46304603B0BDE8F040184703B0F0BD03
:10B0100004C802009CC70200C4D40200F0B58FB07F
:10B020000D46012206A90646FDF718F9044690B917
:10B030009DF81830052B65D8DFE803F0030F1C24BA
:10B04000292EBDF82A20BDF828102846FFF750FF0A
:10B050000446112C40D10FB0F0BD02A90798BDF8ED
:10B060002E200C910023FCF7E3FF0AA92846FFF7E6
:10B0700041FFEDE7BDF828100DF12A022846FFF741
:10B0800031FFE5E70AA92846FFF72EFFE0E70AA906
:10B090002846FFF72BFFDBE70DF1060402AB214644
:10B0A00007980D9302220023FCF7C2FFBDF806208B
:10B0B0000D9907980C940223FCF7BAFF0AA92846B9
:10B0C000BDF80670FFF718FF04460028C1D1BDF88F
:10B0D0000630BB4218BF0C249DF818200F4B53F8C4
:10B0E000223013B10798FCF742FF002206A9304630
:10B0F000FDF7B4F8002CAED02246294606A8FFF78B
:10B100006BFFA8E70648074B07491B1ADB081B041F
:10B1100043F00200FBF756FCDEE700BF34D5020027
:10B120009CC7020004C802000ED502002DE9F843B6
:10B130000F461446054620B94FF00E084046BDE8BC
:10B14000F8830029F8D0FFF71BFF3B78052B6AD85E
:10B1500021462846FFF7D2FE2B88834263D014266F
:10B160004643A8683044FDF772F8002860D03B7869
:10B17000052B3BD8DFE803F00311171E242A7A8A37
:10B18000398A2046FFF7B4FE112851D058B3024641
:10B1900021463846FFF720FF25E007F11001204641
:10B1A000FFF7A8FEF0E7398A07F112022046FFF701
:10B1B00099FEE9E707F110012046FFF795FEE3E766
:10B1C00007F110012046FFF791FEDDE7BB6907F1AB
:10B1D00010012046B3F80080FFF78EFE30BBBB693C
:10B1E0001B8843450DD14FF00008A7E71B4B1C48B7
:10B1F0001C49C01AC008000440F00200FBF7E2FB43
:10B20000F1E70C20C3E72869002895D03946984714
:10B210008046A0B192E73B7859F82330BBB17868FB
:10B22000FCF7A5FE13E04FF0070887E71128AED121
:10B23000DFF834903B7859F82330002BE3D1A8682D
:10B2400039463044FCF7AEFF80460028E3D1A868B9
:10B2500021463044FFF7E2FE70E700BF9CC70200C2
:10B2600004C802000ED5020034D50200F8B50D4620
:10B27000044678B3FFF784FE29462046FFF73EFEDA
:10B280002288824211D00020F8BD616831F8131085
:10B29000814203F101030BD0208800234FF6FF7693
:10B2A0009AB282420BD30420EEE700234FF6FF70E0
:10B2B00099B28A42E9D82069FCF757FEECE7616849
:10B2C0005A0001EB43078A5AB24203F10103E7D166
:10B2D0003D80D8E70E20D7E737B50C4608B301B359
:10B2E0000588112D15D181882046FFF707FE238898
:10B2F000ADF80600834214D0112D14D163684FF6C7
:10B30000FF7223F810200DF10601E068FCF74AFFF8
:10B3100007E0A5F130031F2BE5D9A5F150031F2B42
:10B32000E1D903B030BDA368142202FB0030FFF75F
:10B3300075FEF6E78ADF70478BDF70478CDF70475A
:10B3400030B5037A89B004460D46CBB1837C0193B6
:10B35000FFF7F2FF1422002103A800F075FE019B05
:10B3600004F10A0204F11401A81CFFF7E7FF05230A
:10B370008DF80C30049018B1636A0BB103A898479C
:10B3800009B030BD10B5034668B162B103290CD1D4
:10B39000007960B91C8811888C4203D00121197191
:10B3A00012681A6010BD0E20FCE70720FAE704209F
:10B3B000F8E750B1CB060AD011F0040116BF012303
:10B3C000417143718271002070470E207047072041
:10B3D0007047007DC0F3C0007047F8B50D460446C5
:10B3E000002852D042620021082200F02DFE002DDC
:10B3F00038D02B7923722B7BA3742B68FBB104F11B
:10B40000140203F1080718685968164603C6083382
:10B41000BB423246F7D1186830609B88B380AA6877
:10B42000C2B11368C4F80A305368C4F80E3004F18E
:10B430002803A3641F23A4F84C300020F8BD6369DF
:10B4400003F0E30343F4200343F482736361502366
:10B45000A361E4E7062363811823E3604FF4C87314
:10B460002382E4E76369257203F0E30343F42003D6
:10B4700043F4827363615023A3610623638118231D
:10B48000E3604FF4C8732382D1E70E20D6E70000B3
:10B4900010B5044686B048B31422002101A800F07C
:10B4A000D3FDFFF749FF2046FFF793FF30B1636AF2
:10B4B00023B101228DF8042001A8984704F1480126
:10B4C00004F11400FFF736FF044630F008000BD0FB
:10B4D0000748084B08491B1ADB081B0443F001000E
:10B4E0002246FBF773FA204606B010BD0E20FBE79C
:10B4F0009CC70200ECC702004CD502002DE9F04FBA
:10B5000006468BB036F8083B1B2B07460C4600F06E
:10B5100094801D2B16D0102B32D1142200210DEB5C
:10B52000020000F091FD06238DF81430BB88ADF8C1
:10B530001C3004F114030993636A0696002B40F053
:10B540008F801DE0142200210DEB020000F07CFD35
:10B5500004F1140320460993FFF73BFF04F1480A66
:10B5600088B102238DF8143005A8636A06969847BF
:10B5700051460020FFF7DEFE31462046FFF7E0FE91
:10B580000BB0BDE8F08F94F8058094F80690B8F100
:10B59000000F45D094F804B0B98C224604EB8B031D
:10B5A000054693420CD1B9F1000F18D0AB4518D124
:10B5B0009DF81C3043F004038DF81C30012313E088
:10B5C000386A0191CDE90223FEF794FFDDE901120B
:10B5D000039B00B30135EDB2B9F1000F1ED1002D70
:10B5E000E6D14FF00008434601220696B9F1000F5C
:10B5F00019D09A421DD100238DF8143031462046CF
:10B60000FFF79EFE636A0BB105A8984751460020DC
:10B61000FFF790FEB4E7B9F1000FC7D10432C0E7DD
:10B6200043464246E1E7B8F1000F02D08DF814908E
:10B63000E4E703238DF81430E4E714220DEB020055
:10B64000002100F001FD3A7A012A99D1636A002BAA
:10B6500096D0042114348DF8141009948DF8182014
:10B6600005A898478CE762DF70470B6903B118475C
:10B670007047F0B50C4687B014220546002101A89A
:10B6800000F0E2FC227852BBA388012B27D1A179DC
:10B690002B78994223D194F808C0BDF81260BDF808
:10B6A0001400BDF81670122111FB0C41234694467C
:10B6B000994216D1BCF1000F01D0ADF816701AB145
:10B6C000ADF81260ADF81400EB6843B16288ADF8D4
:10B6D000062000228DF8042001A92846984707B0CB
:10B6E000F0BDB3F80EE0BEF1020F04D0BEF1030FBF
:10B6F00005D01233DCE7DF8A4FF0010CF9E7DE8A70
:10B70000188B0122F5E70000F0B5184B87B002AAAC
:10B7100004460D4603F1100C174618685968164682
:10B7200003C6083363453246F7D1ECB1E5B1AB68E7
:10B73000D3B121463846FFF796FF98B923788DF8A4
:10B7400006300123ADF804304FF6FF7363802B6899
:10B75000E3606B682361AB68A0802081636101A80E
:10B76000FFF7C8F807B0F0BD0E20FBE7B0D5020028
:10B7700010B5034686B00846F9B1F3B149884FF6D3
:10B78000FF72914219D09C888C4216D119881129D8
:10B7900015D0392911D182887AB1598991420CD1B9
:10B7A000C26852B101218DF8041003F11001DB8948
:10B7B0000391ADF8103001A9904706B010BDC368E1
:10B7C000002BFAD002218DF80410428001A998477D
:10B7D000F3E7000010B504468AB048B342884FF63C
:10B7E000FF739A4226D0C38823B32022002102A8E7
:10B7F00000F02AFC01238DF804308DF808300E4B40
:10B800006069CDE90434E388ADF81A304FF40033B1
:10B810000022079301AB8DF805200893628840F25F
:10B82000011302A9ADF81830FFF780FC0AB010BD73
:10B830000E20FBE70820F9E76BB6020070B50E4654
:10B8400088B01546044600283CD0202200216846D6
:10B8500000F0FAFBF42D0CD91B4B1C481C49C01AF4
:10B86000C008000440F00200FBF7ACF8072008B065
:10B8700070BD62884FF6FF739A420BD1124B13488A
:10B880001449C01AC008000440F00200FBF79AF8FF
:10B890000820ECE701238DF800300F4B6069ADF80C
:10B8A0001650CDE902342389ADF812300023ADF8EB
:10B8B000143069464FF481730696ADF81030FFF7E7
:10B8C00035FCD4E70E20D2E79CC70200E4C7020093
:10B8D00079D502008BD502006BB6020050B14180D1
:10B8E0002AB15388C3801388838093880381406979
:10B8F000FFF7BCBC0E20704710DF704713B504463D
:10B9000009496846FCF7F8FC019808B902B010BD77
:10B91000D0E900212046904718B16846FCF7F6FCB4
:10B92000F2E71120F2E700BFCCD5020013B50446C0
:10B9300007496846FCF7E0FC019B0BB902B010BD5B
:10B940002046D3E9002190476846FCF7DFFCF3E787
:10B95000E4D502000B4991F816335A09EC23134140
:10B96000DB0706D5084B9A683AB94FF480030B60A1
:10B97000704742F20200FBF723BB1A6842F48002D0
:10B980001A60704700E100E010370020F7B5194F4A
:10B990003C7864BB184E012520463570FFF7AEFF9A
:10B9A000112821D02046FFF7C1FF144B8DF803402A
:10B9B000186801900DF10300FBF72AFE104901A859
:10B9C000FFF79AFF0446B0FA80F0400938709DF8FE
:10B9D0000300FBF741FE3CB90A4B34701C70FFF7C3
:10B9E000B9FF2846FFF7A2FF204603B0F0BD0824A8
:10B9F000FAE700BF5140002050400020C8D50200A7
:10BA0000DD6F020052400020014B1878704700BFE4
:10BA10005140002007B508496846FCF76DFC019BC2
:10BA200013B903B05DF804FBD3E9002090476846E2
:10BA3000FCF76CFCF3E700BFD8D50200FFF7EABFC4
:10BA400060DF704769DF704761DF704730B5134DC5
:10BA5000ADF5017D4FF4FA740DF1020103A8ADF8C4
:10BA60000240FFF7F1FF70B9294601A8FCF744FC3A
:10BA7000029B002BF0D003A8D3E90021904701A836
:10BA8000FCF744FCF4E7052805D00DF5017DBDE881
:10BA90003040FBF795BA0DF5017D30BD6CD8020042
:10BAA000024B1B780BB1FFF7D1BF7047534000200A
:10BAB00030B5054685B00C46002900F0B6805C4BD9
:10BAC0000B600C22002101A800F0BEFA01238DF8C2
:10BAD000063022688DF80450062301A92020ADF815
