:020000022000DC
:1070000000000420757302005D7302005F730200CC
:1070100061730200637302006573020000000000E8
:107020000000000000000000000000006773020084
:1070300069730200000000006B7302006D730200B0
:10704000599702006F730200F99B02006F730200F0
:107050006F7302006F7302007D9A02006F7302006B
:107060006F7302006F7302006F7302006F73020090
:107070006F7302006F7302006F7302006F73020080
:107080006F730200B18802006F7302006F73020019
:107090006F7302006F73020061C702006F7302001A
:1070A0006F7302006F7302006F7302006F73020050
:1070B0006F7302006F730200000000000000000008
:1070C0006F7302006F7302006F7302006F73020030
:1070D0006F7302006F7302006F7302006F73020020
:1070E0006F7302006F7302006F73020000000000F4
:1070F000000000006F730200000000006F730200C8
:10710000000000000000000000000000000000007F
:10711000000000000000000000000000000000006F
:10712000000000000000000000000000000000005F
:10713000000000000000000000000000000000004F
:10714000000000000000000000000000000000003F
:10715000000000000000000000000000000000002F
:10716000000000000000000000000000000000001F
:10717000000000000000000000000000000000000F
:1071800000000000000000000000000000000000FF
:1071900000000000000000000000000000000000EF
:1071A00000000000000000000000000000000000DF
:1071B00000000000000000000000000000000000CF
:1071C00000000000000000000000000000000000BF
:1071D00000000000000000000000000000000000AF
:1071E000000000000000000000000000000000009F
:1071F000000000000000000000000000000000008F
:10720000354936480A1A02D0072291438D4634493F
:1072100034480A1A06D00722914381F309880222D2
:1072200082F3148830483149314A00F044F831483B
:107230003149324A00F03FF831483249324A00F0D1
:107240003AF832483249334A00F035F83248334987
:10725000334A00F030F833483349344A00F02BF811
:1072600033483449344A00F026F83448344900227F
:1072700000F02CF833483449002200F027F8334856
:107280003349091A082902DB002202604160314AB1
:1072900090471F481F49884205D00268043003B454
:1072A000904703BCF7E700208646EC46002000210B
:1072B000294A9047FEE7884207D0521A05D0037842
:1072C00001300B700131013AF9D17047884202D088
:1072D00002700130FAE770470000042000E003204C
:1072E0000000042000000420D8E30200E82A002067
:1072F000842B0020D0730200D073020044D402001B
:10730000D8E30200E82A0020E82A002048D502003D
:1073100048D5020048D5020048D5020048D50200F1
:1073200048D5020048D5020048D50200D7E3020044
:1073300074E40200842B0020842B0020842B002086
:10734000A43E0020A43E0020A43E0020A43E002035
:10735000A45E00209D730200A5AD0200FEE7FEE7DB
:10736000FEE7FEE7FEE7FEE7FEE7FEE7FEE7FEE7F5
:1073700000F002B8FFF7FCBF0F484FF00701884349
:1073800085460E4880470E48016841F4700101604F
:10739000BFF34F8FBFF36F8FFFF732BF09480A4922
:1073A0000A4A884207D0521A05D0037801300B7080
:1073B0000131013AF9D1704700000420F99102002F
:1073C00088ED00E048D50200E82A0020E82A0020E5
:1073D0007047000007B5044B0093044A402300F0B7
:1073E00032F803B05DF804FBF1730200852B002036
:1073F0002DE9F84388461446B2B10F4B0F4E0325D2
:10740000002743F00109224608EB0701002003F0A2
:1074100089FE0744241A48B933782BB14FF47A40D7
:10742000C847013D02D13570BDE8F88301233370B0
:10743000002CE8D1F8E700BF50D50200842B0020D3
:10744000704703F09FBEF0B595B01D46164608463E
:107450000C4601F0DBFD1A9B0D93CDE90865002574
:107460002B46082205A920460A958DF82C500C952C
:1074700001F0E8FD079B0293069B03939DF81430EF
:107480008DF8115003F00302012A1DD1BDF814201C
:10749000059DC3F3C203C2F383168DF81030B2000A
:1074A00008230EA9204601F0CDFDC5F3952508ABB4
:1074B0000093324602AB0EA9284600F031FB20466D
:1074C00001F0A8FD15B0F0BD022AF8D1BDF81650A4
:1074D000C3F3C203C5F389158DF810300827082DB2
:1074E0002E4628BF08263B4632460EA9204601F00C
:1074F000A9FDAD1B08AB02AA31460EA8374400F027
:1075000073FB002DEBD1DAE708B5FFF79AFF0448CB
:10751000042100F06FFA034B01225A7108BD00BF2D
:1075200038D50200E82A0020037813F0040216D0B0
:1075300003F00303012B03D0022B09D00120704775
:107540000A6800880232C0F3831002440A60F5E73B
:107550000B684288023303EB92130B60EEE7104690
:10756000704700002DE9F04FDFF81CA187B00F46EF
:1075700000230446861C0DF1070015468DF80730E0
:1075800001F028F8DAF804203A60DAF8083003F558
:1075900080739B1A0AF21C470AF583690AF21448A1
:1075A000B3421AD30020002D69D004F00F039B01D1
:1075B00043F0050363F30F00DAF80430DAB2033264
:1075C00033444AF822009DF80700CAF8043001F05D
:1075D00025F8012007B0BDE8F08F0121384601F001
:1075E00044FA484601F059FA404601F056FADAF8F2
:1075F00008000290C0B203300AEB800002A9FFF736
:1076000093FF029B30BBDAB20AEB8202D16803918E
:107610009A1C0133DBB20AEB83030292D3F80CB05D
:1076200001F00303012B22D0022B15D083464046E4
:1076300001F036FA10B1029BCAF8083059463846B4
:1076400001F013FADAF80830DAF8042003F5807351
:107650009B1AA5E7D8B2CEE7BDF80E30C3F3891365
:1076600003334FEA1B4B02EB93030293DFE7BDF8B2
:107670000C30C3F383134FEA1B4B1344F5E7A40507
:1076800044F0060098E700BF982C0020064B0748FE
:1076900010B500221A7001F072FC044610B90448BB
:1076A00001F01AFD204610BD982C0020A4D4020041
:1076B0008CD5020030B50A4C71B10A4A0A49121B36
:1076C000D20800239A4201D1002030BD31F8235066
:1076D000854202D00133F5E7034654F83300F4E75E
:1076E000B8D4020038D50200E82A0020094B01393D
:1076F00003EBC000032909D8DFE801F00A02040601
:107700000420704700797047407970470020704727
:1077100002207047B8D40200044BD3E9013058402E
:10772000C0B2B0FA80F04009704700BF982C00202A
:107730002DE9F04186B0FFF7EFFF0546002840F045
:10774000ED80774CC4F81804BFF34F8FA368029301
:10775000DBB2033304EB830002A9FFF7E5FE029BD3
:1077600018B1D4F81824002A5AD0DAB2991C01337F
:1077700004EB8202DBB204EB8303D268DB68049380
:1077800002F00303022B0392029154D1BDF80E3094
:107790006448C3F38917502F3E4628BF502606F190
:1077A000080166F38F13C1F30901ADF80E3001F043
:1077B000FEFB0546002800F09C8001F027FC00231A
:1077C000082203A9284601F033FC0299CB43DBB21F
:1077D0000133C9B20331B6EB830F4FEA830204EBE6
:1077E000810125D95FFA82F80823A6EB080628460E
:1077F00001F01EFCF6B208F108034B4903F0FC034C
:107800003246284601F014FC029B033703EB97072E
:107810000297D4F81834002B43D1D4F8106453E005
:1078200062689A4294D8A260284606B0BDE8F0810A
:1078300008233246E5E7012B5BD1BDF80C3039480F
:10784000C3F38311062928BF062161F3891302318E
:1078500001F00F018900ADF80C3001F0A8FB0546DE
:10786000002846D001F0D2FB0023082203A92846B5
:1078700001F0DEFB0026BDF80C20C2F38312B3003A
:10788000964203F10803C4D202994A1CC9B20331DB
:10789000029204EB81010422284601F0C9FB013663
:1078A000E9E7284601F0B6FBFFF736FF80F001005C
:1078B000C5B2B9E7F3685B7923B1336829461B6821
:1078C00030469847F3681E68002EF3D1284601F031
:1078D000A1FB0DF107008DF8076000F07BFED4F8E6
:1078E00018340BB9029BA3609DF8070000F096FEC8
:1078F000DAE7D4F8104454B90C4B0D480D49C01ABE
:10790000C008000440F0020000F05CF8CCE72368F7
:1079100020469B689847E3681C68ECE7002583E7EE
:10792000982C0020A4D40200A42C0020B8D402007B
:10793000E0D4020074D502002DE9F34704460E4658
:10794000924601A9012218469946FFF70BFE1B4FEC
:1079500010B3019D4FF00008AA1CC84508EB0201B6
:1079600023D11748002101F051F880F310000004E2
:1079700040EA1440E4006B1C04F03804DBB2EDB2C2
:1079800044F0010407EB8303033544EA881444EA16
:107990008624D86047F825403B781BB1FFF7C8FE26
:1079A0000028FBD102B0BDE8F087C9B207EB810126
:1079B0005AF82830CB6008F10108CEE7982C002057
:1079C000B430002000231A46FFF7B6BF07B50123E5
:1079D000019201AAFFF7B0FF03B05DF804FB07B501
:1079E000CDE9002302236A46FFF7A6FF03B05DF846
:1079F00004FB000030B50F4CD4F8102403460020DF
:107A0000114631B9D96808714AB9C4F810340A600E
:107A100030BDC9680D79854206D00968F1E7D268A2
:107A200014680C601360F3E701300A28E8D14FF0C6
:107A3000FF30EDE7982C002038B5084B0125D3F82E
:107A400010441D7004B938BDE3685D712368204699
:107A50005B689847E3681C68F4E700BF982C002037
:107A600030B5C38885B004460D4633B1144A009240
:107A70001449154A284601F076F8217A05291DD0C7
:107A8000637A4BB1A088FFF731FE104B104953F8D1
:107A90002020284601F067F8227A0E4BA08853F880
:107AA000222003920021FFF705FE039A0A490346AC
:107AB000284605B0BDE8304001F055B805B030BDEE
:107AC000B8D50200A0D5020098D5020024D6020045
:107AD000BDD5020048D60200C0D5020007B5034656
:107AE0000846197A052911D05B7A2BB1094A0A494F
:107AF000019001F038F801980849019001F033F83D
:107B0000019803B05DF804EB01F022B8002AF8D028
:107B1000F2E700BFB8D50200BDD50200E3DC0200E9
:107B20002DE9F04385B01F460C9D002395F80C907D
:107B30002B7306460C46904629463846FFF790FFC1
:107B4000B8F1060F09D8DFE808F00412181F28332F
:107B500040003146284601F006F800222946384602
:107B6000FFF7BCFF85F80C9005B0BDE8F0832268F4
:107B70003146284600F0F7FFEFE7D4E9002331460D
:107B8000284600F0F0FFE8E7A36800933146D4E907
:107B90000023284600F0E7FFDFE7E3680193A368CE
:107BA00000933146D4E90023284600F0DCFFD4E7F7
:107BB00023690293E3680193A36800933146D4E9F3
:107BC0000023284600F0CFFFC7E7636903932369CA
:107BD0000293E3680193A36800933146D4E900233C
:107BE000284600F0C0FFB8E708292DE9F74F804686
:107BF0000E4617461C463CD8002593F80C901D7382
:107C000019461046FFF72CFFDFF888A0DFF888B090
:107C1000AE4231D918F805205946204600F0A3FF9E
:107C20000135082DF4D11949194DDFF870A020460F
:107C300000F099FF4FF0000B5E4522D918F80B2099
:107C40007E2A05D81046019204F0F8FF019A00B987
:107C50002E225146204600F086FF0BF1010BBBF1AE
:107C6000080FE9D1012221463846FFF737FF84F893
:107C70000C9003B0BDE8F08F5146204600F073FF32
:107C8000CEE72946204600F06EFFE6E7D4D5020095
:107C9000D2D50200D0D50200CAD50200D6D5020046
:107CA000C30710B507D4F023054A4008145C2340ED
:107CB0001943115410BD0901C9B20F23F4E700BFE5
:107CC0008031002030B5094B1C78094B196800231E
:107CD0009C4202DC0022104630BD11F83350854230
:107CE00001EBC302F7D00133F2E700BF50310020AF
:107CF000A031002013B504460191FFF7E3FF38B12E
:107D000043682BB10199204602B0BDE810401847E6
:107D100002B010BD034B044819680022490800F066
:107D20005EBA00BF543100205831002010B5C0B2F7
:107D3000FFF7C8FF0446007801F092FE63785A1EF0
:107D400053425341834208D1044BD3E900231343E8
:107D500003D1BDE81040FFF7DDBF10BD7831002032
:107D600037B54308374AD35CC2074CBF1B0903F041
:107D70000F0304460D46042B25D8DFE803F0032645
:107D80002F3C4000F9B10121FFF78AFF00230DF1DC
:107D900007008DF8073000F01DFC0120A4F120033E
:107DA000C4F12001284A20FA01F100FA03F30B4341
:107DB000A040D2E9004120430B43C2E900039DF8F3
:107DC000070000F02BFC03B030BD002918BF0221D2
:107DD000204603B0BDE83040FFF762BF49B1032140
:107DE000FFF75EFF0121204603B0BDE83040FFF7FA
:107DF00081BF0121ECE70029E5D10421E8E709B1C1
:107E00000321E5E7FFF74CFF29462046FFF772FF05
:107E10000DF107008DF8075000F0DCFB0120A4F104
:107E20002003C4F12001084A20FA01F100FA03F30B
:107E30000B43A040D2E9004124EA000021EA0303F9
:107E4000BBE700BF80310020783100202DE9F041F0
:107E5000124E134F00243378A34208DC114BD3E9B0
:107E60000023134318D0BDE8F041FFF753BF3D682E
:107E700005EBC40815F8340001F0F2FD98F8013064
:107E80005A1E53425341181A4142414115F83400D9
:107E9000FFF766FF0134DEE7BDE8F08150310020D6
:107EA000A031002078310020092AF7B505460C469C
:107EB00016463ED901F0FCFCE8B11F4B1F481D607F
:107EC0001F4B204F1C70204B002120221E6004F00D
:107ED00015FF1E4B00200021C3E90001013CE4B264
:107EE0000326FF2C0DD11A4A1A48002103B0BDE821
:107EF000F04000F069B901F095FC0028DDD003B036
:107F0000F0BD9DF8063015F834008DF8046005EBDF
:107F1000C40223F007038DF8063001A993788DF889
:107F200005303A4601F0CEFC013CE4B20028D8D03E
:107F3000E5E70720E3E700BFA03100208031002003
:107F4000503100202D7D0200543100207831002076
:107F50004D7E020068D6020070B5084D084E002420
:107F60002B789C4201D3002070BD3368012113F8A7
:107F7000340001F027FD0134F2E700BF503100204A
:107F8000A03100201FB50021039001AA44F2010096
:107F9000CDE9011100F004F805B05DF804FB000024
:107FA00038B572B6FFF748FDFFF7C2FB0028FBD1DA
:107FB000104B114C114D1249E41AE408240444F00A
:107FC0000100FFF7FFFCD5F8F030DB0700D500BE5D
:107FD0000C4944F00200FFF7F5FCBFF34F8FEA684D
:107FE000094B02F4E0621343EB60BFF34F8F00BF15
:107FF000FDE700BFB8D40200E0D4020000ED00E0CD
:108000006CD6020078D602000400FA0549B152B1DC
:10801000531E1A4007D1826001608380C2601046FF
:1080200070470E2070470920704710B58468C268F9
:108030008388121B934208D3C26813400268D1544C
:10804000C3680133C360002010BD0420FCE78268D0
:10805000C3689A420AD08268838813400268D35C5E
:108060000B708368013383600020704705207047E0
:1080700010B5D0E90243D1E90202A04272EB03033A
:108080002CBF0120002010BD08B50A4800F0F9FB04
:10809000094AD2E90031C018084BD3E9002341F165
:1080A0000001904271EB030303D210F1807041F1A3
:1080B000000108BDF02A0020A83100202032002055
:1080C00037B505460C460A4801A900F00EFC60B120
:1080D0000570446001A9064800F031FC18B105485C
:1080E00000F0D4FB002003B030BD0420FBE700BF4C
:1080F0000C320020F02A002038B5184B1B780446BB
:1081000013B90025284638BD0028FAD0037F03F0B4
:10811000FF05002BF5D0FFF7B7FFD4E9022390420B
:1081200071EB030314D3236903B92377D4E9053032
:10813000984721690029E4D0237F03F0FF05002B35
:10814000DFD0D4E902325B1842F10002C4E9023206
:108150000348214600F0DFFFD4E700BFB031002024
:1081600094D6020013B5114B1149186801900823E9
:108170001048582200F0A6FB044698B90E4A0F4852
:1081800001A900F06FFA044660B90C48012100F023
:108190005BFB01230A4A0948194600F0BDFA094B66
:1081A00001221A70204602B010BD00BF90D6020016
:1081B000B43100200C32002029820200F02A002075
:1081C000FFFF7F00B03100203AB103685A614A1EB8
:1081D000514251411961002070470720704738B55E
:1081E000037F04460D4683B98261FFF74DFF236983
:1081F000281841F10001C4E9020103B125612146BB
:108200000020BDE83840FFF75BBF002038BD0023E9
:10821000014603770120FFF753BF0000014800F03B
:1082200030BB00BFF02A00202DE9F347064600F0DE
:1082300013FB40B1584AD2E9003113F1807341F188
:108240000001C2E900310021304600F014FB38B1D2
:10825000524C236823B12068FFF74EFF00232360B0
:108260000121304600F007FB20B1FFF70DFF4C4B1A
:10827000C3E900014B48494D4B4C4C4F01A900F05C
:108280006EFB002842D1DFF82081444CDFF82491B6
:10829000404600F056FF2368002872D07BB1236867
:1082A000D0E90252D3E902138D4272EB03032AD2C2
:1082B00023681B7F1BB12168404600F02CFF40461D
:1082C00000F039FFD0E9027A0546FFF7DDFE381AE3
:1082D0006AEB010A01287AF1000345DBB0F5350F9E
:1082E00040D3FFF79BFF324A02444FF4960300212C
:1082F000484600F031FA00283ED1236813B93046D1
:1083000000F002FA256002B0BDE8F0870378012B87
:108310001DD0022B09D14FF00008204600F00BFFC2
:10832000002836D080F81C80F7E73BB941680B7F06
:1083300023B901230B77204600F0EDFE01A919486F
:1083400000F038FB01A9174800F009FB99E74168E4
:108350002B68994202D100232B60EFE7204600F002
:10836000F3FEEBE7AA68C0E70021484600F079FA7F
:108370002846FFF7C1FE01E00D28F9D00023236055
:1083800086E7002BBFD1304602B0BDE8F04700F0D1
:10839000BFB901233B70D1E7A8310020283200206B
:1083A000203200200C32002094D60200B031002090
:1083B000FFFFB400F02A00200648074A0378074967
:1083C000D35C012213B1043002F0ACB80C3001F0E0
:1083D00055BE00BFF82A0020A432002054320020ED
:1083E0000648074A03780749D35C012213B10430D9
:1083F00002F04AB80C3001F0F1BD00BFF82A0020AD
:10840000A43200205532002037B50578012D0DD05B
:10841000022D30D075B91F491F48FFF718FE0028FC
:1084200034D103B0BDE83040FFF7DABF037A1BB99F
:10843000FFF7C2FF03B030BD4368184C19782046DF
:10844000FFF7F3FD80B18DF800500190144B6846A2
:108450001B689847A168E368A2885B1A9A42E7D232
:10846000104B01221A70E5E7A268E3689A42F1D046
:108470008DF80000EAE7C3688DF800500193FFF71C
:108480009BFF074B68461B689847D3E703238DF88B
:108490000030F6E755320020443200203032002010
:1084A0002C32002040320020F0B51F46234B89B00B
:1084B00004461A600D4600293DD08A882048096884
:1084C000FFF7A4FD002834D1AA89A9681D48FFF749
:1084D0009DFD00282DD11C4E0FCE6D460FC596E890
:1084E0000F0085E80F0063690693237C174A18483C
:1084F0008DF81C70003B18BF01238DF81430637C8D
:10850000002B14BF0E2300238DF81530E36802936F
:10851000A36803932368019369466368009301F09D
:10852000A3F830B90B4B18702368013301D0FFF763
:1085300043FF09B0F0BD0720FBE700BF2C3200204D
:108540003032002044320020A0D60200098402000C
:10855000F82A00204032002070B5084D0146084836
:108560002E78FFF774FD044636B100232B70FFF719
:1085700023FF08B1FFF706FD204670BD4032002002
:108580003032002010B501460E48FFF74EFD04467C
:10859000A8B90D480D4A0378D35C63B1043001F0EB
:1085A00067FF60B90A490748FFF751FD38B9BDE8D0
:1085B0001040FFF715BF0C3001F004FDF1E7204635
:1085C00010BD00BF44320020F82A0020A432002051
:1085D0005532002070B5EFF3108672B60C4A9468DD
:1085E00001239CB993600B4B0B4DD3F880102940AD
:1085F0001160C3F88050D3F8841051604FF0FF32FF
:10860000C3F88420047006B962B670BD0370FAE73F
:108610005832002000E100E0FC06FFBD084B9A68DC
:1086200010B55AB150B9EFF3108172B6054A1C6803
:1086300014605C685460986001B962B610BD00BFF8
:108640005832002000E100E0435882B03BB10023E3
:10865000435043580193019B012002B070471846D4
:10866000FBE70000F8B5204B4479204E43F8242066
:108670001F4A204B06EBC4049B1A2279DB081B041B
:1086800032B143F002001C49FFF79CF90820F8BD05
:1086900002680C88C2F8084590F904508A78047979
:1086A0005201002DD2B219DB14494F1987F800236B
:1086B00001226D0904F01F0402FA04F441F8254078
:1086C000427906EBC201012446F832000C7143F0F6
:1086D00003000B49FFF776F90020D8E7094904F0B9
:1086E0000F040A55ECE700BF6C3200206432002012
:1086F000B8D40200F0D40200C0D6020000E100E0CD
:10870000E2D6020014ED00E0036801221A6070470F
:10871000036801225A60704773B501F15005AD003E
:108720000068ADB24FF480348C400026C0F8084396
:10873000C0F84843465101F5A8714559019522F00A
:108740007F42019D40F82120C0F844430BB1C0F89E
:10875000044302B070BD00002DE9F74F0D4622F032
:108760007F4402684FF4803705F150068F40804601
:10877000B60002EB8500C2F84873B6B2C2F80873BF
:10878000D2F8041599464FF0000BD0F84035C0F8E8
:10879000401542F806B05B1A9259009223F07F43CD
:1087A000012B009A4FEA850A0CD1264B4FF48060CA
:1087B00043F001039847D8F8003043F806B09B59BE
:1087C0000193019BD8F80010D1F80465C1F84473F7
:1087D000A31B23F07F43012B1CD11A4B05F5A87571
:1087E000013443F0010341F825404FF4806098477D
:1087F000D8F80030D3F804359E4209D1D8F80030BB
:108800000020C3F84473C3F8047303B0BDE8F08FCD
:108810000D20FAE78A44C9F1FF13CAF84045D1F8A0
:108820000405221A013A22F07F4203F57F43934266
:10883000EED3002AE2D10134CAF84045D1F804351C
:108840009842DAE700D7020003680222C3F8442303
:1088500009B1C3F80423704700684FF48271FFF731
:10886000F3BE4FF4803303FA01F10368C3F84813F1
:10887000C3F80813704750318900006889B2FFF7C8
:10888000E3BE0368D3F804057047000090F9043094
:10889000002B09DB5A09012103F01F0301FA03F33E
:1088A0004032024941F82230704700BF00E100E049
:1088B000024B034A1B681068184700BF6C32002047
:1088C0006432002010B561B1B2FBF3F403FB142451
:1088D000A4B244B9C0E9001484608281C3812046F7
:1088E00010BD0E20FCE70920FAE737B550E8013F3C
:1088F0009DB2C48925448489A54228BF2D1B0489C3
:10890000A54202BFBFF32F8F002207E0C5EA03058F
:1089100040E80154002CE9D14FF001028DF803200A
:108920000193019A0A609DF8031001F0FF0321B141
:10893000006810FA82F003B030BD1846FBE70A88E1
:108940004B889A4209D150E8012FC2EA024240E81E
:108950000123002BF7D1012070470020704737B565
:1089600050E8023F1FFAA3F5C488A54202BFBFF337
:108970002F8F00220DE0C48925448489A54228BF99
:108980002D1BC3EA054540E80254002CE8D14FF006
:1089900001028DF803200193019A0A609DF80310EB
:1089A00001F0FF0321B1006800EB124003B030BDBD
:1089B0001846FBE70A884B889A4209D150E8022FF3
:1089C000C2EA224240E80223002BF7D1012070477F
:1089D0000020704701F01F024B090121914000EB7C
:1089E000830000F01EB801F01F0301229A404B09DA
:1089F00000EB8300D14300F02CB84B0901F01F01BC
:108A000050F82300C84000F00100704710B503463D
:108A100053E8000F0A4643E8002494F0000FF7D112
:108A200010BD10B5034653E8002F42EA010043E8A9
:108A3000000494F0000FF6D110BD10B5034653E8C2
:108A4000000F00EA010243E8002494F0000FF6D181
:108A500010BD10B5034653E8002F02EA010043E8B9
:108A6000000494F0000FF6D110BD10B5034653E892
:108A7000002F02EB010043E8000494F0000FF6D150
:108A800010BD10B5034653E8002FA2EB010043E8E8
:108A9000000494F0000FF6D110BD0121FFF7C1BF13
:108AA0000021FFF7CABF10B590B1D0E901230168DA
:108AB0009B1ADBB20A60013BDBB2FF2B026802D1DA
:108AC0000020107110BD11684C1C14600B70F2E78F
:108AD0000E20F7E737B5054600240DF107008DF8A5
:108AE0000740FFF777FD2A686B68116899420ED935
:108AF000481E106011F8013CEC68298A01FB034410
:108B0000AB6811791B1ADBB2994238BF13719DF81B
:108B10000700FFF783FD204603B030BD37B505469B
:108B200000230DF107000C468DF80730FFF752FDCA
:108B30002A681368591C1160E968641A298AB4FB11
:108B4000F1F41C709DF80700FFF768FD03B030BD1D
:108B5000826810B504462AB14369016800699847E4
:108B60000023A36010BD0EB403B5039921B104AB7B
:108B700001AA019300F076F802B05DF804EB03B0AF
:108B800070470A2938B504460D4602D10D21FFF77A
:108B9000F8FFA3682268591CA160D554D4E90132BA
:108BA0009A4204D32046BDE83840FFF7D1BF38BD14
:108BB0002DE9F84F9846DDE90A43154682460F46EF
:108BC0000A464FF00109AA420FD2C14538BFC1463B
:108BD00013F0010B01D16CB900240126B8F1010F8B
:108BE0001BD908F1FF386E43F8E709F10109B2FB20
:108BF000F5F2E8E79B070ED5B8F1000F0CBF302661
:108C00002026A145E9D2013C31465046FFF7B9FF85
:108C1000002CF6D1E0E72026F3E7B7FBF6F39D4200
:108C2000E1D9DFF83C80B7FBF6F3504618F80310A3
:108C300006FB1377FFF7A5FF3346AB42B6FBF5F60D
:108C4000F1D2BBF1000F02D00CB1A14501D3BDE8B8
:108C5000F88F20215046013CFFF793FFF4E700BF57
:108C600006D702002DE9F74F05461746884600292A
:108C700000F03E8118F8011B49B92B7B002B00F056
:108C80003781284603B0BDE8F04FFFF761BF2529C3
:108C900040F0B780002698F800302D2B424608F1AE
:108CA000010823D0302B24D02B2B25D000242A2BB5
:108CB00002F1010123D13B681A1D1B683A601C4474
:108CC0000A4613782E2B26D101324FF0000A1046A7
:108CD00010F8011BA1F1300CBCF1090F1DD80A23BB
:108CE00003FB0A13A3F1300A0246F0E746F001063F
:108CF000D1E746F00206CEE746F00406CBE711F8CE
:108D0000013CA3F130000928DBD80A2202FB04341D
:108D1000303C0A46CBE74FF0000A12F8011B01F085
:108D2000FB0068289046F8D0782909D86F290CD81C
:108D3000632962D022D8252963D0582900F0888081
:108D400098F80030002B95D197E770390829F7D8AB
:108D500001A353F821F000BFCB8E0200418D020029
:108D6000418D0200618E0200418D02003F8E0200A3
:108D7000418D0200418D0200518E0200642901D014
:108D80006929DDD13A68D2F80090111D89EAE972AB
:108D90003960A2EBE9724FF0010B092A35DCD345AB
:108DA00038BFD3462CB1B9F1000F01DB720700D5F3
:108DB000013CB30702D5BAF1000F03D0F00701D48C
:108DC0004CBB0024B9F1000F2DDAC9F100092D21A7
:108DD0002846FFF7D6FE06F00302022A04D1BAF1B4
:108DE000000F01D11CBB0024CDE9004653460A22E6
:108DF00049462846FFF7DCFEA2E73B681A1D1978B2
:108E00003A602846FFF7BDFE9AE70A230BF1010BF3
:108E1000B2FBF3F2C1E7A345D4D220212846013C9E
:108E2000FFF7AFFECCE77107D5D52B21D0E7A345DF
:108E3000DAD230212846013CFFF7A3FED2E7396899
:108E4000CDE900460A1D3A6053460A220968D0E778
:108E500039680A1D3A60CDE9004653461022F5E70D
:108E60003B681A1D3A6016F00106D3F8009024D131
:108E7000B9F1000F03D0484603F095FF0646B4420F
:108E80001DD809F1FF3919F8011F00293FF458AF27
:108E90002846FFF776FEF6E728460136FFF771FE13
:108EA00019F806100029F7D1A642BFF449AF2021D6
:108EB0002846013CFFF765FEF6E70026F0E7202193
:108EC0002846013CFFF75DFED9E73B681A1D3A6072
:108ED000302128461C68FFF754FE78212846FFF70A
:108EE00050FE00220823CDE900322146102280E7FF
:108EF00003B0BDE8F08F00BF2DE9F84FB0F806A031
:108F00004579D2F800B09DF828900AFB05F5043D9C
:108F100088460BEB0301A94203F1040488BFA5EBCB
:108F2000030BB4FBFAF607460AFB1644C2F800B07E
:108F30004EB9AAEB04055D4528BF5D46BBF1000FA5
:108F400004D1BDE8F88F3F68013EF1E7043408EB37
:108F500006003C442A46B9F1000F0DD02146ABEB88
:108F6000050B03F0A2FEDA452E443F6855464FF04C
:108F7000000428BF5D46E1E701462046EFE7FFF722
:108F800092BDF8B546790146721E0546002393420C
:108F90002D6803D30024A64202D8F8BD0133F6E7BA
:108FA0000F682846FFF7BAFD01343946F3E72DE98B
:108FB000F843068ACD1C0746FFF78CFD043E354476
:108FC0000446B5FBF6F5F0B14FF48073EDB2838043
:108FD000C680013D076081464FF00008A84512D2C7
:108FE0003846FFF777FD064648B163790133637170
:108FF00008F10108C9F8000007608146EEE7204645
:10900000FFF7BFFF34462046BDE8F8830121043056
:10901000FFF72BBD10B5012104460430FFF731FDE9
:10902000C0B220B92046BDE81040FFF7AABF10BD6E
:109030001FB503920022009203AAFFF75DFF05B05F
:109040005DF804FB1FB503920122009203AAFFF70B
:1090500053FF05B05DF804FB41DF7047064B10B5C8
:1090600000241C70054B1C60BFF35F8F044905484A
:1090700000F03BF8204610BD783200207C32002002
:1090800020D702007032002007B500230DF1070041
:109090008DF80730FFF79EFAF1EE103A23F09F03A8
:1090A000E1EE103ABFF35F8F0A4B4022C3F88421F0
:1090B0009DF80700FFF7B2FA03F038FB20B103B0C8
:1090C0005DF804EBFFF7C8BF20BF40BF20BF03B06F
:1090D0005DF804FB00E100E0836800225A60C3E908
:1090E00004229A60DA601A6070470B684A6843602D
:1090F000934208BF0023016008BF43607047436884
:1091000043B10268916852680B449342436004BFC4
:1091100000234360704770B5446806460D462068DA
:1091200018B1B3682946984718B923682B602560A1
:1091300070BD2468F3E74368186808B102681A60D4
:1091400070474368186870474368186800B97047EB
:10915000884203D102681A60012070470346006804
:10916000F4E7000010B50D49A1F59472914201D8C1
:1091700000200FE08C1AE30F03EBE4035B1002EB1B
:10918000C30452F83330834205D802D204F10802F6
:10919000ECE7606810BD2146E8E700BF2CDC020068
:1091A00008B5FFF7DFFF024B002808BF184608BDCF
:1091B000EFDA020010B50446C0B2FFF7E3F920462B
:1091C00010BD4FF08053D3F83001A0F1080358428E
:1091D000584170474FF08053D3F83021082A06D108
:1091E000D3F83431032B02D8024AD05C70470020F8
:1091F000704700BF2CDC020008B5FFF7E2FF40B16A
:109200004FF080430022C3F80C21C3F81021C3F8AB
:109210003825FFF7D6FF002846D04FF08052614B2B
:10922000D2F80414C3F82015D2F80814C3F8241592
:10923000D2F80C14C3F82815D2F81014C3F82C1562
:10924000D2F81414C3F83015D2F81814C3F8341532
:10925000D2F81C14C3F84015D2F82014C3F84415F2
:10926000D2F82414C3F84815D2F82814C3F84C15C2
:10927000D2F82C14C3F85015D2F83014C3F8541592
:10928000D2F83414C3F86015D2F83814C3F8641552
:10929000D2F83C14C3F86815D2F84014C3F86C1522
:1092A000D2F84424C3F87025FFF794FF18B13E4B61
:1092B0003E4AC3F88C26FFF78DFF18B13C4BFB22CA
:1092C000C3F81825FFF786FF70B14FF080414FF0CB
:1092D0008053D1F8E42ED3F8583222F00F0203F075
:1092E0000F031343C1F8E43EFFF774FF20B1314B85
:1092F0004FF40072C3F84026FFF763FF48B14FF008
:109300008043D3F80024D20744BF6FF00102C3F8B2
:109310000024294AD2F8883043F47003C2F8883018
:10932000BFF34F8FBFF36F8F4FF01023D3F800229E
:10933000002A03DBD3F80432002B2EDA1F4B012264
:10934000C3F80425D3F80024002AFBD04FF01022E4
:109350001221C2F80012D3F80024002AFBD04FF0EB
:1093600010231222C3F80422144BD3F80024002A3D
:10937000FBD00022C3F80425D3F80024002AFBD038
:10938000BFF34F8F0C490E4BCA6802F4E0621343DF
:10939000CB60BFF34F8F00BFFDE70A4B0A4A1A604C
:1093A00008BD00BF00C000400050004048810300DD
:1093B00000F000400090024000ED00E000E00140BD
:1093C0000400FA050C2B00200090D003074B1B5C17
:1093D0001F2B8ABF064A4FF0A04203F01F03D2F8AA
:1093E0000405D840C04300F00100704734DC02009F
:1093F00000030050074B1B5C1F2B86BF064903F080
:109400001F034FF0A041012202FA03F3C1F80C350B
:10941000704700BF34DC020000030050074B1B5CA8
:109420001F2B86BF064903F01F034FF0A041012206
:1094300002FA03F3C1F80835704700BF34DC0200BC
:109440000003005008B50020FFF7E8FF0120FFF7F8
:10945000E5FF0220FFF7E2FFBDE808400320FFF729
:10946000DDBF08B50020FFF7C5FF0120FFF7C2FFF1
:109470000220FFF7BFFFBDE808400320FFF7BABF97
:109480000A4B185C1F288ABF094B4FF0A04300F01D
:109490001F00D3F804250121814021EA02000A407F
:1094A000C3F80805C3F80C25704700BF34DC020080
:1094B00000030050014B185C704700BF30DC020015
:1094C00038B5074C051E04F1080318BF1C46236875
:1094D0002BB11A6822605B6828469847F7E738BDC9
:1094E0008832002020B9054B01225A70FFF7E8BFEF
:1094F000012802D1014A9070F8E7704780320020BD
:1095000020B9034B01225A70FFF7DABF704700BF42
:109510008032002038B50E4C2378B3B90D48636013
:10952000A3602361E36000F0E7F8054603F0FEF86E
:1095300008B900F0EDF801232370074BD3F800348D
:109540000BB10123A370284638BD8525F5E700BF80
:1095500080320020E59402000000014037B50D4C38
:1095600000230DF107008DF80730FFF733F8E368AB
:10957000013BE360E36833B9074BD3F8005415B9F6
:1095800000F0D8F8A5709DF80700FFF747F803B082
:1095900030BD00BF8032002000000140012813B51B
:1095A0000CD0032820D038B9134B0122C3F88020F7
:1095B000BFF34F8FBFF36F8F02B010BD0F4C00236E
:1095C0000DF107008DF80730FFF704F823780BB989
:1095D000FFF7A0FFE3689DF807000133E360012374
:1095E000A370FFF71BF8E7E700F092F802B0BDE8C0
:1095F0001040FFF7B3BF00BF00E100E08032002061
:109600001FB503788DF800304368019383688DF8A7
:109610000830C368054A0393054B684653F8213068
:1096200052F82110984705B05DF804FB94320020F1
:109630009C3200201FB503788DF8003043680193F9
:1096400083688DF80830C368054A0393054B684664
:1096500053F8213052F82110984705B05DF804FB0B
:10966000943200209C320020F0B5194B90F800C0D5
:10967000DFF86CE043F82C20164B16460A6943F8D5
:109680002C204B7F0EF80C300C4607460FCC89B0CF
:109690006D460FC594E80F0085E80F003B78CDF8C4
:1096A00010C01EF803304BB1002E0B4A694608BFAC
:1096B0003246381D00F000FE09B0F0BD002E074A0A
:1096C000694608BF324607F10C0000F0ABFBF3E738
:1096D0009C32002094320020019602003596020050
:1096E000A432002000F18040002382B003600368B0
:1096F0000193019B02B07047044A137923B90121F9
:10970000106091801846704785207047A83200206D
:10971000074B1A68D20704D4C02283F80023012221
:109720001A604FF080430122C3F81825704700BF2C
:1097300000E100E04FF0804208B50223C2F8083390
:109740004FF48270FFF7CEFF0123D360D2F81834B4
:10975000DB03FBD408BD00004FF0804110B5D1F809
:10976000003163B14FF48070FFF7BCFF0D4B5879A7
:109770000122C1F8082310B95A711B6898474FF0AD
:109780008042D2F8043163B14FF48270FFF7AAFF30
:109790000223C2F80833034BBDE810401B680120C8
:1097A000184710BDA832002000F1804000F5C040ED
:1097B000002382B0036003680193019B02B07047ED
:1097C00003681F2B83BF03F01F03036001484FF0A2
:1097D000A04070470003005007B5019001A8FFF7B3
:1097E000EFFF019B00EB8300D0F8003723F44033F8
:1097F000C0F80037D0F8003743EA0141C0F800173D
:1098000003B05DF804FB0000054B4FF0FF32072862
:1098100043F8202084BFC01880F85820704700BF4C
:10982000B032002038B51E4C94F86A30ABBB4FF60E
:10983000FF71FF205A09012A0CBF0A464FF0FF3280
:1098400003F01F05EA40D20748BFE21803F1010305
:1098500048BF82F83000302BECD10021C8B2013172
:10986000FFF7D2FF0C29F9D1062200210D4803F0A1
:1098700045FA0D4BC02283F8062340221A604FF4AC
:10988000BE70FFF791FF094B4FF00042C3F804236D
:10989000012384F86A30002038BD0820FCE700BFAF
:1098A000B03200201433002000E100E000600040EE
:1098B000034B93F86A00003818BF0120704700BFBF
:1098C000B0320020F7B53D4F3B18044693F93030D5
:1098D000002B71DA8B78C3F34003002B0BBF0825F4
:1098E00000250C200820854202D1042003B0F0BDE1
:1098F00057F82560013647D138196EB247F8252050
:1099000080F8306013B97B1983F858408B785A0778
:109910001AD4D8073AD501A80194FFF751FF019B4B
:1099200000EB8300D0F8003723F00203C0F80037C3
:109930002348E20804F0070C012303FA0CF310F8A3
:1099400002C043EA0C03835488780B7810F00200BD
:1099500028D0AD0005F1804505F5C0452402D5F8B5
:10996000102522F44F3222F44072C5F810251B0452
:10997000D5F8102504F47C5403F440331C431443FD
:10998000C5F810450020B1E70135ACE701A84A78D9
:109990000194FFF715FF019B03F5E073920040F877
:1099A0002320C5E7083E47FA86F797F8604044EA67
:1099B000831387F8603099E7082097E7B0320020DA
:1099C0001433002073B5244D2E18044696F9302028
:1099D000072A1DDD083A45FA82F595F860309B09A3
:1099E000032B10D1019001A8FFF7EAFE019BD0F8EC
:1099F0001015D94001F001010231204602B0BDE846
:109A00007040FFF7E9BE012B0CBF02210321F4E7F0
:109A1000D3B2072B1DD8930003F1804303F5C04355
:109A2000D3F8100540F00100C3F8100502F1400022
:109A300040B2800080B2FFF7B7FE51B196F93030E6
:109A400055F823302BB1012303FA02F2034BC3F87C
:109A5000042302B070BD00BFB0320020006000409F
:109A600007B5019001A8FFF7ABFE019BD0F81005E8
:109A7000D84000F0010003B05DF804FB2DE9FF477A
:109A80000024CDE90244584D4FF48072012102F1C7
:109A9000804303F5C04390B21B68012B06D1D5F873
:109AA00004330B4202D0FFF77FFE0C430432B2F5C1
:109AB000907F4FEA4101EAD14B4BD3F87C31012B27
:109AC00011D14FF4BE70FFF76FFE4FF0A04344F08A
:109AD0000044D3F820250292C3F82025D3F820288B
:109AE0000392C3F82028E3B2D3B1404F00250126EA
:109AF000344210D0AB0003F1804303F5C043D3F8E8
:109B00001005D3F8101557F8253023B1C1F30141E2
:109B1000C0F3052098470135082D4FEA4606E7D1E6
:109B2000002C59DA314D324C324E4FF000080127EB
:109B300016F9013B5A1C3CD0C3F3C20104A80144EE
:109B40005FFA83F911F8081C03F03F0203F00703E2
:109B500007FA03F319422CD001A80192FFF730FE57
:109B6000019B03F5E07350F82330C3F3014ABAF1C7
:109B7000020F0CBF032102211046FFF72DFE01A8A2
:109B80000192FFF71DFE019B07FA03F3C0F8203591
:109B9000AB1893F9303055F8233053B14FEA99118F
:109BA000032904D0BAF1020F19D1012901D11046BD
:109BB000984708F10108B8F1040FB9D14FF0A0435C
:109BC000D3F820250292C3F82025D4F8203503933A
:109BD000C4F820351343A7D104B0BDE8F087BAF12B
:109BE000030FE6D10229E1E700600040B032002017
:109BF0000003005010330020014B1B68184700BFC2
:109C00001C3300200E4B984237B50C4602D0002082
:109C100003B030BD00230DF107008DF80730FEF7CB
:109C2000D9FC084B1D7915B901221C601A719DF8E9
:109C30000700FEF7F3FC002DE9D01120E8E700BF94
:109C4000002000401C3300200023435082B04358C2
:109C50000193019B02B070470A4610B54FF48E7114
:109C6000FFF7F2FF136A9168C95C136A013313624C
:109C7000C0F81C1510BD024608B500684FF492717B
:109C8000FFF7E2FF10684FF48471FFF7DDFF136800
:109C900001221A6008BD8B690A4610B54FF4847121
:109CA00023B9FFF7D1FFD0F8183510BDFFF7CCFF6F
:109CB000536AD168D0F81805C854536A0133536207
:109CC000F3E700001FB501238DF80030044BCDE908
:109CD0000110D3E900126846904705B05DF804FB17
:109CE0002433002030B54D4DD5F804339A0585B0A6
:109CF00051D5D5F82431002B4DD04FF49271284620
:109D0000FFF7A2FF4FF40173C5F80833444B93F8F3
:109D100029200AB901226A60404902228DF80020F8
:109D2000D1F88024C1F8802403929A690292DA68FB
:109D300001920022C3E906226846D3E90012904747
:109D40003648D0F81C315BB1354A5169136A9942E3
:109D50004DD992F82830002B49D11146FFF77CFFEE
:109D60002E48D0F84431002B56D04FF4A271FFF7A3
:109D70006BFF2B4B93F829200AB1012202609A69EC
:109D8000002A49D0586AD96800229A6105B0BDE816
:109D90003040FFF797BFD5F804335B07D0D5D5F82F
:109DA0000831002BCCD01E4C1C482146FFF773FF16
:109DB000636AA2699A42C3D1E369E1684BB1A361C6
:109DC0002369E3600023606AE3616362FFF77AFF5F
:109DD000B6E794F829300BB901236B600F4B4FF4B1
:109DE0000172C3F808230023606AA361EEE70B4801
:109DF0004FF48E71FFF728FF5369002BB0D05169E3
:109E00000291002391688DF80030019153616846FA
:109E1000D2E900139847A3E705B030BD0020004009
:109E2000243300202DE9F843604D90F804802C2362
:109E300003FB0853064693F82A300C469146002B44
:109E400040F0AF805A490068FFF7DCFE0746002863
:109E500040F0A9802268531C10D01F2A87BF5549A3
:109E600002F01F0313464FF0A0410120984003F574
:109E7000E073C1F80805032041F823006168481C1D
:109E80000DD01F298BBF01F01F030B4649484FF02F
:109E9000A04003F5E0734FF0000C40F823C0306899
:109EA000A369C0F8243594F814C0637DBCF1010F98
:109EB0004CEA0303C0F86C35C0F81415C0F80C2543
:109EC0002BD1A368591C0DD01F2B8BBF03F01F0291
:109ED0001A4638494FF0A04102F5E0724FF0000CED
:109EE00041F822C0E1684A1C13D01F2987BF314ABC
:109EF00001F01F0C8C464FF0A0424FF0010E0EFAFD
:109F00000CFE0CF5E07CC2F808E54FF0030E42F8B9
:109F10002CE0C0F80815C0F810352C2202FB08F21E
:109F2000AB18C3F804902369AB50B9F1000F20D0EF
:109F30004FF48E71247FFFF787FE4FF4A2713068D3
:109F4000FFF782FE32681C4BC2F80433130B42F356
:109F500007326101002AC9B21EDB1848841884F850
:109F600000130121520903F01F0301FA03F340F823
:109F7000223033680422C3F800252C2303FB085346
:109F80000022C3E9062283F829205A61012283F8BE
:109F90002A203846BDE8F883094A03F00F03D1545C
:109FA000E7E70827F5E71127F3E700BF2433002090
:109FB000E59C0200000300508000020000E100E088
:109FC00014ED00E00279044B2C2101FB02335869A7
:109FD000003818BF01207047243300202DE9F84FC6
:109FE000064690F8048089469246FFF7EBFF044648
:109FF00000283CD1204F2C2508FB057B4FF48E71A7
:10A00000CBF814A0CBF80890CBF820008BF82800F0
:10A010003068FFF719FE3068012383605946FFF767
:10A020001BFEDBF804305D461BBB3068DBF81440D8
:10A030002B6A9C4211D83368D3F81C21002AFBD02C
:10A040000122DA6000202C2303FB087700237B61C8
:10A05000BDE8F88F95F828303BB9D0F81C31002BBB
:10A06000F8D05946FFF7F8FDE2E70F20EBE71120A3
:10A07000EEE72046ECE700BF243300202DE9F0474F
:10A080003A4D07792C2303FB075306465C6824B13D
:10A0900003684FF40170C3F808032C2303FB075334
:10A0A000986950B1D869002841D024B133684FF481
:10A0B0000172C3F80423112436E09A61D960586212
:10A0C000D8612C2303FB075393F829301BB910B92F
:10A0D0003046FFF7D0FD4FF02C0808FB075A3068D8
:10A0E000DAF80430002B37D14FF4A271D046FFF7D5
:10A0F000ABFD3068D0F82491D0F80831D0F8444155
:10A10000CBB914B9B9F1000FF3D02C2303FB0755D9
:10A110000023AB61B9F1000F24D12CBB95F82910B5
:10A1200033680122B1B11A602046BDE8F087196199
:10A13000DA610120C5E7B9F1000FE6D1002CE4D1C6
:10A140004146FFF7A8FDDAF82430DAF818209A42E1
:10A15000CFD8DAE75A60E7E74FF40173C0F8043369
:10A160000024E1E70324DFE70F24DDE724330020A8
:10A170000023435082B043580193019B02B07047C3
:10A180001FB501238DF80030044BCDE90110D3E950
:10A1900000126846904705B05DF804FB503300207C
:10A1A0007FB5434AD2F82461002E60D010464FF4A8
:10A1B0009271FFF7DDFF02238DF80030D2F8803472
:10A1C000C2F880340393D2F83C350293394BDA68F5
:10A1D00001920022C3E906226846D3E900129047A3
:10A1E0003348D0F8443173B14FF4A271FFF7C0FF88
:10A1F000304B9A693AB10022C3E90622D968D0F8F7
:10A200003C05FFF7BDFF2A48D0F82031ABB14FF431
:10A210009071FFF7ADFF0123C360264B5A6962B10D
:10A22000D0F84C150291002299688DF80020019118
:10A230005A616846D3E9001290471D48D0F858315A
:10A240009BB14FF4AC71FFF793FF1A4B5A6962B19F
:10A25000D0F84C150291002299688DF800200191E8
:10A260005A616846D3E90012904704B070BDD2F835
:10A270001031002BB4D04FF488711046FFF778FFEF
:10A280000C4BD2F83C0599698842A9D1DC69D968A0
:10A2900064B1D2F8005225F02005C2F800521A69C4
:10A2A0009C61DA60DE61FFF76BFF99E79C61FAE77A
:10A2B00000200040503300202DE9F843664E90F80E
:10A2C0000480242303FB0863044693F820300D46E2
:10A2D0009146002B40F0BC8060490068FFF792FC7B
:10A2E0000746002840F0B68029684B1C10D01F2973
:10A2F00087BF5B4A01F01F030B464FF0A0420120CD
:10A30000984003F5E073C2F80805032042F82300E3
:10A310006A68501C0DD01F2A8BBF02F01F03134622
:10A320004F484FF0A04003F5E0734FF0000C40F8A9
:10A3300023C02068AB69C0F8243595F814C06B7D44
:10A34000BCF1010F4CEA0303C0F86C35C0F80C15E2
:10A35000C0F814252BD1AB68591C0DD01F2B8BBF17
:10A3600003F01F021A463E494FF0A04102F5E07289
:10A370004FF0000C41F822C0E9684A1C13D01F2995
:10A3800087BF374A01F01F0C8C464FF0A0424FF0B8
:10A39000010E0EFA0CFE0CF5E07CC2F808E54FF059
:10A3A000030E42F82CE0C0F80815C0F8103524223E
:10A3B00002FB08F2B318C3F804902B69B350B9F14B
:10A3C000000F2FD04FF488712A7FFFF7D1FE20684D
:10A3D0004FF49071FFF7CCFE20684FF49271FFF7B5
:10A3E000C7FE20684FF4A271FFF7C2FE4FF4AC71B4
:10A3F0002068FFF7BDFE23681A49C3F80413190B40
:10A4000043F307335201002BD2B21CDB1648C518A8
:10A4100085F8002301225B0901F01F0102FA01F116
:10A4200040F8231023680822C3F80025242303FBE7
:10A4300008660023C6E906337361012386F82030DD
:10A440003846BDE8F883094B01F00F015A54E9E79B
:10A450000827F5E71127F3E750330020A1A10200F8
:10A46000000300501003420000E100E014ED00E0A2
:10A470000279044B242101FB02335869003818BFCC
:10A48000012070475033002001F06043B3F1005FBA
:10A490002DE9F0470646884692463BD190F8049055
:10A4A000FFF7E6FF0446002836D11D4F306824250B
:10A4B00005FB09754FF49071C5F814A0C5F8088024
:10A4C000FFF756FE4FF4AC713068FFF751FE33686A
:10A4D0006A69A968C3F84415C3F8482501229A603F
:10A4E0006A68DAB9D3F82021D3F858011AB90028DC
:10A4F000F8D00F2007E00028FBD10122DA60D3F862
:10A500005821002AFBD0242303FB097700237B6119
:10A51000BDE8F0871020FBE71120F9E72046F7E7B8
:10A5200050330020F8B501F06043B3F1005F0446FA
:10A530000F465ED10379304D242101FB0351496858
:10A5400021B100684FF40476C0F80863242000FBB2
:10A5500003539E6956B1D869002839D021B12368C8
:10A560004FF40472C3F80423112030E09A61DF60D5
:10A57000DE6120684FF48871FFF7FAFD20684FF420
:10A58000A271FFF7F5FD2368C3F83475C3F83825C9
:10A5900016BB01221A602479242202FB045252685D
:10A5A0000ABBD3F81011D3F84421D3F82401114386
:10A5B00002D10028F5D00A46242303FB04550023CA
:10A5C000984218BF03209A42AB6118BF0F20F8BD14
:10A5D0001F61DA610126CCE7D3F8002242F02002A5
:10A5E000C3F80022D7E74FF40472C3F80423002015
:10A5F000EDE71020EBE700BF503300201F288ABF93
:10A60000094B4FF0A04300F01F0003EB8000D0F88F
:10A61000003723F44033C0F80037D0F8003743EA5E
:10A620000141C0F8001770470003005008B5094BFE
:10A630001B7853B10020FEF7F1FE0120FEF7EEFE7D
:10A64000BDE808400320FEF7E9BEBDE80840FEF77C
:10A65000F9BE00BF74330020F8B57A4C2378054664
:10A660001BB100232370FFF7E1FF172D00F2878055
:10A67000DFE805F00C1717425364757F878C878CD1
:10A68000949999999999C3C8D0D8E3E3FFF7CEFF7D
:10A690006D48FDF7BCFD6D4B002204461A70204644
:10A6A000F8BD0020FEF792FEF0B10020FEF7B6FEE6
:10A6B000022D0CBF4FF4E1644FF47A64634B1D70BC
:10A6C00000254FF400464FF47A7029464FF4FA62A1
:10A6D0000023E4FB060102F0BBF92A460146BDE86F
:10A6E000F8405948FDF77BBDFEF784FE022D0CBFF4
:10A6F000C8244FF4C874E1E70020FEF767FE40B1BC
:10A700000020FEF78BFE4FF44874504B03221A7062
:10A71000D6E7FEF76FFEC824F7E70020FEF756FEE7
:10A7200038B10020FEF77AFE4FF47A64474B0422DA
:10A73000EDE7FEF75FFE4FF4C874F7E70020FEF781
:10A7400045FE48B10020FEF769FE404B05221A7015
:10A7500040F6CD410022C2E7FEF74CFEF5E70020AF
:10A76000FEF78EFE394B06221A70002240F2666117
:10A77000B5E70020FEF73EFE344B07221A70002496
:10A780008DE701202070FEF77BFEEEE701202070B0
:10A79000FEF776FE00224FF40051A0E7FEF761FEBF
:10A7A0002A4B0C22EAE72A482A4EFDF730FDD5F164
:10A7B000110504461CD0D8B9012D13D0C82045433B
:10A7C00021464FF400474FF47A704FF4FA620023A9
:10A7D000C5FB070102F03CF9224601461C48FDF783
:10A7E000FEFC04460220FEF705FE0123337056E707
:10A7F0000220FEF713FE0023F8E7FFF717FF134BC5
:10A800001222BBE7FFF712FF0020FEF7F3FD0F4B0C
:10A810001322B3E7FFF70AFF0120FEF7EBFD0B4B16
:10A820001422ABE7FFF702FF0020FEF7E3FD012053
:10A83000FEF7E0FD054B1522A0E7FEF712FE034BE5
:10A840001D709CE7C833002098330020C9330020D6
:10A850007833002074330020044B1B6813F001038D
:10A8600001D0FFF7F9BE1846704700BFC43300207F
:10A87000032811D8012A0AD101290FD100F10E02B3
:10A88000D2B20D4B00EB40001A5400207047012952
:10A89000F7D0022904D049B1072070470022F8E719
:10A8A000054B00EB400018444270EEE7024B00EB12
:10A8B000400018448270E8E7B8330020032808B548
:10A8C00006D8FEF7F7FD0321FFF798FE002008BD2C
:10A8D0000620FCE708B5012202210020FFF7C8FF8F
:10A8E00008B1072810D1072202210120FFF7C0FF7D
:10A8F00008B1072808D100210A220846FFF7B8FF4F
:10A9000010B1072808BF002008BD00000388102BE5
:10A9100010B502D0112B1ED010BD1A4C2168B1B950
:10A9200001220846FFF7A4FF08B1072824D1072217
:10A9300002210120FFF79CFF08B107281CD1042247
:10A9400002210020FFF794FF08B1072814D12368E3
:10A9500001332360E0E70B4A1368013B1360002BCF
:10A96000DAD1FFF7B7FF0028D6D0074B1B68002BC2
:10A97000D2D0BDE810401847034B1B68002BE6D02F
:10A980009847E4E7D0330020CC33002008B50020FE
:10A99000FFF794FF08B1062806D10120FFF78EFFCC
:10A9A00010B1062808BF002008BD76DF70477ADFA7
:10A9B00070477CDF70477FDF70478FDF7047B1DF04
:10A9C000704733DF704700F5E0704FF0A04303227B
:10A9D00043F820207047FDF7D5BA08B50020FFF7EF
:10A9E0003BFF08B1FDF7CEFAFFF7D0FF08B1FDF746
:10A9F000C9FAFFF7E6FF18B1BDE80840FDF7C2BA93
:10AA000008BD00000388212B13B504463FD007D8AA
:10AA1000112B2DD0132B48D0102B0CD002B010BD11
:10AA2000522B4AD0562B01D03B2BF7D1A0881321B3
:10AA3000FFF7BBFF15E0254B25482649C01AC00883
:10AA4000000440F00300FCF7BDFF0720FFF704FF00
:10AA500008B1FDF797FA204BA1882048198001F032
:10AA60002DFC0028DAD002B0BDE81040FDF78ABA0C
:10AA7000164B17481A49C01AC008000440F00300DA
:10AA8000FCF7A0FF144B4FF6FF721A80C6E70023B5
:10AA900080888DF8043001A98DF80530FFF78DFF0F
:10AAA0000028BBD0FDF76EFAB8E70B4800231A4622
:10AAB00085210088FFF77FFFD3E7074800231A4668
:10AAC00019460088FFF77BFFCBE700BFB8D4020030
:10AAD000E0D4020055DC02004A2B0020303900206F
:10AAE0005FDC020008B503784BB9054B3B211888A1
:10AAF000FFF75BFF18B1BDE80840FDF743BA08BD9A
:10AB00004A2B002008B548B103280BD10220FFF7DB
:10AB1000A3FE38B1BDE80840FDF734BABDE80840EF
:10AB2000FFF75BBF08BD0000F7B50378012B33D0FA
:10AB3000022B31D073BB1B4C1B4D20782844FDF7F2
:10AB40000BFD23780133DBB21D44237015F8012C73
:10AB50000A2A05D00D2A03D0144A12889A4219D81D
:10AB6000012B15D9124D104E124F2378ADF8063037
:10AB70000DF106022B883146384601F01BFD0828EE
:10AB800006D01328F1D0052802D008B1FDF7FAF954
:10AB90000023237003B0F0BD406803B0BDE8F0406F
:10ABA000FDF7F0B9C8340020D4330020482B002032
:10ABB0004A2B00204C2B00202DE9F0410578064659
:10ABC00045BB154C154BDFF85880E41AE408240403
:10ABD00044F00104B28A95420AD33369134413F84E
:10ABE000013C0D2B16D10A20FDF7CCFC1128F9E70A
:10ABF0003369585DFDF7C6FC074648B11128F7D008
:10AC0000024641462046FCF7E1FE3846FDF7BAF918
:10AC10000135DFE7BDE8F081E0D40200B8D40200DE
:10AC20006CDC02000D4B4A881B889A4214D10A88BA
:10AC300040F677239A420FD18B88094A09480A497E
:10AC4000033B9BB21380094A801AC00800041A46CD
:10AC500040F00300FCF7C3BE704700BF4A2B002042
:10AC6000482B0020E0D4020097DC0200B8D4020098
:10AC7000FDF788B92028054B4FF0010238BF4FF08F
:10AC8000A04302FA00F0C3F80C057047000300501F
:10AC90002028054B4FF0010238BF4FF0A04302FAC5
:10ACA00000F0C3F8080570470003005007B5002303
:10ACB00001298DF8073019D1182845D019D80B284B
:10ACC00029D00C2836D0274B27481B8801220DF1AC
:10ACD000070101F06FFC48B12448254B2549C01AF3
:10ACE000C008000440F00300FCF76CFE03B05DF800
:10ACF00004FB1928E7D104230D208DF80730FFF756
:10AD0000C7FF0E20FFF7C4FF0F20FFF7C1FF102081
:10AD1000FFF7B0FFD7E70D208DF80710FFF7AAFF68
:10AD20000E20FFF7B5FF0F20FFF7B2FF1020FFF74F
:10AD3000AFFFC8E702230D208DF80730FFF7A8FF0B
:10AD40000E20FFF797FFEEE703230D208DF8073065
:10AD5000FFF79EFF0E20FFF79BFF0F20FFF78AFFF4
:10AD6000E4E700BF4A2B00204C2B0020E0D4020077
:10AD7000B8D40200B3DC020008B50849084801F065
:10AD80007DF908B1FDF7FEF80548F72101F08AF9D1
:10AD900018B1BDE80840FDF7F5B808BD25AC0200C4
:10ADA0001839002000B58C4D0FCDB1B005AC0FC4E3
:10ADB00095E80300894B8A4A019384E803004FF425
:10ADC000807301ACCDE903230293864A0723214611
:10ADD00005A8FDF769FB08B1FDF7D4F84FF48041F1
:10ADE0000020FCF753FC08B1FDF7CCF8FCF78CFB16
:10ADF000FDF7B8F908B1FDF7C5F80D20FFF7E3FD41
:10AE00000E20FFF7E0FD0F20FFF7DDFD1020FFF71C
:10AE1000DAFD0D20FFF73CFF0E20FFF739FF0F2072
:10AE2000FFF736FF1020FFF733FF04216E4840F292
:10AE30003332FDF739F808B1FDF7A4F8FDF78CF8C7
:10AE400008B1FDF79FF8FEF709F908B1FDF79AF888
:10AE500001F02EFC08B1FDF795F8002305A90120AB
:10AE6000059301F0B7FC08B1FDF78CF805A801F0D7
:10AE700081FD08B1FDF786F811235C488DF8043098
:10AE800001F091FF594982B22046FFF792FD08B1C7
:10AE9000FDF778F80822002105A801F02FFF102304
:10AEA000ADF814303C23ADF816300023ADF818305F
:10AEB00005A84FF4C873ADF81A30FFF778FD08B154
:10AEC000FDF760F8FFF758FF494B4A48059305A97D
:10AED00001F0E2F908B1FDF755F8002104222046FF
:10AEE00001F00CFF444B45480193214601F0E8FA7C
:10AEF00008B1FDF747F8AC22002105A801F0FEFEDD
:10AF00004C23ADF804303E4B03931723ADF80830C3
:10AF10004FF4C063ADF816300E940123394C8DF810
:10AF200090300025402244F25063CDE92723294682
:10AF3000354B2E93182220468DF8145001F0DEFE7A
:10AF40000523237031486560A02305A92575A360FA
:10AF5000A58100F0ADFB08B1FDF714F82B480121E5
:10AF600000F0A3FB1C22002105A801F0C7FE00236E
:10AF70004FF4A032CDE90532ADF822304FF4F02283
:10AF80008DF82430224B07920A930322214B8DF82F
:10AF9000202005A80B9300F04BFE08B1FCF7F2FF50
:10AFA0001D4801F051FE1D4B1D481E49C01AC00826
:10AFB000000440F00300FCF705FD1448032100F0F5
:10AFC000EEFB08B1FCF7DEFFFCF7B2FB0028FBD17B
:10AFD000FEF75AF8F8E700BF10DD02003C39002008
:10AFE0003C3A002029AB0200102B0020C8DC0200F4
:10AFF000D7A9020030390020B9AB02004C2B002049
:10B00000302B0020CC34002005AB0200E4340020BB
:10B01000E5AA020071AC0200D4DC0200B8D4020040
:10B02000E0D40200E6DC02000369C26893429CBFE0
:10B0300080681B18013B981A70472DE9F843D0E946
:10B0400002940546A9EB04084068904520440F4649
:10B05000144404D901F029FEEC60BDE8F8834246AF
:10B06000A4EB090401F021FE6868224607EB080101
:10B07000F0E72DE9F843C5680646894617464FF0C4
:10B0800000083469B3687068A54228BFE418013C21
:10B09000621B5C1BBC4228BF3C46944228BF14463E
:10B0A00049462844224601F000FEB3682544AB42DD
:10B0B00008BF00253F1BA044A144F560E1D14046F4
:10B0C000BDE8F88310B5114C114AA2610223C4E90E
:10B0D0000433104BE361A2644FF400730E4A0F492E
:10B0E0002362E26400231022E01DA3626362E36234
:10B0F000A3656365E365226501F033FE08492046D8
:10B1000001F02FFE2023A37110BD00BF3C3B0020A7
:10B1100028DD0200C43B0020B43B002031DD0200EA
:10B1200035DD020070B5164B182400FB04451D44A4
:10B1300004FB00331646DC6A012C0ED0022C18D01A
:10B14000E4B92846FFF770FF864204D83246284605
:10B15000FFF773FF3446204670BD2846FFF764FFB3
:10B160008642344628BF044622462846FFF765FF3C
:10B17000F1E72846BDE87040FFF77BBF0024EAE70F
:10B180003C3B0020FFF79EBF6DDF704779DF7047C3
:10B190007DDF704764DF70472DE9F04F85B00025F3
:10B1A0000E9CBDF83CB0B4F800A001910746904653
:10B1B0001E46A9463A884A450DDC45B12388013B25
:10B1C000A3EB0A039BB2FF2B3AD806F80A30002003
:10B1D00005B0BDE8F08F7A6852F82900039000228C
:10B1E0000DF10B0103A8FFF7D5FF0028F0D19DF862
:10B1F0000B20424521D12288002D14BF00200220BF
:10B2000002EB0801014459451ADC3DB9013292B202
:10B21000019B2280B35422880132228022880DF1C2
:10B220000B01324403A8FFF7B5FF0028D0D12188D5
:10B230009DF80B200A442280012509F10109B9E794
:10B240000C20C5E72DE9F341089FBDF82480154681
:10B25000CDE90078022204461E46FFF79DFF50B953
:10B260003346102229462046CDE9087802B0BDE8D1
:10B27000F041FFF791BF02B0BDE8F0812DE9F04F3A
:10B2800000231788138090F82D3085B006460D46B0
:10B29000144653B3082F01D80C2027E102A8FFF76A
:10B2A00073FF002840F0228123880822EA54238873
:10B2B00001339BB21B222380EA542088013080B2E4
:10B2C000208006220DF10901284401F0EEFC2388BC
:10B2D0009DF8082006339BB212F0FE0218BF01222F
:10B2E0002380EA54238801332380B378FBB1238879
:10B2F0000433BB42D0D802A8FFF748FF002840F033
:10B30000F58023880322EA54238801339BB2192253
:10B310002380EA542388BDF8082001339BB2E91842
:10B320002380EA54120A4A70238802332380F27879
:10B330009AB12388D91CB942AED80221E954238896
:10B3400001339BB201212380E95423880B449BB233
:10B350002380EA5423880B4423807268AAB123888F
:10B36000D91CB94298D8022192F90020E9542388C7
:10B3700001339BB20A212380E954238801339BB215
:10B380002380EA542388013323803389002B40F043
:10B39000A180338A5BB1CDE900472B460722032108
:10B3A00006F11000FFF74EFF002840F09F80338B1E
:10B3B0005BB1CDE900472B461522142106F1180098
:10B3C000FFF740FF002840F09180326A002A40F0E9
:10B3D0009080D6F82480B8F1000F30D0B8F804304F
:10B3E0002188981C8A1C0244BA423FF655AFFE28B9
:10B3F0003FF652AF03336B54238801339BB2FF22D5
:10B400002380EA54238801339BB22380B8F80020BC
:10B41000EA54E918120A4A702088023080B220806B
:10B42000B8F804205AB1D8F8081000296BD0284485
:10B4300001F03BFC2388B8F804201344238096F8DD
:10B440002C30002B40F09880307800284ED0338884
:10B45000012B58D0228802F1020CBC453FF61CAFEC
:10B46000012805D17378023313449F42FFF414AFCF
:10B47000023FBF1ABFB202A905EB0C00ADF808707D
:10B48000FFF786FE90BB3178BDF80830022900F046
:10B49000B98072789A4202D39F4280F0B18001292C
:10B4A00040F0B280974293B2C0F0AE80ADF8083061
:10B4B0000821BDF80830FE2B3FF6EEAE228801339E
:10B4C000AB542288013292B22280A95422881344BC
:10B4D00023800BE0CDE900472B460622022106F12E
:10B4E0000800FFF7AFFE00283FF453AF05B0BDE8FA
:10B4F000F08FB4F800C00CF10603BB423FF6CCAEAF
:10B500001188052901D80720F0E76FF4486E01EB98
:10B510000E039BB24FF27D3E7345F4D95388052B41
:10B52000F1D96FF44860181880B27045EBD94FF626
:10B53000FF70814201D09942E5D8052305F80C300F
:10B54000238801339BB212212380E95423880133DD
:10B550009BB223801188E954E818090A41702388B6
:10B5600002339BB223805288EA54E918120A4A70C7
:10B570002388023323802CE7B36A002BC3D04FF01B
:10B5800000084FF00C0A4FF0160BB16A5FFA88F210
:10B590000AFB02F201EB0209B9F80430981CFE28FC
:10B5A0003FF67AAE208803332B54238801339BB2B5
:10B5B000238005F803B0238801339BB223808A5A85
:10B5C000EA54E918120A4A702088023080B22080BA
:10B5D000B9F804205AB1D9F80810002993D02844AA
:10B5E00001F063FB2388B9F804201344238096F804
:10B5F0002C2008F101085FFA88F39A42C5D823E7A6
:10B60000092156E79F42FBD2ADF8087050E730B5EC
:10B61000C8B1F2B10024651C8D4206DA1588A54236
:10B6200012D805196D789D420ED1A14211D9005D45
:10B6300048B1013880B230B10234A3B210FA84F4B8
:10B64000A14206DB138030BD055D01352C44A4B258
:10B65000E1E70020F7E713B513460022ADF8062016
:10B660000DF106020446FFF7D2FF10B1BDF8063017
:10B67000E01802B010BD72DF704773DF704738B555
:10B68000012204460D46B0F81414D0F81004FFF758
:10B69000E2FF00B1057004F13C0204F5826104F19F
:10B6A0005400BDE83840FFF7E6BF80F8301070471F
:10B6B000F8B504460F4600296DD000286BD091F8EC
:10B6C0007A301BB191F89830002B66D14FF0000C06
:10B6D00084F802C007F178060FCE251D0FC50FCEE6
:10B6E0000FC596E8070085E8070084F830C0D7F852
:10B6F000A4306363D7F8A830A3634FF6FF7504F551
:10B700008263C4F82034A4F824540722614604F26A
:10B71000264001F0F3FA23780BB984F8545094F8DA
:10B720002430002B14BFEE231F2304F15501C4F86D
:10B730001014A4F8143404F214423846FFF79EFDA6
:10B7400040BB94F82430002B14BFEE231F2304F2D7
:10B750003121C4F81814A4F81C3404F21C4207F177
:10B760003C00FFF78BFDA8B9A369A4F848304FF45B
:10B7700080730125A4F8503063692064014684F881
:10B780003C50636404F13C0204F15400FFF773FF82
:10B7900000B92570F8BD0E20FCE70720FAE7F8B5E0
:10B7A000077804460D46002F00F00A8100F2264675
:10B7B000817007220021304601F0A0FAE38813B11E
:10B7C000A378012B04D0E3794BB1A378022B06D1E7
:10B7D000636BABB1012284F82D240820984704F252
:10B7E000274304F22D4113F8012B12B99942FAD1E3
:10B7F00017466B1E032B57D8DFE803F0050B0F121B
:10B8000084F82D34EBE7A3791BB194F8243003B905
:10B810005FB9E3790BB1002F48D1237A002B47D1D0
:10B82000637A002B0CBF00250425636BA570002BE9
:10B8300040D0033D012D3DD86279002A3AD094F8DA
:10B840002E24002A36D184F83024012284F82F24B3
:10B850000720984704F13C0518220021284601F0F2
:10B860004DFAE26A0123511E994284F83C3001D915
:10B87000042A00D1D3B294F8242084F8513042B184
:10B88000A36A591E012902D9042B18BF012384F889
:10B890005230A178002384F8503004291BD8DFE807
:10B8A00001F0770D223559000025BEE70225BCE7DF
:10B8B0000325BAE7002384F82F34CBE7C4E91063EB
:10B8C000C4F820340223012284F83C30802384F819
:10B8D0003120A4F84830A378002B5CD1636B002B97
:10B8E0006AD1002067E00223002A84F8313014BFB7
:10B8F0000723032384F83C302369A4F8483000234D
:10B90000C4F82034E36826646364E4E7636963642D
:10B91000A369A4F8483012B1062384F83C30637957
:10B92000B3B194F82E349BB994F8303483B1022328
:10B9300084F8503004212046FFF7A1FE0028CAD128
:10B94000052384F8313004F58263C4F82034C2E75B
:10B950000323F6E7E3696364236AA4F8483012B16D
:10B96000062384F83C30637983B194F82E346BB9A4
:10B9700094F8303453B1022384F850300421204627
:10B98000FFF77DFE0028A6D10623DAE70423D8E7D7
:10B9900084F831309FE7D4F820142A4604F154008B
:10B9A000FFF769FE38B994F8301094F85400FFF7A7
:10B9B00064FE002892D0F8BD94F83100984790E7D3
:10B9C0000820F8E70388112B10B50C460AD0262B67
:10B9D0001FD0102B05D1C37B012B02D18388A1F886
:10B9E000243410BD0022838881F82E24B1F8242449
:10B9F0009A42F6D10B79002BF3D101212046FFF7B3
:10BA0000CEFE0028EDD0A36B002BEAD0BDE810409D
:10BA10001847037A013B012BE3D8897805230131CC
:10BA2000B1FBF3F303EB8303C91AC9B2E6E775DF91
:10BA3000704776DF70477ADF70477BDF7047000022
:10BA4000034B1A8882420CBF18460020704700BF83
:10BA5000E03D0020024B9B6903B11847704700BFCF
:10BA6000C43D002073B585B22846FFF7E9FF0446C0
:10BA700038B3174E027A337B9A420CD200F10A0196
:10BA80002846FFF7D4FFF0B111281AD002B0BDE864
:10BA90007040FFF7DFBF00230372337C43B13B21CB
:10BAA0002846FFF7C6FF30F0080301D0FFF7D2FFAA
:10BAB000736933B100228DF80420ADF8065001A857
:10BAC000984702B070BD237A01332372F9E700BFB3
:10BAD000C43D002037B50B46497A0F4A79B9D2E9FF
:10BAE00001141D7A0246002D18BF21465868FCF744
:10BAF00076FB78B103B0BDE83040FFF7ABBF002163
:10BB00001972536933B10122ADF806008DF8042093
:10BB100001A8984703B030BDC43D00204B8802887F
:10BB20009A4212D842889A420FD380888B8840F27A
:10BB3000F311884294BF021A421A9A4205D8084467
:10BB4000984234BF00200120704700207047000059
:10BB50000388122B70B5014659D004D8102B1ED083
:10BB6000112B44D070BD502BFCD12F4BC288DB89E8
:10BB70009A42F7D1038A022BF4D186883046FFF728
:10BB80005FFF05460028EDD001F1120000F07FF9BB
:10BB900038BB6868FCF73BFB0028E3D009E0C37BB7
:10BBA000012BDFD14FF6FF70FFF74AFF054620B9A2
:10BBB0000420BDE87040FFF74DBF1C4A8E88068008
:10BBC000002303721368C0F80A305368C0F80E30BF
:10BBD00010310A30FFF7A2FF134B6872DB89002B8C
:10BBE000C0D129463046BDE87040FFF773BF80885A
:10BBF000FFF726FF04460028B4D04068FCF707FB97
:10BC000008B1FFF727FF4FF6FF732380AAE7868866
:10BC10003046FFF715FF05460028A3D008310A304B
:10BC2000FFF77CFF6872DCE7C43D0020F43D002094
:10BC3000F8B5064648B305460FCD154F3C460FC430
:10BC400095E8070084E807003068124C3C60B0B10A
:10BC5000FFF7F1FEC0B93268136823605368636070
:10BC60000D480E4A4FF6FF7303800D4B40F8043F1A
:10BC70000021FCF7A9FA002818BF032004E02046A1
:10BC8000FFF7DBFE0028EBD0F8BD0E20FCE700BF7D
:10BC9000C43D0020F43D0020E03D002065BA0200D4
:10BCA000003E00200AB1FCF795BEFCF79CBE73B5C0
:10BCB0000191019C06466CB100252C46294601A83D
:10BCC000FCF79BFE18B106EB440301349D8001355F
:10BCD000142DF3D13046346002B070BD2DE9F04729
:10BCE00003888488103B8CB005460A2B21D8DFE8F6
:10BCF00003F0064020202020202020654700DFF8A8
:10BD0000E880D8F80830DB430093D8F80410684680
:10BD1000FCF79FFE009901A8FFF7C9FF0DF1080984
:10BD20000027019B9F4207D3132C12D90420FCF754
:10BD300029F90CB0BDE8F08739F802AB00260136CE
:10BD4000514608EB8600FCF74EFE1E2EF7D1013758
:10BD5000E7E71F482146FCF73DFE1E482146FCF759
:10BD600039FEEB7B022BE4D11B482146FCF732FE67
:10BD7000DFE7174821460CB0BDE8F047FCF733BEBB
:10BD8000027A16483F2A4FEA1215214694BF002234
:10BD90000122FFF787FF022D94BF002201221048E5
:10BDA0002146FFF77FFF012D0E4894BF002201229C
:10BDB00021460CB0BDE8F047FFF774BF037A002BB3
:10BDC000B7D1427A0548C2F3C0022146F1E700BF6D
:10BDD000283E0020243E00202C3E0020383E00203B
:10BDE000343E0020303E0020203E00201328014633
:10BDF00002D80248FCF701BE00207047243E002014
:10BE000010B50446FFF7F2FF002814BF20461420A7
:10BE100010BD70B50546164608460AB90E2070BD1D
:10BE200000231360002DF9D02B68002BF6D0EB888F
:10BE300013F003040ED1FFF7E3FFC0B214280BD0B8
:10BE40002B7983420AD9EA882B6800FB02303060E4
:10BE50002046E4E70720E2E70520E0E70420DEE7EC
:10BE6000AADF7047002301380B70042806D8DFE8EA
:10BE700000F00306080A0C0011230B707047212301
:10BE8000FBE73123F9E71223F7E72223F5E70088E0
:10BE900000F001007047F0B58B7891B0012B0C4693
:10BEA00038BF01238DF80E3005460B88ADF80C30F5
:10BEB000002116466846032200F020FF607C694698
:10BEC000FFF7D0FFA07C0DF10101FFF7CBFFE27B74
:10BED000237B217D43EAC203227C43EA02139DF8BF
:10BEE0000220002922F0190203F0190314BF0221D5
:10BEF0000121134361F342031C22002109A88DF89C
:10BF0000023000F0FBFE637B13F0300F15D002AF60
:10BF100003220021384600F0F1FEE07C0DF109011A
:10BF2000FFF7A0FF11238DF808309DF80A300E9717
:10BF3000012262F342038DF80A30637B8DF82430CE
:10BF40001422A37B8DF82530002104A800F0D6FE32
:10BF500003AB0493A388ADF81C30A368CDF814D0CC
:10BF60001BB1E288ADF818200893A369002B31D0EB
:10BF700001AF03220021384600F0C0FEA3691A88F1
:10BF8000ADF82C205A88ADF82E205A680D97187BF2
:10BF90000A923946FFF766FFA3690DF10501587B48
:10BFA000FFF760FFA3699A7A197A41EAC201DA7A47
:10BFB0009B7B41EA02119DF80620002B01F019013C
:10BFC00022F0190214BF02230123114363F342013B
:10BFD0008DF80610E36903B10C93334604AA09A94E
:10BFE0002846FFF73DFF11B0F0BD90DF7047A5DF99
:10BFF0007047B5DF704700007FB50023ADF808102B
:10C00000ADF80A106A4602A90646ADF80C30ADF844
:10C010000E300093ADF80430FFF7E7FF054600B39C
:10C02000114B124CE41AE408FDF7BAF8240444F06A
:10C03000010403460E4932462046FBF7D0FCBDF80A
:10C040000020BDF8023052EA030103D0094920461E
:10C05000FBF7C5FCBDF804201AB107492046FBF7E1
:10C06000B5FC284604B070BDB8D4020008D5020063
:10C070003CDD020086DD0200C5DD020080B14FF02C
:10C08000F7130360FB230371F723C3801723038196
:10C0900041F6FB32002301614381828118467047DB
:10C0A0000E20704730B1A1F11703E02B04D80180B6
:10C0B000002070470E2070470720704713B50346D5
:10C0C00080880C46B8B91A88242A00F09C8014D8BD
:10C0D000112A74D0232A00F0A780102A3ED0A37A18
:10C0E0004BB1E1880020FFF782FF002840F0A280DA
:10C0F0004FF48073638102B010BD3A2A68D0552A8C
:10C10000EDD1DB88C988A072172B38BF17238B426B
:10C1100028BF0B462381FFF76CFF60B1FDF740F8A5
:10C120004E4B4F4902464F481B1ADB081B0443F095
:10C130000100FBF74BFCE27A002AD0D12369002BE7
:10C14000CDD040F67721ADF802202289ADF800105D
:10C15000ADF80420694620469847C0E7DB7B0A79A2
:10C160000A73012B13D0022B14D0E18823898B4250
:10C1700005D20020FFF73BFF70B90123E372217B5A
:10C18000637B8B42ABD20020FFF736FFA7E70B881B
:10C19000E380EAE74B88FBE7112802D10123A37271
:10C1A000EDE7FCF7FDFF2D4B2F4902462D481B1AEA
:10C1B000DB081B0443F00100FBF708FCDFE7F72373
:10C1C000CB8017230B8141F6FB3348818B8186E7B7
:10C1D0005B89CA88934228BF1346172B0A6938BF68
:10C1E00017230B8162B1C97A51B140F67721ADF8BE
:10C1F0000010ADF80200ADF80430694620469047C3
:10C20000002363816BE71A7A0B694A73002B3FF4B2
:10C2100066AF4DF67A218DF80500ADF80010ADF847
:10C2200002008DF8042095E7197A237B994228BFF4
:10C230001946A9E711283FF45EAFFCF7B1FF074BA1
:10C240000949024607481B1ADB081B0443F001009A
:10C2500002B0BDE81040FBF7B9BB00BF08D5020033
:10C260004CDE0200B8D402001BDE0200B0DF7047D3
:10C2700066DF704710B5002104464088FFF7F8FFDD
:10C28000034608B9237210BD112801D10123F9E733
:10C290006368BDE81040184760B159B10378DE2BE0
:10C2A0000AD00B684360DE2303704FF6FF734380B0
:10C2B000002070470E2070470820704728B103788F
:10C2C000DE2B04D14180002070470E2070470820EB
:10C2D0007047F0B5054685B00C46002942D00028CD
:10C2E00040D00B78DE2B3DD182884B889A4204D116
:10C2F0000B7A13B10846FFF7BDFF2B88112B33D003
:10C30000512B0FD0012B2DD12B7A012B2AD1A988AB
:10C310006288914226D12046237205B0BDE8F040E4
:10C32000FFF7A8BFAE886388B3421BD1AF79022F55
:10C3300018D1AD7B2B1F022B14D800211022684688
:10C3400000F0DCFC052D18BF4FF4C0736946304681
:10C3500018BFADF804308DF80070FFF787FF08B103
:10C360006368984705B0F0BD6388AA889A4204BF05
:10C370004FF6FF736380F5E7A8DF7047ADDF7047C6
:10C38000AEDF704762DF704770B505468AB00C4675
:10C39000002962D0002860D00388502B37D0572B5B
:10C3A00072D0102B59D181886069002601AA0196AC
:10C3B000FFF72FFD082231460DEB020000F09EFC36
:10C3C00002232189A888CDF80CD002AA0293FFF796
:10C3D000D5FF002841D1A369002B3ED00398FFF779
:10C3E00056FD002839D0019B0BB101221A7018228A
:10C3F000002104A800F082FC02238DF81030AB88E5
:10C40000ADF81830019B05940793A36923E0818858
:10C41000606902AAFFF7FDFC1822002104A800F0C1
:10C420006DFCAB882189ADF81830EB88029A059431
:10C430009942079218D12E8A022E15D16AB105F1C0
:10C440001200FFF724FD029B48B101221A708DF8FB
:10C450001060A3690BB104A898470AB070BD1870AA
:10C4600003238DF81030F4E7A2899A42F5D1A3692D
:10C47000002BF2D000228DF8102005F11202089254
:10C480002A8AADF82420E6E78188606902AAFFF7CE
:10C49000C0FC01460028E0D1029B1B78002BDCD0B9
:10C4A000A369002BD9D0182204A800F027FC01238F
:10C4B0008DF81030AB88ADF818300594029BA3E7D7
:10C4C000F0B53A4B8FB002AD04460A4603F1100CAA
:10C4D0002F46186859682E4603C60833634535460B
:10C4E000F7D1002C5FD0002A5DD01368A3612146EC
:10C4F0003846FFF747FF002853D12246012512F89E
:10C50000023B8DF8063001A92846ADF80450FFF72C
:10C5100033FF002845D10146202206A800F0EEFB9B
:10C5200022460223ADF8183012F80C3B8DF81A3071
:10C53000BDF824301E4E6088079623F44F6323F025
:10C540000F0343F440632B4306A9ADF824308DF864
:10C5500029508DF82A50FFF79EFC10BB014620227F
:10C5600006A800F0CBFB22460323ADF8183012F8E2
:10C57000043B8DF81A30BDF824306088079623F408
:10C58000875323F01F0343F480532B43ADF824302B
:10C5900006A940F201138DF82950ADF82A30FFF7B3
:10C5A0007AFC0FB0F0BD0E20FBE700BF90DE02006A
:10C5B000F4000100F0B50F4687B016461C4605464C
:10C5C00018B3406901AA1946FFF723FCD8B94FF602
:10C5D000FF739C421BD0019BCBB11B78CBB133883E
:10C5E000F42B18D80146102202A800F087FBAB8874
:10C5F000ADF8083002A901232046CDE904678DF883
:10C600000A30FFF7BDFE07B0F0BD0E20FBE70520A6
:10C61000F9E70820F7E70720F5E710DF704700008B
:10C6200013B5044609496846FCF75FFD019808B94F
:10C6300002B010BDD0E900212046904718B16846ED
:10C64000FCF75DFDF2E71120F2E700BFACDE02006F
:10C6500013B5044607496846FCF747FD019B0BB933
:10C6600002B010BD2046D3E9002190476846FCF790
:10C6700046FDF3E7C4DE02000B4991F816335A0970
:10C68000EC231341DB0706D5084B9A683AB94FF4FF
:10C6900080030B60704742F20200FBF773BC1A681C
:10C6A00042F480021A60704700E100E05832002036
:10C6B000F7B5194F3C7864BB184E012520463570FC
:10C6C000FFF7AEFF112821D02046FFF7C1FF144B22
:10C6D0008DF80340186801900DF10300FBF77AFF15
:10C6E000104901A8FFF799FF0446B0FA80F040090D
:10C6F00038709DF80300FBF791FF3CB90A4B34708A
:10C700001C70FFF7B9FF2846FFF7A2FF204603B0D1
:10C71000F0BD0824FAE700BF9D3E00209C3E0020AB
:10C72000A8DE0200A17F02009E3E0020014B187887
:10C73000704700BF9D3E002007B508496846FCF7DA
:10C74000D4FC019B13B903B05DF804FBD3E90020CE
:10C7500090476846FCF7D3FCF3E700BFB8DE020061
:10C76000FFF7EABF60DF704769DF704761DF70473E
:10C7700030B5134DADF5017D4FF4FA740DF10201A2
:10C7800003A8ADF80240FFF7F1FF70B9294601A8F0
:10C79000FCF7ABFC029B002BF0D003A8D3E90021EF
:10C7A000904701A8FCF7ABFCF4E7052805D00DF590
:10C7B000017DBDE83040FBF7E5BB0DF5017D30BDE7
:10C7C0004CE10200024B1B780BB1FFF7D1BF704761
:10C7D0009F3E002030B5054685B00C46002900F08C
:10C7E000B5805B4B0B600C22002101A800F086FA9B
:10C7F00001238DF8063022688DF80450062301A924
:10C800002020ADF80830FFF7AFFF60B1FCF7C8FC9F
:10C81000504B5149024651481B1ADB081B0443F098
:10C820000100FBF7D3F80C22002101A800F066FA02
:10C8300001238DF805302268002301A94020ADF8BE
:10C840000630FFF791FF60B1FCF7AAFC414B444969
:10C85000024642481B1ADB081B0443F00100FBF7A9
:10C86000B5F80C22002101A800F048FAF72322684D
:10C870008DF8045001A92320ADF80630FFF774FFAE
:10C8800060B1FCF78DFC334B3649024633481B1A26
:10C89000DB081B0443F00100FBF798F80C22002191
:10C8A00001A800F02BFA012022688DF8040001A9EC
:10C8B000FFF75AFF60B1FCF773FC264B2A4902468A
:10C8C00026481B1ADB081B0443F00100FBF77EF827
:10C8D0000C22002101A800F011FA4FF4B063226885
:10C8E000019301A9A120FFF73FFF60B1FCF758FCBD
:10C8F000184B1E49024619481B1ADB081B0443F05B
:10C900000100FBF763F80C22002101A800F0F6F902
:10C910009DF8043022686FF3000301A9A0208DF870
:10C920000430FFF721FF034668B1FCF739FC094BDF
:10C930000F49024609481B1ADB081B0443F001009B
:10C94000FBF744F80023184605B030BD0E23FAE784
:10C95000E82A002018D50200D0DE0200B8D4020078
:10C9600016DF020062DF0200A9DF0200F5DF02002D
:10C9700046E0020073B505460668FFF7F3FE2B6834
:10C98000B34204461DD91A481A4B1B491B1ADB082F
:10C990001B0443F002000190FBF714F82B681749C1
:10C9A00001983246FBF71BF84FF080532A68D3F802
:10C9B0000C31134901989B0203F100539A1AFBF7BB
:10C9C00005F82CB90F4B01221A70204602B070BD39
:10C9D0002046FCF7E5FB074B0B49024604481B1AAF
:10C9E000DB081B0443F00100FAF7F0FFEDE700BF9E
:10C9F000B8D4020018D5020099E00200C8E0020095
:10CA0000F9E002009F3E002023E102004BDF704767
:10CA10001FB50E4C01A8FFF7F9FF70B9214602A817
:10CA2000FCF763FB039B002BF4D00198D3E90021B2
:10CA3000904702A8FCF763FBF4E7052804D004B094
:10CA4000BDE81040FBF79EBA04B010BD64E10200DF
:10CA500053EA020C61D02DE9F04BB3FA83F51E00C6
:10CA600007BFB2FA82F502FA05F403FA05F4164696
:10CA7000C5F120051EBF22FA05F73C43203556EAD2
:10CA8000044C4FEA144418BF0134A3464FF0000988
:10CA9000C846904271EB030C39D3094207BFB0FA84
:10CAA00080F700FA07F6B1FA81F701FA07F6C7F145
:10CAB00020071EBF20FA07FC46EA0C062037B6FB0B
:10CAC000FBFC7F1B103F07F01F04C4F120060CFA8B
:10CAD00004F42CFA06F644BF34460026202FA4BFE7
