:020000022000DC
:1070000000000420757302005D7302005F730200CC
:1070100061730200637302006573020000000000E8
:107020000000000000000000000000006773020084
:1070300069730200000000006B7302006D730200B0
:10704000F99402006F730200259702006F7302002B
:107050006F7302006F730200A99502006F73020044
:107060006F7302006F7302006F7302006F73020090
:107070006F7302006F7302006F7302006F73020080
:107080006F730200CD8502006F7302006F73020000
:107090006F7302006F730200DDC302006F730200A2
:1070A0006F7302006F7302006F7302006F73020050
:1070B0006F7302006F730200000000000000000008
:1070C0006F7302006F7302006F7302006F73020030
:1070D0006F7302006F7302006F7302006F73020020
:1070E0006F7302006F7302006F73020000000000F4
:1070F000000000006F730200000000006F730200C8
:10710000000000000000000000000000000000007F
:10711000000000000000000000000000000000006F
:10712000000000000000000000000000000000005F
:10713000000000000000000000000000000000004F
:10714000000000000000000000000000000000003F
:10715000000000000000000000000000000000002F
:10716000000000000000000000000000000000001F
:10717000000000000000000000000000000000000F
:1071800000000000000000000000000000000000FF
:1071900000000000000000000000000000000000EF
:1071A00000000000000000000000000000000000DF
:1071B00000000000000000000000000000000000CF
:1071C00000000000000000000000000000000000BF
:1071D00000000000000000000000000000000000AF
:1071E000000000000000000000000000000000009F
:1071F000000000000000000000000000000000008F
:10720000354936480A1A02D0072291438D4634493F
:1072100034480A1A06D00722914381F309880222D2
:1072200082F3148830483149314A00F044F831483B
:107230003149324A00F03FF831483249324A00F0D1
:107240003AF832483249334A00F035F83248334987
:10725000334A00F030F833483349344A00F02BF811
:1072600033483449344A00F026F83448344900227F
:1072700000F02CF833483449002200F027F8334856
:107280003349091A082902DB002202604160314AB1
:1072900090471F481F49884205D00268043003B454
:1072A000904703BCF7E700208646EC46002000210B
:1072B000294A9047FEE7884207D0521A05D0037842
:1072C00001300B700131013AF9D17047884202D088
:1072D00002700130FAE770470000042000E003204C
:1072E000000004200000042074E00200E82A0020CE
:1072F000642B0020D0730200D0730200C0D00200C3
:1073000074E00200E82A0020E82A0020C4D102002C
:10731000C4D10200C4D10200C4D10200C4D1020011
:10732000C4D10200C4D10200C4D1020073E0020043
:10733000F0E00200642B0020642B0020642B00206E
:10734000843E0020843E0020843E0020843E0020B5
:10735000845E00209D730200E1A90200FEE7FEE7C3
:10736000FEE7FEE7FEE7FEE7FEE7FEE7FEE7FEE7F5
:1073700000F002B8FFF7FCBF0F484FF00701884349
:1073800085460E4880470E48016841F4700101604F
:10739000BFF34F8FBFF36F8FFFF732BF09480A4922
:1073A0000A4A884207D0521A05D0037801300B7080
:1073B0000131013AF9D1704700000420C190020068
:1073C00088ED00E0C4D10200E82A0020E82A00206D
:1073D0007047000007B5044B0093044A402300F0B7
:1073E00032F803B05DF804FBF1730200652B002056
:1073F0002DE9F84388461446B2B10F4B0F4E0325D2
:10740000002743F00109224608EB0701002003F0A2
:10741000C7FC0744241A48B933782BB14FF47A409B
:10742000C847013D02D13570BDE8F88301233370B0
:10743000002CE8D1F8E700BFD0D10200642B002077
:10744000704703F0DDBCF0B595B01D461646084602
:107450000C4601F069FC1A9B0D93CDE908650025E7
:107460002B46082205A920460A958DF82C500C952C
:1074700001F076FC079B0293069B03939DF8143062
:107480008DF8115003F00302012A1DD1BDF814201C
:10749000059DC3F3C203C2F383168DF81030B2000A
:1074A00008230EA9204601F05BFCC5F3952508AB27
:1074B0000093324602AB0EA9284600F031FB20466D
:1074C00001F036FC15B0F0BD022AF8D1BDF8165017
:1074D000C3F3C203C5F389158DF810300827082DB2
:1074E0002E4628BF08263B4632460EA9204601F00C
:1074F00037FCAD1B08AB02AA31460EA8374400F09A
:1075000073FB002DEBD1DAE708B5FFF79AFF0448CB
:10751000042100F06FFA034B01225A7108BD00BF2D
:10752000B4D10200E82A0020037813F0040216D038
:1075300003F00303012B03D0022B09D00120704775
:107540000A6800880232C0F3831002440A60F5E73B
:107550000B684288023303EB92130B60EEE7104690
:10756000704700002DE9F04FDFF81CA187B00F46EF
:1075700000230446861C0DF1070015468DF80730E0
:1075800000F0B6FEDAF804203A60DAF8083003F5C5
:1075900080739B1A0AF21C470AF583690AF21448A1
:1075A000B3421AD30020002D69D004F00F039B01D1
:1075B00043F0050363F30F00DAF80430DAB2033264
:1075C00033444AF822009DF80700CAF8043000F05E
:1075D000B3FE012007B0BDE8F08F0121384601F06D
:1075E000D2F8484601F0E7F8404601F0E4F8DAF84E
:1075F00008000290C0B203300AEB800002A9FFF736
:1076000093FF029B30BBDAB20AEB8202D16803918E
:107610009A1C0133DBB20AEB83030292D3F80CB05D
:1076200001F00303012B22D0022B15D083464046E4
:1076300001F0C4F810B1029BCAF808305946384628
:1076400001F0A1F8DAF80830DAF8042003F58073C5
:107650009B1AA5E7D8B2CEE7BDF80E30C3F3891365
:1076600003334FEA1B4B02EB93030293DFE7BDF8B2
:107670000C30C3F383134FEA1B4B1344F5E7A40507
:1076800044F0060098E700BF782C0020064B07481E
:1076900010B500221A7001F000FB044610B904482E
:1076A00001F0A8FB204610BD782C002020D102005C
:1076B0000CD2020030B50A4C71B10A4A0A49121BB9
:1076C000D20800239A4201D1002030BD31F8235066
:1076D000854202D00133F5E7034654F83300F4E75E
:1076E00034D10200B4D10200E82A0020094B01394C
:1076F00003EBC000032909D8DFE801F00A02040601
:107700000420704700797047407970470020704727
:107710000220704734D10200044BD3E901305840B5
:10772000C0B2B0FA80F04009704700BF782C00204A
:107730002DE9F04186B0FFF7EFFF0546002840F045
:10774000ED80774CC4F81804BFF34F8FA368029301
:10775000DBB2033304EB830002A9FFF7E5FE029BD3
:1077600018B1D4F81824002A5AD0DAB2991C01337F
:1077700004EB8202DBB204EB8303D268DB68049380
:1077800002F00303022B0392029154D1BDF80E3094
:107790006448C3F38917502F3E4628BF502606F190
:1077A000080166F38F13C1F30901ADF80E3001F043
:1077B0008CFA0546002800F09C8001F0B5FA002301
:1077C000082203A9284601F0C1FA0299CB43DBB293
:1077D0000133C9B20331B6EB830F4FEA830204EBE6
:1077E000810125D95FFA82F80823A6EB080628460E
:1077F00001F0ACFAF6B208F108034B4903F0FC03C0
:107800003246284601F0A2FA029B033703EB9707A2
:107810000297D4F81834002B43D1D4F8106453E005
:1078200062689A4294D8A260284606B0BDE8F0810A
:1078300008233246E5E7012B5BD1BDF80C3039480F
:10784000C3F38311062928BF062161F3891302318E
:1078500001F00F018900ADF80C3001F036FA054651
:10786000002846D001F060FA0023082203A9284628
:1078700001F06CFA0026BDF80C20C2F38312B300AD
:10788000964203F10803C4D202994A1CC9B20331DB
:10789000029204EB81010422284601F057FA0136D6
:1078A000E9E7284601F044FAFFF736FF80F00100CF
:1078B000C5B2B9E7F3685B7923B1336829461B6821
:1078C00030469847F3681E68002EF3D1284601F031
:1078D0002FFA0DF107008DF8076000F009FDD4F8CC
:1078E00018340BB9029BA3609DF8070000F024FD3B
:1078F000DAE7D4F8104454B90C4B0D480D49C01ABE
:10790000C008000440F0020000F05CF8CCE72368F7
:1079100020469B689847E3681C68ECE7002583E7EE
:10792000782C002020D10200842C002034D10200C9
:107930005CD10200F4D102002DE9F34704460E4663
:10794000924601A9012218469946FFF70BFE1B4FEC
:1079500010B3019D4FF00008AA1CC84508EB0201B6
:1079600023D11748002100F0DFFE80F3100000044F
:1079700040EA1440E4006B1C04F03804DBB2EDB2C2
:1079800044F0010407EB8303033544EA881444EA16
:107990008624D86047F825403B781BB1FFF7C8FE26
:1079A0000028FBD102B0BDE8F087C9B207EB810126
:1079B0005AF82830CB6008F10108CEE7782C002077
:1079C0009430002000231A46FFF7B6BF07B5012305
:1079D000019201AAFFF7B0FF03B05DF804FB07B501
:1079E000CDE9002302236A46FFF7A6FF03B05DF846
:1079F00004FB000030B50F4CD4F8102403460020DF
:107A0000114631B9D96808714AB9C4F810340A600E
:107A100030BDC9680D79854206D00968F1E7D268A2
:107A200014680C601360F3E701300A28E8D14FF0C6
:107A3000FF30EDE7782C002038B5084B0125D3F84E
:107A400010441D7004B938BDE3685D712368204699
:107A50005B689847E3681C68F4E700BF782C002057
:107A600030B5C38885B004460D4633B1144A009240
:107A70001449154A284600F004FF217A05291DD033
:107A8000637A4BB1A088FFF731FE104B104953F8D1
:107A90002020284600F0F5FE227A0E4BA08853F8ED
:107AA000222003920021FFF705FE039A0A490346AC
:107AB000284605B0BDE8304000F0E3BE05B030BD5B
:107AC00038D2020020D2020018D20200A4D2020052
:107AD0003DD20200C8D2020040D2020007B50346E0
:107AE0000846197A052911D05B7A2BB1094A0A494F
:107AF000019000F0C6FE01980849019000F0C1FE17
:107B0000019803B05DF804EB00F0B0BE002AF8D095
:107B1000F2E700BF38D202003DD2020079D902005C
:107B20002DE9F04385B01F460C9D002395F80C907D
:107B30002B7306460C46904629463846FFF790FFC1
:107B4000B8F1060F09D8DFE808F00412181F28332F
:107B500040003146284600F094FE0022294638466F
:107B6000FFF7BCFF85F80C9005B0BDE8F0832268F4
:107B70003146284600F085FEEFE7D4E90023314680
:107B8000284600F07EFEE8E7A36800933146D4E97A
:107B90000023284600F075FEDFE7E3680193A36841
:107BA00000933146D4E90023284600F06AFED4E76A
:107BB00023690293E3680193A36800933146D4E9F3
:107BC0000023284600F05DFEC7E76369039323693D
:107BD0000293E3680193A36800933146D4E900233C
:107BE000284600F04EFEB8E708292DE9F74F8046F9
:107BF0000E4617461C463CD8002593F80C901D7382
:107C000019461046FFF72CFFDFF888A0DFF888B090
:107C1000AE4231D918F805205946204600F031FE11
:107C20000135082DF4D11949194DDFF870A020460F
:107C300000F027FE4FF0000B5E4522D918F80B200C
:107C40007E2A05D81046019204F036FE019A00B94A
:107C50002E225146204600F014FE0BF1010BBBF121
:107C6000080FE9D1012221463846FFF737FF84F893
:107C70000C9003B0BDE8F08F5146204600F001FEA5
:107C8000CEE72946204600F0FCFDE6E754D202008C
:107C900052D2020050D202004AD2020056D2020052
:107CA0001FB50021039001AA44F20100CDE90111A2
:107CB00000F004F805B05DF804FB000038B572B6BA
:107CC000FFF7BAFEFFF734FD0028FBD1104B114C33
:107CD000114D1249E41AE408240444F00100FFF7AE
:107CE00071FED5F8F030DB0700D500BE0C4944F03A
:107CF0000200FFF767FEBFF34F8FEA68094B02F4FB
:107D0000E0621343EB60BFF34F8F00BFFDE700BF9E
:107D100034D102005CD1020000ED00E0E7D20200A5
:107D2000F3D202000400FA0549B152B1531E1A40C1
:107D300007D1826001608380C260104670470E20C8
:107D400070470920704710B58468C2688388121B89
:107D5000934208D3C26813400268D154C368013308
:107D6000C360002010BD0420FCE78268C3689A420B
:107D70000AD08268838813400268D35C0B708368E2
:107D800001338360002070470520704710B5D0E9AB
:107D90000243D1E90202A04272EB03032CBF01208F
:107DA000002010BD08B50A4800F0F9FB094AD2E9E5
:107DB0000031C018084BD3E9002341F10001904283
:107DC00071EB030303D210F1807041F1000108BD93
:107DD000F02A002038310020B031002037B50546A8
:107DE0000C460A4801A900F00EFC60B10570446021
:107DF00001A9064800F031FC18B1054800F0D4FB99
:107E0000002003B030BD0420FBE700BF9C31002000
:107E1000F02A002038B5184B1B78044613B900250A
:107E2000284638BD0028FAD0037F03F0FF05002B59
:107E3000F5D0FFF7B7FFD4E90223904271EB0303BB
:107E400014D3236903B92377D4E90530984721690E
:107E50000029E4D0237F03F0FF05002BDFD0D4E915
:107E600002325B1842F10002C4E9023203482146A3
:107E700000F0DFFFD4E700BF4031002010D3020044
:107E800013B5114B11491868019008231048582266
:107E900000F0A6FB044698B90E4A0F4801A900F06D
:107EA0006FFA044660B90C48012100F05BFB012326
:107EB0000A4A0948194600F0BDFA094B01221A7016
:107EC000204602B010BD00BF0AD30200443100209A
:107ED0009C310020457F0200F02A0020FFFF7F0038
:107EE000403100203AB103685A614A1E5142514163
:107EF0001961002070470720704738B5037F04469A
:107F00000D4683B98261FFF74DFF2369281841F1BF
:107F10000001C4E9020103B1256121460020BDE84A
:107F20003840FFF75BBF002038BD002301460377D0
:107F30000120FFF753BF0000014800F030BB00BF35
:107F4000F02A00202DE9F347064600F013FB40B16C
:107F5000584AD2E9003113F1807341F10001C2E9BE
:107F600000310021304600F014FB38B1524C236838
:107F700023B12068FFF74EFF002323600121304624
:107F800000F007FB20B1FFF70DFF4C4BC3E90001E8
:107F90004B48494D4B4C4C4F01A900F06EFB00285B
:107FA00042D1DFF82081444CDFF82491404600F0B4
:107FB00056FF2368002872D07BB12368D0E90252B3
:107FC000D3E902138D4272EB03032AD223681B7F8D
:107FD0001BB12168404600F02CFF404600F039FFFD
:107FE000D0E9027A0546FFF7DDFE381A6AEB010A8E
:107FF00001287AF1000345DBB0F5350F40D3FFF7D8
:108000009BFF324A02444FF496030021484600F099
:1080100031FA00283ED1236813B9304600F002FA45
:10802000256002B0BDE8F0870378012B1DD0022B3C
:1080300009D14FF00008204600F00BFF002836D091
:1080400080F81C80F7E73BB941680B7F23B9012317
:108050000B77204600F0EDFE01A9194800F038FB2F
:1080600001A9174800F009FB99E741682B6899427C
:1080700002D100232B60EFE7204600F0F3FEEBE790
:10808000AA68C0E70021484600F079FA2846FFF7C1
:10809000C1FE01E00D28F9D00023236086E7002B04
:1080A000BFD1304602B0BDE8F04700F0BFB90123B0
:1080B0003B70D1E738310020B8310020B0310020CA
:1080C0009C31002010D3020040310020FFFFB4009B
:1080D000F02A00200648074A03780749D35C0122AA
:1080E00013B1043001F0B4BF0C3001F05DBD00BF2E
:1080F000F82A002034320020E43100200648074AE4
:1081000003780749D35C012213B1043001F052BF58
:108110000C3001F0F9BC00BFF82A002034320020F6
:10812000E531002037B50578012D0DD0022D30D076
:1081300075B91F491F48FFF718FE002834D103B056
:10814000BDE83040FFF7DABF037A1BB9FFF7C2FF83
:1081500003B030BD4368184C19782046FFF7F3FD93
:1081600080B18DF800500190144B68461B68984709
:10817000A168E368A2885B1A9A42E7D2104B0122F9
:108180001A70E5E7A268E3689A42F1D08DF8000022
:10819000EAE7C3688DF800500193FFF79BFF074B98
:1081A00068461B689847D3E703238DF80030F6E74D
:1081B000E5310020D4310020C0310020BC31002046
:1081C000D0310020F0B51F46234B89B004461A6019
:1081D0000D4600293DD08A8820480968FFF7A4FD94
:1081E000002834D1AA89A9681D48FFF79DFD002801
:1081F0002DD11C4E0FCE6D460FC596E80F0085E8B9
:108200000F0063690693237C174A18488DF81C7089
:10821000003B18BF01238DF81430637C002B14BF82
:108220000E2300238DF81530E3680293A3680393AF
:108230002368019369466368009301F0D9F830B967
:108240000B4B18702368013301D0FFF743FF09B0CF
:10825000F0BD0720FBE700BFBC310020C03100208B
:10826000D43100201CD3020025810200F82A00200E
:10827000D031002070B5084D014608482E78FFF730
:1082800074FD044636B100232B70FFF723FF08B1BD
:10829000FFF706FD204670BDD0310020C031002020
:1082A00010B501460E48FFF74EFD0446A8B90D482B
:1082B0000D4A0378D35C63B1043001F06FFE60B9FE
:1082C0000A490748FFF751FD38B9BDE81040FFF7EC
:1082D00015BF0C3001F00CFCF1E7204610BD00BFCB
:1082E000D4310020F82A002034320020E53100206B
:1082F00070B5EFF3108672B60C4A946801239CB9EE
:1083000093600B4B0B4DD3F8801029401160C3F8DC
:108310008050D3F8841051604FF0FF32C3F88420AE
:10832000047006B962B670BD0370FAE7E831002048
:1083300000E100E0FC06FFBD084B9A6810B55AB199
:1083400050B9EFF3108172B6054A1C6814605C687E
:108350005460986001B962B610BD00BFE8310020DA
:1083600000E100E0435882B03BB100234350435842
:108370000193019B012002B070471846FBE7000003
:10838000F8B5204B4479204E43F824201F4A204B57
:1083900006EBC4049B1A2279DB081B0432B143F0BC
:1083A00002001C49FFF70EFB0820F8BD02680C888C
:1083B000C2F8084590F904508A7804795201002DDA
:1083C000D2B219DB14494F1987F8002301226D0935
:1083D00004F01F0402FA04F441F82540427906EB48
:1083E000C201012446F832000C7143F003000B492E
:1083F000FFF7E8FA0020D8E7094904F00F040A550E
:10840000ECE700BFFC310020F431002034D1020041
:108410006CD102003CD3020000E100E05ED3020018
:1084200014ED00E0036801221A607047036801221E
:108430005A60704773B501F15005AD000068ADB2E8
:108440004FF480348C400026C0F80843C0F84843FD
:10845000465101F5A8714559019522F07F42019DD1
:1084600040F82120C0F844430BB1C0F8044302B0E7
:1084700070BD00002DE9F74F0D4622F07F440268E1
:108480004FF4803705F150068F408046B60002EB6E
:108490008500C2F84873B6B2C2F80873D2F8041562
:1084A00099464FF0000BD0F84035C0F8401542F81F
:1084B00006B05B1A9259009223F07F43012B009A79
:1084C0004FEA850A0CD1264B4FF4806043F001033C
:1084D0009847D8F8003043F806B09B590193019BA8
:1084E000D8F80010D1F80465C1F84473A31B23F039
:1084F0007F43012B1CD11A4B05F5A875013443F0BD
:10850000010341F825404FF480609847D8F80030C7
:10851000D3F804359E4209D1D8F800300020C3F8C2
:108520004473C3F8047303B0BDE8F08F0D20FAE77D
:108530008A44C9F1FF13CAF84045D1F80405221A4C
:10854000013A22F07F4203F57F439342EED3002AA3
:10855000E2D10134CAF84045D1F804359842DAE74F
:1085600070D3020003680222C3F8442309B1C3F8A0
:108570000423704700684FF48271FFF7F3BE4FF495
:10858000803303FA01F10368C3F84813C3F80813F2
:10859000704750318900006889B2FFF7E3BE036875
:1085A000D3F804057047000090F90430002B09DB74
:1085B0005A09012103F01F0301FA03F34032024973
:1085C00041F82230704700BF00E100E0024B034A4F
:1085D0001B681068184700BFFC310020F4310020F0
:1085E00010B561B1B2FBF3F403FB1424A4B244B997
:1085F000C0E9001484608281C381204610BD0E2032
:10860000FCE70920FAE737B550E8013F9DB2C4897D
:1086100025448489A54228BF2D1B0489A54202BF99
:10862000BFF32F8F002207E0C5EA030540E801549D
:10863000002CE9D14FF001028DF803200193019A3B
:108640000A609DF8031001F0FF0321B1006810FAE1
:1086500082F003B030BD1846FBE70A884B889A4287
:1086600009D150E8012FC2EA024240E80123002B61
:10867000F7D1012070470020704737B550E8023F1E
:108680001FFAA3F5C488A54202BFBFF32F8F0022B3
:108690000DE0C48925448489A54228BF2D1BC3EA67
:1086A000054540E80254002CE8D14FF001028DF856
:1086B00003200193019A0A609DF8031001F0FF0363
:1086C00021B1006800EB124003B030BD1846FBE753
:1086D0000A884B889A4209D150E8022FC2EA224206
:1086E00040E80223002BF7D101207047002070479B
:1086F00001F01F024B090121914000EB830000F0C3
:108700001EB801F01F0301229A404B0900EB8300C1
:10871000D14300F02CB84B0901F01F0150F82300A1
:10872000C84000F00100704710B5034653E8000F41
:108730000A4643E8002494F0000FF7D110BD10B5AD
:10874000034653E8002F42EA010043E8000494F096
:10875000000FF6D110BD10B5034653E8000F00EA34
:10876000010243E8002494F0000FF6D110BD10B5CB
:10877000034653E8002F02EA010043E8000494F0A6
:10878000000FF6D110BD10B5034653E8002F02EBE1
:10879000010043E8000494F0000FF6D110BD10B5BD
:1087A000034653E8002FA2EB010043E8000494F0D5
:1087B000000FF6D110BD0121FFF7C1BF0021FFF767
:1087C000CABF10B590B1D0E9012301689B1ADBB292
:1087D0000A60013BDBB2FF2B026802D1002010715E
:1087E00010BD11684C1C14600B70F2E70E20F7E707
:1087F00037B5054600240DF107008DF80740FFF757
:1088000077FD2A686B68116899420ED9481E10607E
:1088100011F8013CEC68298A01FB0344AB6811792B
:108820001B1ADBB2994238BF13719DF80700FFF79E
:1088300083FD204603B030BD37B5054600230DF15A
:1088400007000C468DF80730FFF752FD2A681368C1
:10885000591C1160E968641A298AB4FBF1F41C7090
:108860009DF80700FFF768FD03B030BD826810B5C2
:1088700004462AB143690168006998470023A36050
:1088800010BD0EB403B5039921B104AB01AA019345
:1088900000F076F802B05DF804EB03B070470A29E7
:1088A00038B504460D4602D10D21FFF7F8FFA36845
:1088B0002268591CA160D554D4E901329A4204D3EC
:1088C0002046BDE83840FFF7D1BF38BD2DE9F84F4D
:1088D0009846DDE90A43154682460F460A464FF0A0
:1088E0000109AA420FD2C14538BFC14613F0010B9E
:1088F00001D16CB900240126B8F1010F1BD908F190
:10890000FF386E43F8E709F10109B2FBF5F2E8E739
:108910009B070ED5B8F1000F0CBF30262026A145CD
:10892000E9D2013C31465046FFF7B9FF002CF6D1A1
:10893000E0E72026F3E7B7FBF6F39D42E1D9DFF845
:108940003C80B7FBF6F3504618F8031006FB13778C
:10895000FFF7A5FF3346AB42B6FBF5F6F1D2BBF10C
:10896000000F02D00CB1A14501D3BDE8F88F202142
:108970005046013CFFF793FFF4E700BF76D30200B7
:108980002DE9F74F054617468846002900F03E813D
:1089900018F8011B49B92B7B002B00F037812846C2
:1089A00003B0BDE8F04FFFF761BF252940F0B78065
:1089B000002698F800302D2B424608F1010823D0FC
:1089C000302B24D02B2B25D000242A2B02F101019F
:1089D00023D13B681A1D1B683A601C440A46137871
:1089E0002E2B26D101324FF0000A104610F8011B41
:1089F000A1F1300CBCF1090F1DD80A2303FB0A13A7
:108A0000A3F1300A0246F0E746F00106D1E746F04E
:108A10000206CEE746F00406CBE711F8013CA3F1CD
:108A200030000928DBD80A2202FB0434303C0A4615
:108A3000CBE74FF0000A12F8011B01F0FB00682899
:108A40009046F8D0782909D86F290CD8632962D0CC
:108A500022D8252963D0582900F0888098F8003062
:108A6000002B95D197E770390829F7D801A353F85F
:108A700021F000BFE78B02005D8A02005D8A0200E0
:108A80007D8B02005D8A02005B8B02005D8A020022
:108A90005D8A02006D8B0200642901D06929DDD155
:108AA0003A68D2F80090111D89EAE9723960A2EBA8
:108AB000E9724FF0010B092A35DCD34538BFD346A4
:108AC0002CB1B9F1000F01DB720700D5013CB307EF
:108AD00002D5BAF1000F03D0F00701D44CBB00243B
:108AE000B9F1000F2DDAC9F100092D212846FFF751
:108AF000D6FE06F00302022A04D1BAF1000F01D11A
:108B00001CBB0024CDE9004653460A2249462846AC
:108B1000FFF7DCFEA2E73B681A1D19783A60284689
:108B2000FFF7BDFE9AE70A230BF1010BB2FBF3F24C
:108B3000C1E7A345D4D220212846013CFFF7AFFE70
:108B4000CCE77107D5D52B21D0E7A345DAD2302168
:108B50002846013CFFF7A3FED2E73968CDE900467D
:108B60000A1D3A6053460A220968D0E739680A1D8F
:108B70003A60CDE9004653461022F5E73B681A1DDE
:108B80003A6016F00106D3F8009024D1B9F1000F35
:108B900003D0484603F045FF0646B4421DD809F10C
:108BA000FF3919F8011F00293FF458AF2846FFF795
:108BB00076FEF6E728460136FFF771FE19F8061033
:108BC0000029F7D1A642BFF449AF20212846013C35
:108BD000FFF765FEF6E70026F0E720212846013C76
:108BE000FFF75DFED9E73B681A1D3A603021284641
:108BF0001C68FFF754FE78212846FFF750FE00223C
:108C00000823CDE900322146102280E703B0BDE8F9
:108C1000F08F00BF2DE9F84FB0F806A04579D2F8E3
:108C200000B09DF828900AFB05F5043D88460BEB43
:108C30000301A94203F1040488BFA5EB030BB4FBB5
:108C4000FAF607460AFB1644C2F800B04EB9AAEB82
:108C500004055D4528BF5D46BBF1000F04D1BDE8AA
:108C6000F88F3F68013EF1E7043408EB06003C440E
:108C70002A46B9F1000F0DD02146ABEB050B03F0EE
:108C800052FEDA452E443F6855464FF0000428BF97
:108C90005D46E1E701462046EFE7FFF792BDF8B5F4
:108CA00046790146721E0546002393422D6803D380
:108CB0000024A64202D8F8BD0133F6E70F68284623
:108CC000FFF7BAFD01343946F3E72DE9F843068A88
:108CD000CD1C0746FFF78CFD043E35440446B5FB2A
:108CE000F6F5F0B14FF48073EDB28380C680013D9C
:108CF000076081464FF00008A84512D23846FFF7BA
:108D000077FD064648B163790133637108F10108C4
:108D1000C9F8000007608146EEE72046FFF7BFFF75
:108D200034462046BDE8F88301210430FFF72BBD0F
:108D300010B5012104460430FFF731FDC0B220B95F
:108D40002046BDE81040FFF7AABF10BD1FB5039233
:108D50000022009203AAFFF75DFF05B05DF804FB57
:108D60001FB503920122009203AAFFF753FF05B03B
:108D70005DF804FB41DF7047064B10B500241C7002
:108D8000054B1C60BFF35F8F0449054800F03BF8BA
:108D9000204610BD083200200C32002090D3020083
:108DA0000032002007B500230DF107008DF80730D1
:108DB000FFF79EFAF1EE103A23F09F03E1EE103A2E
:108DC000BFF35F8F0A4B4022C3F884219DF8070050
:108DD000FFF7B2FA03F0E8FA20B103B05DF804EB54
:108DE000FFF7C8BF20BF40BF20BF03B05DF804FB42
:108DF00000E100E0836800225A60C3E904229A601F
:108E0000DA601A6070470B684A684360934208BF93
:108E10000023016008BF43607047436843B10268A4
:108E2000916852680B449342436004BF002343603F
:108E3000704770B5446806460D46206818B1B3689F
:108E40002946984718B923682B60256070BD2468AF
:108E5000F3E74368186808B102681A60704743680E
:108E6000186870474368186800B97047884203D192
:108E700002681A600120704703460068F4E70000AA
:108E800010B50D49A1F59472914201D800200FE070
:108E90008C1AE30F03EBE4035B1002EBC30452F8FC
:108EA0003330834205D802D204F10802ECE760684F
:108EB00010BD2146E8E700BF9CD8020008B5FFF7C7
:108EC000DFFF024B002808BF184608BD5FD702002D
:108ED00010B50446C0B2FFF7E3F9204610BD00000C
:108EE00038B5074C051E04F1080318BF1C4623685B
:108EF0002BB11A6822605B6828469847F7E738BDAF
:108F00001832002020B9054B01225A70FFF7E8BF44
:108F1000012802D1014A9070F8E770471032002012
:108F200020B9034B01225A70FFF7DABF704700BF28
:108F30001032002038B50E4C2378B3B90D48636069
:108F4000A3602361E36000F09BFA054603F02CFA6E
:108F500008B900F0A1FA01232370074BD3F80034BD
:108F60000BB10123A370284638BD8525F5E700BF66
:108F700010320020058F02000000014037B5184C68
:108F8000A378054603F0FF029BB110B143680120AE
:108F9000984700230DF107008DF80730FFF7A8F977
:108FA000E3689DF807000133E360FFF7C5F903B0FC
:108FB00030BD0DF107008DF80720FFF799F925B1B5
:108FC000226913463BB92A602561E368002BE7D18B
:108FD00000F074FAE4E79D42F7D01B68F2E700BFA7
:108FE0001032002037B50D4C00230DF107008DF82D
:108FF0000730FFF77DF9E368013BE360E36833B9CD
:10900000074BD3F8005415B900F065FAA5709DF828
:109010000700FFF791F903B030BD00BF1032002008
:1090200000000140012813B50CD0032820D038B926
:10903000134B0122C3F88020BFF34F8FBFF36F8F14
:1090400002B010BD0F4C00230DF107008DF8073062
:10905000FFF74EF923780BB9FFF76CFFE3689DF833
:1090600007000133E3600123A370FFF765F9E7E729
:1090700000F012FA02B0BDE81040FFF7B3BF00BF26
:1090800000E100E0103200204FF08053D3F83001AF
:10909000A0F1080358425841704700004FF0805338
:1090A000D3F83021082A06D1D3F83431032B02D863
:1090B000024AD05C70470020704700BFA2D802006F
:1090C00008B5FFF7E1FF40B14FF080430022C3F83D
:1090D0000C21C3F81021C3F83825FFF7D5FF00286D
:1090E00046D04FF08052614BD2F80414C3F82015DB
:1090F000D2F80814C3F82415D2F80C14C3F82815B4
:10910000D2F81014C3F82C15D2F81414C3F8301583
:10911000D2F81814C3F83415D2F81C14C3F840154B
:10912000D2F82014C3F84415D2F82414C3F8481513
:10913000D2F82814C3F84C15D2F82C14C3F85015E3
:10914000D2F83014C3F85415D2F83414C3F86015AB
:10915000D2F83814C3F86415D2F83C14C3F8681573
:10916000D2F84014C3F86C15D2F84424C3F8702523
:10917000FFF794FF18B13E4B3E4AC3F88C26FFF729
:109180008DFF18B13C4BFB22C3F81825FFF786FF73
:1091900070B14FF080414FF08053D1F8E42ED3F8F6
:1091A000583222F00F0203F00F031343C1F8E43EDC
:1091B000FFF774FF20B1314B4FF40072C3F8402623
:1091C000FFF762FF48B14FF08043D3F80024D20785
:1091D00044BF6FF00102C3F80024294AD2F8883056
:1091E00043F47003C2F88830BFF34F8FBFF36F8F23
:1091F0004FF01023D3F80022002A03DBD3F8043207
:10920000002B2EDA1F4B0122C3F80425D3F80024CB
:10921000002AFBD04FF010221221C2F80012D3F81E
:109220000024002AFBD04FF010231222C3F804229E
:10923000144BD3F80024002AFBD00022C3F80425E5
:10924000D3F80024002AFBD0BFF34F8F0C490E4BFC
:10925000CA6802F4E0621343CB60BFF34F8F00BFD4
:10926000FDE70A4B0A4A1A6008BD00BF00C0004073
:10927000005000404881030000F000400090024090
:1092800000ED00E000E001400400FA050C2B002096
:109290000090D003074B1B5C1F2B8ABF064A4FF080
:1092A000A04203F01F03D2F80405D840C04300F0E9
:1092B00001007047AAD8020000030050074B1B5C56
:1092C0001F2B86BF064903F01F034FF0A041012268
:1092D00002FA03F3C1F80C35704700BFAAD80200A8
:1092E00000030050074B1B5C1F2B86BF064903F091
:1092F0001F034FF0A041012202FA03F3C1F8083521
:10930000704700BFAAD802000003005008B5002033
:10931000FFF7E8FF0120FFF7E5FF0220FFF7E2FF7C
:10932000BDE808400320FFF7DDBF08B50020FFF7C8
:10933000C5FF0120FFF7C2FF0220FFF7BFFFBDE816
:1093400008400320FFF7BABF0A4B185C1F288ABFEA
:10935000094B4FF0A04300F01F00D3F80425012172
:10936000814021EA02000A40C3F80805C3F80C2531
:10937000704700BFAAD8020000030050014B185CE0
:10938000704700BFA6D802001FB503788DF80030E3
:109390004368019383688DF80830C368054A0393D6
:1093A000054B684653F8213052F82110984705B014
:1093B0005DF804FB243200202C3200201FB5037816
:1093C0008DF800304368019383688DF80830C368D6
:1093D000054A0393054B684653F8213052F8211093
:1093E000984705B05DF804FB243200202C320020A1
:1093F000F0B5194B90F800C0DFF86CE043F82C2072
:10940000164B16460A6943F82C204B7F0EF80C3099
:109410000C4607460FCC89B06D460FC594E80F0087
:1094200085E80F003B78CDF810C01EF803304BB133
:10943000002E0B4A694608BF3246381D00F0D2FCA8
:1094400009B0F0BD002E074A694608BF324607F151
:109450000C0000F07DFAF3E72C32002024320020CB
:1094600089930200BD9302003432002000F1804055
:10947000002382B0036003680193019B02B0704730
:10948000044A137923B9012110609180184670476E
:109490008520704738320020074B1A68D20704D461
:1094A000C02283F8002301221A604FF0804301227A
:1094B000C3F81825704700BF00E100E008B54FF47D
:1094C0008270FFF7D3FF4FF080430222C3F80423DA
:1094D00001229A6008BD4FF0804208B50223C2F80D
:1094E00008334FF48270FFF7C1FF0123D360D2F835
:1094F0001834DB03FBD408BD4FF0804110B5D1F820
:10950000003163B14FF48070FFF7B0FF0D4B587915
:109510000122C1F8082310B95A711B6898474FF00F
:109520008042D2F8043163B14FF48270FFF79EFF9E
:109530000223C2F80833034BBDE810401B6801202A
:10954000184710BD3832002000F1804000F5C040BF
:10955000002382B0036003680193019B02B070474F
:1095600003681F2B83BF03F01F03036001484FF004
:10957000A04070470003005007B5019001A8FFF715
:10958000EFFF019B00EB8300D0F8003723F440335A
:10959000C0F80037D0F8003743EA0141C0F800179F
:1095A00003B05DF804FB00002DE9FF470024CDE97E
:1095B0000244584D4FF48072012102F1804303F5BB
:1095C000C04390B21B68012B06D1D5F804330B427F
:1095D00002D0FFF7B9FF0C430432B2F5907F4FEA97
:1095E0004101EAD14B4BD3F87C31012B11D14FF41F
:1095F000BE70FFF7A9FF4FF0A04344F00044D3F83A
:1096000020250292C3F82025D3F820280392C3F81E
:109610002028E3B2D3B1404F00250126344210D0B8
:10962000AB0003F1804303F5C043D3F81005D3F832
:10963000101557F8253023B1C1F30141C0F30520BF
:1096400098470135082D4FEA4606E7D1002C59DA34
:10965000314D324C324E4FF00008012716F9013BD4
:109660005A1C3CD0C3F3C20104A801445FFA83F939
:1096700011F8081C03F03F0203F0070307FA03F395
:1096800019422CD001A80192FFF76AFF019B03F554
:10969000E07350F82330C3F3014ABAF1020F0CBF54
:1096A000032102211046FFF767FF01A80192FFF78F
:1096B00057FF019B07FA03F3C0F82035AB1893F965
:1096C000303055F8233053B14FEA9911032904D0B3
:1096D000BAF1020F19D1012901D11046984708F1BA
:1096E0000108B8F1040FB9D14FF0A043D3F82025F9
:1096F0000292C3F82025D4F820350393C4F820350E
:109700001343A7D104B0BDE8F087BAF1030FE6D147
:109710000229E1E7006000404032002000030050D1
:10972000A0320020014B1B68184700BFAC3200205C
:109730000E4B984237B50C4602D0002003B030BD26
:1097400000230DF107008DF80730FEF7D1FD084B1F
:109750001D7915B901221C601A719DF80700FEF7EA
:10976000EBFD002DE9D01120E8E700BF002000400C
:10977000AC3200200023435082B043580193019B38
:1097800002B070470A4610B54FF48E71FFF7F2FF32
:10979000136A9168C95C136A01331362C0F81C151F
:1097A00010BD024608B500684FF49271FFF7E2FF62
:1097B00010684FF48471FFF7DDFF136801221A600F
:1097C00008BD8B690A4610B54FF4847123B9FFF7C1
:1097D000D1FFD0F8183510BDFFF7CCFF536AD16820
:1097E000D0F81805C854536A01335362F3E70000F8
:1097F0001FB501238DF80030044BCDE90110D3E9EA
:1098000000126846904705B05DF804FBB4320020B2
:1098100030B54D4DD5F804339A0585B051D5D5F8FE
:109820002431002B4DD04FF492712846FFF7A2FF50
:109830004FF40173C5F80833444B93F829200AB953
:1098400001226A60404902228DF80020D1F880246C
:10985000C1F8802403929A690292DA680192002288
:10986000C3E906226846D3E9001290473648D0F88B
:109870001C315BB1354A5169136A99424DD992F84E
:109880002830002B49D11146FFF77CFF2E48D0F835
:109890004431002B56D04FF4A271FFF76BFF2B4BD6
:1098A00093F829200AB1012202609A69002A49D05E
:1098B000586AD96800229A6105B0BDE83040FFF7C8
:1098C00097BFD5F804335B07D0D5D5F80831002B06
:1098D000CCD01E4C1C482146FFF773FF636AA26977
:1098E0009A42C3D1E369E1684BB1A3612369E360A4
:1098F0000023606AE3616362FFF77AFFB6E794F8DA
:1099000029300BB901236B600F4B4FF40172C3F880
:1099100008230023606AA361EEE70B484FF48E71C1
:10992000FFF728FF5369002BB0D051690291002343
:1099300091688DF80030019153616846D2E90013B7
:109940009847A3E705B030BD00200040B4320020A6
:109950002DE9F843604D90F804802C2303FB085355
:10996000064693F82A300C469146002B40F0AF8013
:109970005A490068FFF7DCFE0746002840F0A9803E
:109980002268531C10D01F2A87BF554902F01F03BD
:1099900013464FF0A0410120984003F5E073C1F851
:1099A0000805032041F823006168481C0DD01F29D9
:1099B0008BBF01F01F030B4649484FF0A04003F551
:1099C000E0734FF0000C40F823C03068A369C0F882
:1099D000243594F814C0637DBCF1010F4CEA0303F5
:1099E000C0F86C35C0F81415C0F80C252BD1A3684D
:1099F000591C0DD01F2B8BBF03F01F021A4638498C
:109A00004FF0A04102F5E0724FF0000C41F822C087
:109A1000E1684A1C13D01F2987BF314A01F01F0C8F
:109A20008C464FF0A0424FF0010E0EFA0CFE0CF5E2
:109A3000E07CC2F808E54FF0030E42F82CE0C0F8D5
:109A40000815C0F810352C2202FB08F2AB18C3F839
:109A500004902369AB50B9F1000F20D04FF48E7100
:109A6000247FFFF787FE4FF4A2713068FFF782FE74
:109A700032681C4BC2F80433130B42F30732610106
:109A8000002AC9B21EDB1848841884F8001301218B
:109A9000520903F01F0301FA03F340F82230336840
:109AA0000422C3F800252C2303FB08530022C3E93A
:109AB000062283F829205A61012283F82A20384699
:109AC000BDE8F883094A03F00F03D154E7E70827FC
:109AD000F5E71127F3E700BFB43200201198020028
:109AE000000300508000020000E100E014ED00E0FF
:109AF0000279044B2C2101FB02335869003818BF4E
:109B000001207047B43200202DE9F84F064690F846
:109B1000048089469246FFF7EBFF044600283CD1BB
:109B2000204F2C2508FB057B4FF48E71CBF814A039
:109B3000CBF80890CBF820008BF828003068FFF7AE
:109B400019FE3068012383605946FFF71BFEDBF8DE
:109B500004305D461BBB3068DBF814402B6A9C4226
:109B600011D83368D3F81C21002AFBD00122DA6017
:109B700000202C2303FB087700237B61BDE8F88FCE
:109B800095F828303BB9D0F81C31002BF8D0594655
:109B9000FFF7F8FDE2E70F20EBE71120EEE72046A4
:109BA000ECE700BFB43200202DE9F0473A4D0779C9
:109BB0002C2303FB075306465C6824B103684FF46B
:109BC0000170C3F808032C2303FB0753986950B1B5
:109BD000D869002841D024B133684FF40172C3F82A
:109BE0000423112436E09A61D9605862D8612C238D
:109BF00003FB075393F829301BB910B93046FFF720
:109C0000D0FD4FF02C0808FB075A3068DAF8043012
:109C1000002B37D14FF4A271D046FFF7ABFD30686F
:109C2000D0F82491D0F80831D0F84441CBB914B918
:109C3000B9F1000FF3D02C2303FB07550023AB61D0
:109C4000B9F1000F24D12CBB95F8291033680122FB
:109C5000B1B11A602046BDE8F0871961DA610120D0
:109C6000C5E7B9F1000FE6D1002CE4D14146FFF77A
:109C7000A8FDDAF82430DAF818209A42CFD8DAE7CB
:109C80005A60E7E74FF40173C0F804330024E1E7BA
:109C90000324DFE70F24DDE7B43200200023435024
:109CA00082B043580193019B02B070471FB5012356
:109CB0008DF80030044BCDE90110D3E9001268465D
:109CC000904705B05DF804FBE03200207FB5434AC1
:109CD000D2F82461002E60D010464FF49271FFF745
:109CE000DDFF02238DF80030D2F88034C2F88034D2
:109CF0000393D2F83C350293394BDA680192002283
:109D0000C3E906226846D3E9001290473348D0F8E9
:109D1000443173B14FF4A271FFF7C0FF304B9A6921
:109D20003AB10022C3E90622D968D0F83C05FFF712
:109D3000BDFF2A48D0F82031ABB14FF49071FFF746
:109D4000ADFF0123C360264B5A6962B1D0F84C15B0
:109D50000291002299688DF8002001915A616846AD
:109D6000D3E9001290471D48D0F858319BB14FF409
:109D7000AC71FFF793FF1A4B5A6962B1D0F84C15DA
:109D80000291002299688DF8002001915A6168467D
:109D9000D3E90012904704B070BDD2F81031002B07
:109DA000B4D04FF488711046FFF778FF0C4BD2F80F
:109DB0003C0599698842A9D1DC69D96864B1D2F8B7
:109DC000005225F02005C2F800521A699C61DA6041
:109DD000DE61FFF76BFF99E79C61FAE70020004026
:109DE000E03200202DE9F843664E90F804802423E9
:109DF00003FB0863044693F820300D469146002B80
:109E000040F0BC8060490068FFF792FC07460028DC
:109E100040F0B68029684B1C10D01F2987BF5B4AD1
:109E200001F01F030B464FF0A0420120984003F5BC
:109E3000E073C2F80805032042F823006A68501C4A
:109E40000DD01F2A8BBF02F01F0313464F484FF05F
:109E5000A04003F5E0734FF0000C40F823C02068E9
:109E6000AB69C0F8243595F814C06B7DBCF1010FC7
:109E70004CEA0303C0F86C35C0F80C15C0F8142583
:109E80002BD1AB68591C0DD01F2B8BBF03F01F02C9
:109E90001A463E494FF0A04102F5E0724FF0000C27
:109EA00041F822C0E9684A1C13D01F2987BF374AEE
:109EB00001F01F0C8C464FF0A0424FF0010E0EFA3D
:109EC0000CFE0CF5E07CC2F808E54FF0030E42F8FA
:109ED0002CE0C0F80815C0F81035242202FB08F267
:109EE000B318C3F804902B69B350B9F1000F2FD009
:109EF0004FF488712A7FFFF7D1FE20684FF49071EC
:109F0000FFF7CCFE20684FF49271FFF7C7FE206880
:109F10004FF4A271FFF7C2FE4FF4AC712068FFF757
:109F2000BDFE23681A49C3F80413190B43F3073322
:109F30005201002BD2B21CDB1648C51885F800234D
:109F400001225B0901F01F0102FA01F140F8231020
:109F500023680822C3F80025242303FB0866002396
:109F6000C6E906337361012386F820303846BDE820
:109F7000F883094B01F00F015A54E9E70827F5E788
:109F80001127F3E7E0320020CD9C020000030050CF
:109F90001003420000E100E014ED00E00279044B00
:109FA000242101FB02335869003818BF0120704793
:109FB000E032002001F06043B3F1005F2DE9F0478B
:109FC0000646884692463BD190F80490FFF7E6FF9C
:109FD0000446002836D11D4F3068242505FB09753D
:109FE0004FF49071C5F814A0C5F80880FFF756FE2D
:109FF0004FF4AC713068FFF751FE33686A69A968A5
:10A00000C3F84415C3F8482501229A606A68DAB992
:10A01000D3F82021D3F858011AB90028F8D00F201E
:10A0200007E00028FBD10122DA60D3F85821002A8A
:10A03000FBD0242303FB097700237B61BDE8F08775
:10A040001020FBE71120F9E72046F7E7E032002077
:10A05000F8B501F06043B3F1005F04460F465ED1EE
:10A060000379304D242101FB0351496821B1006877
:10A070004FF40476C0F80863242000FB03539E6964
:10A0800056B1D869002839D021B123684FF4047241
:10A09000C3F80423112030E09A61DF60DE6120689C
:10A0A0004FF48871FFF7FAFD20684FF4A271FFF7B3
:10A0B000F5FD2368C3F83475C3F8382516BB0122B3
:10A0C0001A602479242202FB045252680ABBD3F896
:10A0D0001011D3F84421D3F82401114302D10028F0
:10A0E000F5D00A46242303FB04550023984218BFE9
:10A0F00003209A42AB6118BF0F20F8BD1F61DA61DF
:10A100000126CCE7D3F8002242F02002C3F8002257
:10A11000D7E74FF40472C3F804230020EDE71020C2
:10A12000EBE700BFE03200201F288ABF094B4FF049
:10A13000A04300F01F0003EB8000D0F8003723F4A9
:10A140004033C0F80037D0F8003743EA0141C0F887
:10A15000001770470003005008B5094B1B7853B136
:10A160000020FFF7BFF80120FFF7BCF8BDE808406A
:10A170000320FFF7B7B8BDE80840FFF7C7B800BF36
:10A1800004330020F8B57A4C237805461BB1002330
:10A190002370FFF7E1FF172D00F28780DFE805F05D
:10A1A0000C1717425364757F878C878C9499999903
:10A1B0009999C3C8D0D8E3E3FFF7CEFF6D48FDF708
:10A1C000B4FE6D4B002204461A702046F8BD0020F4
:10A1D000FFF760F8F0B10020FFF784F8022D0CBF04
:10A1E0004FF4E1644FF47A64634B1D7000254FF423
:10A1F00000464FF47A7029464FF4FA620023E4FBDC
:10A20000060102F063FA2A460146BDE8F8405948C3
:10A21000FDF773BEFFF752F8022D0CBFC8244FF4B0
:10A22000C874E1E70020FFF735F840B10020FFF7E0
:10A2300059F84FF44874504B03221A70D6E7FFF7D1
:10A240003DF8C824F7E70020FFF724F838B10020D4
:10A25000FFF748F84FF47A64474B0422EDE7FFF725
:10A260002DF84FF4C874F7E70020FFF713F848B152
:10A270000020FFF737F8404B05221A7040F6CD4119
:10A280000022C2E7FFF71AF8F5E70020FFF75CF8B5
:10A29000394B06221A70002240F26661B5E70020B1
:10A2A000FFF70CF8344B07221A7000248DE70120C9
:10A2B0002070FFF749F8EEE701202070FFF744F81F
:10A2C00000224FF40051A0E7FFF72FF82A4B0C2291
:10A2D000EAE72A482A4EFDF728FED5F11105044683
:10A2E0001CD0D8B9012D13D0C820454321464FF4C6
:10A2F00000474FF47A704FF4FA620023C5FB070160
:10A3000002F0E4F9224601461C48FDF7F6FD04463A
:10A310000220FEF7D3FF0123337056E70220FEF739
:10A32000E1FF0023F8E7FFF717FF134B1222BBE70B
:10A33000FFF712FF0020FEF7C1FF0F4B1322B3E718
:10A34000FFF70AFF0120FEF7B9FF0B4B1422ABE722
:10A35000FFF702FF0020FEF7B1FF0120FEF7AEFF7E
:10A36000054B1522A0E7FEF7E0FF034B1D709CE7AD
:10A3700058330020283300205933002008330020B0
:10A3800004330020044B1B6813F0010301D0FFF7D6
:10A39000F9BE1846704700BF54330020032811D877
:10A3A000012A0AD101290FD100F10E02D2B20D4BC0
:10A3B00000EB40001A54002070470129F7D0022911
:10A3C00004D049B1072070470022F8E7054B00EBA5
:10A3D000400018444270EEE7024B00EB4000184486
:10A3E0008270E8E748330020032808B506D8FEF756
:10A3F000C5FF0321FFF798FE002008BD0620FCE7FB
:10A4000008B5012202210020FFF7C8FF08B1072884
:10A4100010D1072202210120FFF7C0FF08B1072851
:10A4200008D100210A220846FFF7B8FF10B107281B
:10A4300008BF002008BD00000388102B10B502D013
:10A44000112B1ED010BD1A4C2168B1B9012208464B
:10A45000FFF7A4FF08B1072824D107220221012019
:10A46000FFF79CFF08B107281CD10422022100201D
:10A47000FFF794FF08B1072814D123680133236044
:10A48000E0E70B4A1368013B1360002BDAD1FFF7BA
:10A49000B7FF0028D6D0074B1B68002BD2D0BDE8F1
:10A4A00010401847034B1B68002BE6D09847E4E7A1
:10A4B000603300205C33002008B50020FFF794FFD4
:10A4C00008B1062806D10120FFF78EFF10B106283B
:10A4D00008BF002008BD76DF70477ADF70477CDF59
:10A4E00070477FDF70478FDF7047B1DF704733DF22
:10A4F000704700F5E0704FF0A043032243F820209E
:10A500007047FDF7CDBB08B50020FFF73BFF08B152
:10A51000FDF7C6FBFFF7D0FF08B1FDF7C1FBFFF762
:10A52000E6FF18B1BDE80840FDF7BABB08BD000062
:10A530000388212B13B504463FD007D8112B2DD00B
:10A54000132B48D0102B0CD002B010BD522B4AD088
:10A55000562B01D03B2BF7D1A0881321FFF7BBFF6F
:10A5600015E0254B25482649C01AC008000440F0D4
:10A570000300FDF727FA0720FFF704FF08B1FDF7F6
:10A580008FFB204BA1882048198001F0D5FC0028C2
:10A59000DAD002B0BDE81040FDF782BB164B174879
:10A5A0001A49C01AC008000440F00300FDF70AFA77
:10A5B000144B4FF6FF721A80C6E7002380888DF88F
:10A5C000043001A98DF80530FFF78DFF0028BBD0BE
:10A5D000FDF766FBB8E70B4800231A468521008883
:10A5E000FFF77FFFD3E7074800231A461946008884
:10A5F000FFF77BFFCBE700BF34D102005CD1020044
:10A60000C5D802002A2B002014390020CFD8020020
:10A6100008B503784BB9054B3B211888FFF75BFF62
:10A6200018B1BDE80840FDF73BBB08BD2A2B002050
:10A6300008B548B103280BD10220FFF7A3FE38B1BB
:10A64000BDE80840FDF72CBBBDE80840FFF75BBF45
:10A6500008BD0000F7B50378012B33D0022B31D0B1
:10A6600073BB1B4C1B4D20782844FDF703FE237859
:10A670000133DBB21D44237015F8012C0A2A05D0E2
:10A680000D2A03D0144A12889A4219D8012B15D9E1
:10A69000124D104E124F2378ADF806300DF1060220
:10A6A0002B883146384601F0C3FD082806D0132810
:10A6B000F1D0052802D008B1FDF7F2FA002323708B
:10A6C00003B0F0BD406803B0BDE8F040FDF7E8BA64
:10A6D0007C34002088330020282B00202A2B0020E7
:10A6E0002C2B00202DE9F0470678054696BB1A4B27
:10A6F0001A4ADFF86C90DFF86CA09B1ADB081B0489
:10A7000043F0030843F00104AA8A96420AD32B6956
:10A71000134413F8013C0D2B1CD10A20FDF7C0FD9A
:10A720001128F9E72B69985DFDF7BAFD2B690746FB
:10A730001A7849464046FDF749F94FB1112FF1D03B
:10A7400020463A465146FDF741F93846FDF7A8FA4A
:10A750000136D9E7BDE8F0875CD1020034D10200B0
:10A7600038D90200DCD802000D4B4A881B889A4277
:10A7700014D10A8840F677239A420FD18B88094A70
:10A7800009480A49033B9BB21380094A801AC00852
:10A7900000041A4640F00300FDF721B9704700BFDE
:10A7A0002A2B0020282B00205CD1020007D90200B0
:10A7B00034D10200FDF774BA00F5E0704FF0A04309
:10A7C0000C2243F8202070472028054B4FF001024F
:10A7D00038BF4FF0A04302FA00F0C3F80C057047F1
:10A7E000000300502028054B4FF0010238BF4FF006
:10A7F000A04302FA00F0C3F80805704700030050B8
:10A8000003460B2B084611D00C2B11D0182B11D05E
:10A81000192B0CBF04230023124AD25C012A11D148
:10A82000114A52F8231039B9FFF7CEBF0123F3E7DD
:10A830000223F1E70323EFE7012912D1002142F8B7
:10A840002310F1E7022A0AD1074A52F8231009B966
:10A850000121F4E7012904D1002142F82310FFF778
:10A86000C1BF7047A8340020803400202028054B49
:10A8700038BF4FF0A043D3F8103523FA00F000F0B2
:10A88000010070470003005073B5424A0B20FFF7E8
:10A89000EDFF137803F0FE0308B943F001030C2029
:10A8A0001370FFF7E3FF137803F0FD0308B943F0DB
:10A8B000020318201370FFF7D9FF137803F0FB038E
:10A8C00008B943F0040319201370FFF7CFFF137882
:10A8D00003F0F70308B943F00803137014782E4B04
:10A8E0002E4A002C3BD154705C6094709C60D470F4
:10A8F000DC6014711C610D20FFF774FF0E20FFF760
:10A9000071FF0F20FFF76EFF1020FFF76BFF0D2187
:10A910000B20FFF775FF0E210C20FFF771FF0F21B1
:10A920001820FFF76DFF10211920FFF769FF1C4B5E
:10A930001C481B888DF8074001220DF1070101F02A
:10A9400077FC50B1184A194B19499B1ADB081B04B4
:10A95000024643F00300FDF739F802B070BD002055
:10A960000125022605FA00F121400FD05968013176
:10A970001E29596034BF29463146517001300428E0
:10A9800002F1010203F10403ECD1C0E751705960F8
:10A99000F4E700BF6433002094340020A834002082
:10A9A0002A2B00202C2B002034D102005CD1020085
:10A9B00023D9020008B50849084801F09DF908B1FB
:10A9C000FDF76EF90548F72101F0AAF918B1BDE8C5
:10A9D0000840FDF765B908BD69A70200FC380020F2
:10A9E00000B5994D0FCDB1B005AC0FC495E803008B
:10A9F000964B974A019301AD4FF4807384E80300AE
:10AA0000CDE903230293934A0723294605A8FDF7BE
:10AA1000D9FB08B1FDF744F94FF480410020FCF761
:10AA200035FE08B1FDF73CF9FCF76EFDFEF782FA42
:10AA300008B1FDF735F90020FEF7A0FAFDF720FA7E
:10AA400008B1FDF72DF9844A84480121FDF74AFA3F
:10AA500008B1FDF725F900228148824C40F2666179
:10AA6000FDF74BFA804BE41AE4082404024620B1B7
:10AA70007E4944F00200FCF7A9FF0B20FFF79CFE83
:10AA80000C20FFF799FE1820FFF796FE1920FFF71C
:10AA900093FE0D20FFF72DFD0E20FFF72AFD0F205E
:10AAA000FFF727FD1020FFF724FD0D20FFF79AFE8A
:10AAB0000E20FFF797FE0F20FFF794FE1020FFF700
:10AAC00091FEFEF759F908B1FDF7EAF801F02EFC06
:10AAD00008B1FDF7E5F8002305A90120059301F071
:10AAE000B7FC08B1FDF7DCF805A801F081FD08B15D
:10AAF000FDF7D6F811235E488DF8043001F091FF80
:10AB00005B4982B22846FFF7EAFC08B1FDF7C8F8B6
:10AB10000822002105A801F02FFF1023ADF8143002
:10AB20003C23ADF816300023ADF8183005A84FF4DB
:10AB3000C873ADF81A30FFF7D0FC08B1FDF7B0F8D4
:10AB4000FFF738FF4B4B4C48059305A901F0E2F99C
:10AB500008B1FDF7A5F800210422284601F00CFFFA
:10AB6000464B47480193294601F0E8FA08B1FDF742
:10AB700097F8AC22002105A801F0FEFE4C23ADF8A9
:10AB80000430404B03931723ADF808304FF4C063F3
:10AB9000ADF816300E9501233B4D8DF89030002610
:10ABA000402244F25063CDE927233146374B2E93A0
:10ABB000182228468DF8146001F0DEFE05232B7064
:10ABC00033486E60A02305A92E75AB60AE8100F0FE
:10ABD000ADFB08B1FDF764F82D48012100F0A3FB9F
:10ABE0001C22002105A801F0C7FE00234FF4A0326B
:10ABF000CDE90532ADF822304FF4F0228DF8243043
:10AC0000244B07920A930322234B8DF8202005A89A
:10AC10000B9300F04BFE08B1FDF742F81F4801F01E
:10AC200051FE1F4944F00300FCF7CCFE18480321F5
:10AC300000F0F3FB08B1FDF733F8FCF779FD0028CD
:10AC4000FBD1FEF7AFF8F8E7A8D9020020390020C1
:10AC5000203A002055A6020089A80200C0D90200AF
:10AC6000683300205CD1020034D102003BD90200DD
:10AC70005ED9020003A5020014390020E5A60200F7
:10AC80002C2B0020102B0020B034002031A6020015
:10AC9000C834002011A60200B5A702006AD902003C
:10ACA0007CD902000369C26893429CBF80681B186C
:10ACB000013B981A70472DE9F843D0E90294054604
:10ACC000A9EB04084068904520440F46144404D979
:10ACD00001F029FEEC60BDE8F8834246A4EB0904CC
:10ACE00001F021FE6868224607EB0801F0E72DE934
:10ACF000F843C5680646894617464FF00008346990
:10AD0000B3687068A54228BFE418013C621B5C1B55
:10AD1000BC4228BF3C46944228BF144649462844BA
:10AD2000224601F000FEB3682544AB4208BF00256F
:10AD30003F1BA044A144F560E1D14046BDE8F88343
:10AD400010B5114C114AA2610223C4E90433104B1F
:10AD5000E361A2644FF400730E4A0F492362E26478
:10AD600000231022E01DA3626362E362A3656365B2
:10AD7000E365226501F033FE0849204601F02FFE0D
:10AD80002023A37110BD00BF203B0020C4D90200C6
:10AD9000A83B0020983B0020CDD90200D1D9020069
:10ADA00070B5164B182400FB04451D4404FB00330A
:10ADB0001646DC6A012C0ED0022C18D0E4B92846C5
:10ADC000FFF770FF864204D832462846FFF773FF2C
:10ADD0003446204670BD2846FFF764FF864234465D
:10ADE00028BF044622462846FFF765FFF1E72846BC
:10ADF000BDE87040FFF77BBF0024EAE7203B00205E
:10AE0000FFF79EBF6DDF704779DF70477DDF7047CA
:10AE100064DF70472DE9F04F85B000250E9CBDF82A
:10AE20003CB0B4F800A00191074690461E46A946E2
:10AE30003A884A450DDC45B12388013BA3EB0A0360
:10AE40009BB2FF2B3AD806F80A30002005B0BDE8C7
:10AE5000F08F7A6852F82900039000220DF10B015F
:10AE600003A8FFF7D5FF0028F0D19DF80B2042453D
:10AE700021D12288002D14BF0020022002EB0801FE
:10AE8000014459451ADC3DB9013292B2019B22803E
:10AE9000B35422880132228022880DF10B01324402
:10AEA00003A8FFF7B5FF0028D0D121889DF80B201B
:10AEB0000A442280012509F10109B9E70C20C5E700
:10AEC0002DE9F341089FBDF824801546CDE90078AF
:10AED000022204461E46FFF79DFF50B9334610225A
:10AEE00029462046CDE9087802B0BDE8F041FFF7D9
:10AEF00091BF02B0BDE8F0812DE9F04F0023178823
:10AF0000138090F82D3085B006460D46144653B395
:10AF1000082F01D80C2027E102A8FFF773FF0028B3
:10AF200040F0228123880822EA54238801339BB20F
:10AF30001B222380EA542088013080B22080062220
:10AF40000DF10901284401F0EEFC23889DF808204A
:10AF500006339BB212F0FE0218BF01222380EA548E
:10AF6000238801332380B378FBB123880433BB42A9
:10AF7000D0D802A8FFF748FF002840F0F5802388CA
:10AF80000322EA54238801339BB219222380EA5416
:10AF90002388BDF8082001339BB2E9182380EA54C6
:10AFA000120A4A70238802332380F2789AB12388E8
:10AFB000D91CB942AED80221E954238801339BB28F
:10AFC00001212380E95423880B449BB22380EA5457
:10AFD00023880B4423807268AAB12388D91CB94204
:10AFE00098D8022192F90020E954238801339BB2BA
:10AFF0000A212380E954238801339BB22380EA5439
:10B000002388013323803389002B40F0A180338AC9
:10B010005BB1CDE900472B460722032106F1100062
:10B02000FFF74EFF002840F09F80338B5BB1CDE9E6
:10B0300000472B461522142106F11800FFF740FFA8
:10B04000002840F09180326A002A40F09080D6F8C3
:10B050002480B8F1000F30D0B8F804302188981C53
:10B060008A1C0244BA423FF655AFFE283FF652AF63
:10B0700003336B54238801339BB2FF222380EA54AD
:10B08000238801339BB22380B8F80020EA54E918E2
:10B09000120A4A702088023080B22080B8F804205A
:10B0A0005AB1D8F8081000296BD0284401F03BFCB5
:10B0B0002388B8F804201344238096F82C30002B02
:10B0C00040F09880307800284ED03388012B58D03B
:10B0D000228802F1020CBC453FF61CAF012805D1C5
:10B0E0007378023313449F42FFF414AF023FBF1A38
:10B0F000BFB202A905EB0C00ADF80870FFF786FEA1
:10B1000090BB3178BDF80830022900F0B980727820
:10B110009A4202D39F4280F0B180012940F0B28070
:10B12000974293B2C0F0AE80ADF808300821BDF868
:10B130000830FE2B3FF6EEAE22880133AB54228856
:10B14000013292B22280A9542288134423800BE05A
:10B15000CDE900472B460622022106F10800FFF741
:10B16000AFFE00283FF453AF05B0BDE8F08FB4F850
:10B1700000C00CF10603BB423FF6CCAE1188052996
:10B1800001D80720F0E76FF4486E01EB0E039BB285
:10B190004FF27D3E7345F4D95388052BF1D96FF4F6
:10B1A0004860181880B27045EBD94FF6FF708142A5
:10B1B00001D09942E5D8052305F80C3023880133E6
:10B1C0009BB212212380E954238801339BB2238050
:10B1D0001188E954E818090A4170238802339BB2A8
:10B1E00023805288EA54E918120A4A7023880233ED
:10B1F00023802CE7B36A002BC3D04FF000084FF038
:10B200000C0A4FF0160BB16A5FFA88F20AFB02F2E1
:10B2100001EB0209B9F80430981CFE283FF67AAE1B
:10B22000208803332B54238801339BB2238005F8F5
:10B2300003B0238801339BB223808A5AEA54E91869
:10B24000120A4A702088023080B22080B9F80420A7
:10B250005AB1D9F80810002993D0284401F063FBB3
:10B260002388B9F804201344238096F82C2008F191
:10B2700001085FFA88F39A42C5D823E7092156E707
:10B280009F42FBD2ADF8087050E730B5C8B1F2B1BB
:10B290000024651C8D4206DA1588A54212D80519CE
:10B2A0006D789D420ED1A14211D9005D48B101389F
:10B2B00080B230B10234A3B210FA84F4A14206DBAA
:10B2C000138030BD055D01352C44A4B2E1E70020B8
:10B2D000F7E713B513460022ADF806200DF106027C
:10B2E0000446FFF7D2FF10B1BDF80630E01802B0F7
:10B2F00010BD72DF704773DF704738B50122044616
:10B300000D46B0F81414D0F81004FFF7E2FF00B1B6
:10B31000057004F13C0204F5826104F15400BDE8BB
:10B320003840FFF7E6BF80F830107047F8B50446A4
:10B330000F4600296DD000286BD091F87A301BB1F0
:10B3400091F89830002B66D14FF0000C84F802C0C1
:10B3500007F178060FCE251D0FC50FCE0FC596E855
:10B36000070085E8070084F830C0D7F8A43063638D
:10B37000D7F8A830A3634FF6FF7504F58263C4F8CD
:10B380002034A4F824540722614604F2264001F038
:10B39000F3FA23780BB984F8545094F82430002B36
:10B3A00014BFEE231F2304F15501C4F81014A4F8B0
:10B3B000143404F214423846FFF79EFD40BB94F863
:10B3C0002430002B14BFEE231F2304F23121C4F8D4
:10B3D0001814A4F81C3404F21C4207F13C00FFF7D7
:10B3E0008BFDA8B9A369A4F848304FF480730125F8
:10B3F000A4F8503063692064014684F83C506364CB
:10B4000004F13C0204F15400FFF773FF00B925700A
:10B41000F8BD0E20FCE70720FAE7F8B507780446E8
:10B420000D46002F00F00A8100F2264681700722A7
:10B430000021304601F0A0FAE38813B1A378012B74
:10B4400004D0E3794BB1A378022B06D1636BABB187
:10B45000012284F82D240820984704F2274304F29F
:10B460002D4113F8012B12B99942FAD117466B1EE0
:10B47000032B57D8DFE803F0050B0F1284F82D34A7
:10B48000EBE7A3791BB194F8243003B95FB9E379F2
:10B490000BB1002F48D1237A002B47D1637A002BC0
:10B4A0000CBF00250425636BA570002B40D0033D25
:10B4B000012D3DD86279002A3AD094F82E24002A32
:10B4C00036D184F83024012284F82F2407209847AD
:10B4D00004F13C0518220021284601F04DFAE26AE9
:10B4E0000123511E994284F83C3001D9042A00D12D
:10B4F000D3B294F8242084F8513042B1A36A591E83
:10B50000012902D9042B18BF012384F85230A178F5
:10B51000002384F8503004291BD8DFE801F0770DB0
:10B52000223559000025BEE70225BCE70325BAE70E
:10B53000002384F82F34CBE7C4E91063C4F8203427
:10B540000223012284F83C30802384F83120A4F8BF
:10B550004830A378002B5CD1636B002B6AD10020AC
:10B5600067E00223002A84F8313014BF0723032345
:10B5700084F83C302369A4F848300023C4F8203410
:10B58000E36826646364E4E763696364A369A4F819
:10B59000483012B1062384F83C306379B3B194F893
:10B5A0002E349BB994F8303483B1022384F85030A0
:10B5B00004212046FFF7A1FE0028CAD1052384F804
:10B5C000313004F58263C4F82034C2E70323F6E780
:10B5D000E3696364236AA4F8483012B1062384F84F
:10B5E0003C30637983B194F82E346BB994F83034DD
:10B5F00053B1022384F8503004212046FFF77DFE2A
:10B600000028A6D10623DAE70423D8E784F83130EE
:10B610009FE7D4F820142A4604F15400FFF769FE8E
:10B6200038B994F8301094F85400FFF764FE0028FD
:10B6300092D0F8BD94F83100984790E70820F8E7D9
:10B640000388112B10B50C460AD0262B1FD0102BC7
:10B6500005D1C37B012B02D18388A1F8243410BD0E
:10B660000022838881F82E24B1F824249A42F6D14E
:10B670000B79002BF3D101212046FFF7CEFE0028E5
:10B68000EDD0A36B002BEAD0BDE810401847037A39
:10B69000013B012BE3D8897805230131B1FBF3F39A
:10B6A00003EB8303C91AC9B2E6E775DF704776DF9B
:10B6B00070477ADF70477BDF70470000034B1A88C2
:10B6C00082420CBF18460020704700BFC43D0020D6
:10B6D000024B9B6903B11847704700BFA83D00208B
:10B6E00073B585B22846FFF7E9FF044638B3174E15
:10B6F000027A337B9A420CD200F10A012846FFF706
:10B70000D4FFF0B111281AD002B0BDE87040FFF7A5
:10B71000DFBF00230372337C43B13B212846FFF790
:10B72000C6FF30F0080301D0FFF7D2FF736933B1D1
:10B7300000228DF80420ADF8065001A8984702B009
:10B7400070BD237A01332372F9E700BFA83D0020C2
:10B7500037B50B46497A0F4A79B9D2E901141D7AF7
:10B760000246002D18BF21465868FCF7C6FB78B189
:10B7700003B0BDE83040FFF7ABBF00211972536939
:10B7800033B10122ADF806008DF8042001A89847D6
:10B7900003B030BDA83D00204B8802889A4212D8E1
:10B7A00042889A420FD380888B8840F2F3118842F6
:10B7B00094BF021A421A9A4205D80844984234BFEC
:10B7C0000020012070470020704700000388122BE2
:10B7D00070B5014659D004D8102B1ED0112B44D07F
:10B7E00070BD502BFCD12F4BC288DB899A42F7D118
:10B7F000038A022BF4D186883046FFF75FFF0546A7
:10B800000028EDD001F1120000F07FF938BB686824
:10B81000FCF78BFB0028E3D009E0C37B012BDFD1D1
:10B820004FF6FF70FFF74AFF054620B90420BDE838
:10B830007040FFF74DBF1C4A8E88068000230372BC
:10B840001368C0F80A305368C0F80E3010310A305F
:10B85000FFF7A2FF134B6872DB89002BC0D129468A
:10B860003046BDE87040FFF773BF8088FFF726FFC2
:10B8700004460028B4D04068FCF757FB08B1FFF736
:10B8800027FF4FF6FF732380AAE786883046FFF72D
:10B8900015FF05460028A3D008310A30FFF77CFFCA
:10B8A0006872DCE7A83D0020D83D0020F8B50646C8
:10B8B00048B305460FCD154F3C460FC495E8070029
:10B8C00084E807003068124C3C60B0B1FFF7F1FE2D
:10B8D000C0B9326813682360536863600D480E4A2C
:10B8E0004FF6FF7303800D4B40F8043F0021FCF737
:10B8F000F9FA002818BF032004E02046FFF7DBFE1A
:10B900000028EBD0F8BD0E20FCE700BFA83D0020CA
:10B91000D83D0020C43D0020E1B60200E03D0020FB
:10B920000AB1FCF7E5BEFCF7ECBE73B50191019CD2
:10B9300006466CB100252C46294601A8FCF7EBFE13
:10B9400018B106EB440301349D800135142DF3D169
:10B950003046346002B070BD2DE9F047038884881A
:10B96000103B8CB005460A2B21D8DFE803F00640D7
:10B9700020202020202020654700DFF8E880D8F82C
:10B980000830DB430093D8F804106846FCF7EFFE5C
:10B99000009901A8FFF7C9FF0DF108090027019BD5
:10B9A0009F4207D3132C12D90420FCF779F90CB06D
:10B9B000BDE8F08739F802AB00260136514608EBA6
:10B9C0008600FCF79EFE1E2EF7D10137E7E71F48E1
:10B9D0002146FCF78DFE1E482146FCF789FEEB7BD5
:10B9E000022BE4D11B482146FCF782FEDFE7174813
:10B9F00021460CB0BDE8F047FCF783BE027A16483A
:10BA00003F2A4FEA1215214694BF00220122FFF778
:10BA100087FF022D94BF0022012210482146FFF724
:10BA20007FFF012D0E4894BF0022012221460CB059
:10BA3000BDE8F047FFF774BF037A002BB7D1427A15
:10BA40000548C2F3C0022146F1E700BF083E0020CE
:10BA5000043E00200C3E0020183E0020143E002032
:10BA6000103E0020003E00201328014602D8024864
:10BA7000FCF751BE00207047043E002010B504467C
:10BA8000FFF7F2FF002814BF2046142010BD70B548
:10BA90000546164608460AB90E2070BD00231360FD
:10BAA000002DF9D02B68002BF6D0EB8813F003049F
:10BAB0000ED1FFF7E3FFC0B214280BD02B798342DD
:10BAC0000AD9EA882B6800FB023030602046E4E7A0
:10BAD0000720E2E70520E0E70420DEE7AADF704761
:10BAE000002301380B70042806D8DFE800F00306B5
:10BAF000080A0C0011230B7070472123FBE7312348
:10BB0000F9E71223F7E72223F5E7008800F00100A8
:10BB10007047F0B58B7891B0012B0C4638BF0123EC
:10BB20008DF80E3005460B88ADF80C300021164616
:10BB30006846032200F020FF607C6946FFF7D0FFD3
:10BB4000A07C0DF10101FFF7CBFFE27B237B217D80
:10BB500043EAC203227C43EA02139DF80220002933
:10BB600022F0190203F0190314BF0221012113432B
:10BB700061F342031C22002109A88DF8023000F075
:10BB8000FBFE637B13F0300F15D002AF03220021C0
:10BB9000384600F0F1FEE07C0DF10901FFF7A0FF4F
:10BBA00011238DF808309DF80A300E97012262F3B8
:10BBB00042038DF80A30637B8DF824301422A37B76
:10BBC0008DF82530002104A800F0D6FE03AB0493C5
:10BBD000A388ADF81C30A368CDF814D01BB1E2885F
:10BBE000ADF818200893A369002B31D001AF0322D0
:10BBF0000021384600F0C0FEA3691A88ADF82C2059
:10BC00005A88ADF82E205A680D97187B0A9239464B
:10BC1000FFF766FFA3690DF10501587BFFF760FF91
:10BC2000A3699A7A197A41EAC201DA7A9B7B41EADE
:10BC300002119DF80620002B01F0190122F01902D3
:10BC400014BF02230123114363F342018DF8061050
:10BC5000E36903B10C93334604AA09A92846FFF708
:10BC60003DFF11B0F0BD90DF7047A5DF7047B5DF35
:10BC7000704700007FB50023ADF80810ADF80A103A
:10BC80006A4602A90646ADF80C30ADF80E300093B6
:10BC9000ADF80430FFF7E7FF054600B3114B124C37
:10BCA000E41AE408FDF70AF9240444F00104034609
:10BCB0000E4932462046FBF792FEBDF80020BDF843
:10BCC000023052EA030103D009492046FBF787FE00
:10BCD000BDF804201AB107492046FBF777FE284635
:10BCE00004B070BD34D1020084D10200D8D9020062
:10BCF00022DA020061DA020080B14FF0F71303602C
:10BD0000FB230371F723C3801723038141F6FB3222
:10BD10000023016143818281184670470E207047DD
:10BD200030B1A1F11703E02B04D801800020704747
:10BD30000E2070470720704713B5034680880C46D5
:10BD4000B8B91A88242A00F09C8014D8112A74D01B
:10BD5000232A00F0A780102A3ED0A37A4BB1E188B5
:10BD60000020FFF782FF002840F0A2804FF480738C
:10BD7000638102B010BD3A2A68D0552AEDD1DB8824
:10BD8000C988A072172B38BF17238B4228BF0B46D8
:10BD90002381FFF76CFF60B1FDF790F84E4B4F49E0
:10BDA00002464F481B1ADB081B0443F00100FBF757
:10BDB0000DFEE27A002AD0D12369002BCDD040F6C7
:10BDC0007721ADF802202289ADF80010ADF80420EB
:10BDD000694620469847C0E7DB7B0A790A73012B46
:10BDE00013D0022B14D0E18823898B4205D2002086
:10BDF000FFF73BFF70B90123E372217B637B8B422A
:10BE0000ABD20020FFF736FFA7E70B88E380EAE715
:10BE10004B88FBE7112802D10123A372EDE7FDF760
:10BE20004DF82D4B2F4902462D481B1ADB081B04E9
:10BE300043F00100FBF7CAFDDFE7F723CB801723B0
:10BE40000B8141F6FB3348818B8186E75B89CA8889
:10BE5000934228BF1346172B0A6938BF17230B815B
:10BE600062B1C97A51B140F67721ADF80010ADF852
:10BE70000200ADF8043069462046904700236381F4
:10BE80006BE71A7A0B694A73002B3FF466AF4DF6E5
:10BE90007A218DF80500ADF80010ADF802008DF89C
:10BEA000042095E7197A237B994228BF1946A9E710
:10BEB00011283FF45EAFFDF701F8074B0949024630
:10BEC00007481B1ADB081B0443F0010002B0BDE861
:10BED0001040FBF77BBD00BF84D10200E8DA02000E
:10BEE00034D10200B7DA0200B0DF704766DF704776
:10BEF00010B5002104464088FFF7F8FF034608B953
:10BF0000237210BD112801D10123F9E76368BDE850
:10BF10001040184760B159B10378DE2B0AD00B6886
:10BF20004360DE2303704FF6FF73438000207047A9
:10BF30000E2070470820704728B10378DE2B04D10B
:10BF40004180002070470E20704708207047F0B5F0
:10BF5000054685B00C46002942D0002840D00B7819
:10BF6000DE2B3DD182884B889A4204D10B7A13B1E3
:10BF70000846FFF7BDFF2B88112B33D0512B0FD074
:10BF8000012B2DD12B7A012B2AD1A98862889142CD
:10BF900026D12046237205B0BDE8F040FFF7A8BFC8
:10BFA000AE886388B3421BD1AF79022F18D1AD7B25
:10BFB0002B1F022B14D800211022684600F0DCFC55
:10BFC000052D18BF4FF4C0736946304618BFADF851
:10BFD00004308DF80070FFF787FF08B16368984759
:10BFE00005B0F0BD6388AA889A4204BF4FF6FF737C
:10BFF0006380F5E7A8DF7047ADDF7047AEDF7047BD
:10C0000062DF704770B505468AB00C46002962D0E1
:10C01000002860D00388502B37D0572B72D0102BBC
:10C0200059D181886069002601AA0196FFF72FFD8A
:10C03000082231460DEB020000F09EFC022321890C
:10C04000A888CDF80CD002AA0293FFF7D5FF0028EC
:10C0500041D1A369002B3ED00398FFF756FD00287D
:10C0600039D0019B0BB101221A701822002104A8BB
:10C0700000F082FC02238DF81030AB88ADF8183048
:10C08000019B05940793A36923E08188606902AA54
:10C09000FFF7FDFC1822002104A800F06DFCAB881E
:10C0A0002189ADF81830EB88029A059499420792DD
:10C0B00018D12E8A022E15D16AB105F11200FFF7B0
:10C0C00024FD029B48B101221A708DF81060A3690B
:10C0D0000BB104A898470AB070BD187003238DF8FF
:10C0E0001030F4E7A2899A42F5D1A369002BF2D06F
:10C0F00000228DF8102005F1120208922A8AADF86C
:10C100002420E6E78188606902AAFFF7C0FC0146A7
:10C110000028E0D1029B1B78002BDCD0A369002B08
:10C12000D9D0182204A800F027FC01238DF8103084
:10C13000AB88ADF818300594029BA3E7F0B53A4BF5
:10C140008FB002AD04460A4603F1100C2F46186862
:10C1500059682E4603C6083363453546F7D1002C8F
:10C160005FD0002A5DD01368A36121463846FFF7EF
:10C1700047FF002853D12246012512F8023B8DF8D3
:10C18000063001A92846ADF80450FFF733FF002818
:10C1900045D10146202206A800F0EEFB22460223EC
:10C1A000ADF8183012F80C3B8DF81A30BDF8243079
:10C1B0001E4E6088079623F44F6323F00F0343F469
:10C1C00040632B4306A9ADF824308DF829508DF833
:10C1D0002A50FFF79EFC10BB0146202206A800F063
:10C1E000CBFB22460323ADF8183012F8043B8DF840
:10C1F0001A30BDF824306088079623F4875323F063
:10C200001F0343F480532B43ADF8243006A940F2BA
:10C2100001138DF82950ADF82A30FFF77AFC0FB0E2
:10C22000F0BD0E20FBE700BF2CDB0200F400010094
:10C23000F0B50F4687B016461C46054618B3406950
:10C2400001AA1946FFF723FCD8B94FF6FF739C42A9
:10C250001BD0019BCBB11B78CBB13388F42B18D802
:10C260000146102202A800F087FBAB88ADF8083029
:10C2700002A901232046CDE904678DF80A30FFF7B3
:10C28000BDFE07B0F0BD0E20FBE70520F9E7082052
:10C29000F7E70720F5E710DF7047000013B5044605
:10C2A00009496846FCF7AFFD019808B902B010BD16
:10C2B000D0E900212046904718B16846FCF7ADFD53
:10C2C000F2E71120F2E700BF48DB020013B5044695
:10C2D00007496846FCF797FD019B0BB902B010BDFA
:10C2E0002046D3E9002190476846FCF796FDF3E726
:10C2F00060DB02000B4991F816335A09EC23134115
:10C30000DB0706D5084B9A683AB94FF480030B60F7
:10C31000704742F20200FBF7C3BC1A6842F4800285
:10C320001A60704700E100E0E8310020F7B5194FCE
:10C330003C7864BB184E012520463570FFF7AEFFF0
:10C34000112821D02046FFF7C1FF144B8DF8034080
:10C35000186801900DF10300FBF7CAFF104901A80E
:10C36000FFF799FF0446B0FA80F0400938709DF855
:10C370000300FBF7E1FF3CB90A4B34701C70FFF778
:10C38000B9FF2846FFF7A2FF204603B0F0BD0824FE
:10C39000FAE700BF7D3E00207C3E002044DB020027
:10C3A000BD7C02007E3E0020014B1878704700BF24
:10C3B0007D3E002007B508496846FCF724FD019B37
:10C3C00013B903B05DF804FBD3E900209047684639
:10C3D000FCF723FDF3E700BF54DB0200FFF7EABFE1
:10C3E00060DF704769DF704761DF704730B5134D1C
:10C3F000ADF5017D4FF4FA740DF1020103A8ADF81B
:10C400000240FFF7F1FF70B9294601A8FCF7FBFCD9
:10C41000029B002BF0D003A8D3E90021904701A88C
:10C42000FCF7FBFCF4E7052805D00DF5017DBDE820
:10C430003040FBF735BC0DF5017D30BDE8DD020075
:10C44000024B1B780BB1FFF7D1BF70477F3E002036
:10C4500030B5054685B00C46002900F0B5805B4B31
:10C460000B600C22002101A800F086FA01238DF850
:10C47000063022688DF80450062301A92020ADF86B
:10C480000830FFF7AFFF60B1FCF718FD504B514982
:10C49000024651481B1ADB081B0443F00100FBF75E
:10C4A00095FA0C22002101A800F066FA01238DF80C
:10C4B00005302268002301A94020ADF80630FFF7BF
:10C4C00091FF60B1FCF7FAFC414B444902464248F7
:10C4D0001B1ADB081B0443F00100FBF777FA0C2260
:10C4E000002101A800F048FAF72322688DF80450D3
:10C4F00001A92320ADF80630FFF774FF60B1FCF707
:10C50000DDFC334B3649024633481B1ADB081B045B
:10C5100043F00100FBF75AFA0C22002101A800F0B9
:10C520002BFA012022688DF8040001A9FFF75AFFB9
:10C5300060B1FCF7C3FC264B2A49024626481B1A69
:10C54000DB081B0443F00100FBF740FA0C2200213A
:10C5500001A800F011FA4FF4B0632268019301A919
:10C56000A120FFF73FFF60B1FCF7A8FC184B1E4964
:10C57000024619481B1ADB081B0443F00100FBF7B5
:10C5800025FA0C22002101A800F0F6F99DF80430EC
:10C5900022686FF3000301A9A0208DF80430FFF793
:10C5A00021FF034668B1FCF789FC094B0F4902469D
:10C5B00009481B1ADB081B0443F00100FBF706FACD
:10C5C0000023184605B030BD0E23FAE7E82A002004
:10C5D00094D102006CDB020034D10200B2DB020015
:10C5E000FEDB020045DC020091DC0200E2DC02001E
:10C5F00073B505460668FFF7F3FE2B68B3420446A1
:10C600001DD91A481A4B1B491B1ADB081B0443F09F
:10C6100002000190FBF7D6F92B68174901983246C2
:10C62000FBF7DDF94FF080532A68D3F80C3113493A
:10C6300001989B0203F100539A1AFBF7C7F92CB932
:10C640000F4B01221A70204602B070BD2046FCF745
:10C6500035FC074B0B49024604481B1ADB081B0438
:10C6600043F00100FBF7B2F9EDE700BF34D102005F
:10C6700094D1020035DD020064DD020095DD020088
:10C680007F3E0020BFDD02004BDF70471FB50E4C20
:10C6900001A8FFF7F9FF70B9214602A8FCF7B3FB28
:10C6A000039B002BF4D00198D3E90021904702A806
:10C6B000FCF7B3FBF4E7052804D004B0BDE8104054
:10C6C000FBF7EEBA04B010BD00DE020053EA020C24
:10C6D00061D02DE9F04BB3FA83F51E0007BFB2FA23
:10C6E00082F502FA05F403FA05F41646C5F12005B1
:10C6F0001EBF22FA05F73C43203556EA044C4FEAA8
:10C70000144418BF0134A3464FF00009C8469042B4
:10C7100071EB030C39D3094207BFB0FA80F700FA76
:10C7200007F6B1FA81F701FA07F6C7F120071EBF35
:10C7300020FA07FC46EA0C062037B6FBFBFC7F1B01
:10C74000103F07F01F04C4F120060CFA04F42CFA81
:10C7500006F644BF34460026202FA4BF26460024F8
:10C7600054EA060C08BF012418EB040849EB06093B
:10C77000A4FB027CC01B06FB02CC04FB03CC71EBC8
:10C780000C01904271EB030CC5D20B4602464946A0
:10C790004046BDE8F08BB2FBF3F200007F2805D8DD
:10C7A000034B185C034B5B5C1840704700207047DC
:10C7B00018DE020098DE0200A0F16103192B98BF79
:10C7C00020387047A0F14103192B98BF20307047E3
:10C7D0007F2805D8034B185C034B5B5C18407047FF
:10C7E0000020704718DE020098DE0200A0F161030D
:10C7F000192B98BF20387047A0F14103192B98BF1F
:10C80000203070477F299ABF017001206FF02E0001
:10C8100070475AB10A787F2A0AD800B10260002115
:10C8200019605960501A18BF0120704700207047E6
:10C830006FF02E00704710B504460846A2684AB152
:10C840002368616803F1010C8C4508BF00208B420E
:10C8500008D2D054E3682BB121686268914201D2BA
:10C860002146984723680133236010BD70B54C1EE4
:10C8700009D41646C5B229463046FFF7DCFF013C15
:10C88000B4F1FF3FF7D170BD10F0100F08D108B51B
:10C8900010F4007F14BF30202020FFF7E7FF08BD11
:10C8A0007047000008B5034B5B689B681B6898479E
:10C8B00008BD00BF502B002008B50921FFF7F2FF8B
:10C8C00008BD00000FB410B586B008AB53F8044B98
:10C8D0000593002303936FF000430293084B0493E6
:10C8E00000F0ECFB059A214601A800F0CBF80446C5
:10C8F00000F0E5FB204606B0BDE8104004B07047EC
:10C90000D18E0200037853B159B10144034613F8A4
:10C91000012F12B18B42FAD10B46181A7047034609
:10C92000FBE70346F9E7844640EA010313F0030FEF
:10C9300018D18446202A0BD32DE9F007B1E8F80777
:10C94000A0E8F807A2F12002202AF7D2BDE8F007FC
:10C95000042A07D351F8043B40F8043BA2F1040237
:10C96000042AF7D2002A05D011F8013B00F8013B58
:10C97000013AF9D1604670478446002A2DD010F064
:10C98000030F04D000F8011B013A26D0F7E7C9B223
:10C9900041EA012141EA0141202A12D3A2F12002F9
:10C9A0002DE9F0030B460C460D460E460F46884611
:10C9B0008946A0E8FA03203AFBD2BDE8F003203212
:10C9C0000BD0042A05D340F8041B043A05D0042AEE
:10C9D000F9D200F8011B013AFBD1604670470246CC
:10C9E00010F0030F16D111F0030F13D12DE9F00051
:10C9F0004FF001374FF0803351F8044BA4EB07059B
:10CA000025EA04051D4002D142F8044BF4E7A1F1E8
:10CA10000401F0BC11F8013B02F8013B002BF9D1F5
:10CA2000704700F1010110F0030F11D010F8012B35
:10CA3000002A23D010F0030F0AD010F8012B002A8F
:10CA40001CD010F0030F03D010F8012B002A15D0D2
:10CA50002DE970004FF001324FF0803350F8044B55
:10CA6000A4EB020525EA04051D4000D1F6E7A0F17C
:10CA7000040070BC10F8012B002AFBD1A0EB0100D0
:10CA8000704700002DE9F04F89B00746039200235C
:10CA900003600C4614F8011B002900F0FC82DFF84B
:10CAA00018B5EBE2002507E05E2868D145F4805513
:10CAB00001E045F040051C46234613F8010B3028E1
:10CAC000F2D81F2837D9A0F12002102A33D801A1AB
:10CAD00051F822F0B3CA020037CB020037CB020074
