:020000022000DC
:1060000000000120896302007163020073630200D3
:1060100075630200776302007963020000000000EC
:106020000000000000000000000000007B63020090
:106030007D630200000000007F63020081630200B4
:1060400083630200836302008363020083630200B0
:1060500083630200836302008363020083630200A0
:106060008363020083630200836302008363020090
:106070008363020083630200836302008363020080
:106080008363020083630200836302008363020070
:1060900083630200836302000D72020083630200C7
:1060A0008363020083630200836302008363020050
:1060B0008363020083630200000000000000000010
:1060C0008363020083630200836302008363020030
:1060D0008363020083630200836302000000000008
:1060E00000000000000000000000000000000000B0
:1060F00000000000000000000000000000000000A0
:10610000000000000000000000000000000000008F
:10611000000000000000000000000000000000007F
:10612000000000000000000000000000000000006F
:10613000000000000000000000000000000000005F
:10614000000000000000000000000000000000004F
:10615000000000000000000000000000000000003F
:10616000000000000000000000000000000000002F
:10617000000000000000000000000000000000001F
:10618000000000000000000000000000000000000F
:1061900000000000000000000000000000000000FF
:1061A00000000000000000000000000000000000EF
:1061B00000000000000000000000000000000000DF
:1061C00000000000000000000000000000000000CF
:1061D00000000000000000000000000000000000BF
:1061E00000000000000000000000000000000000AF
:1061F000000000000000000000000000000000009F
:106200003A493B480A1A02D0072291438D46394940
:1062100039480A1A06D00722914381F309880222DD
:1062200082F3148835483649364A00F041F836483A
:106230003649374A00F03CF836483749374A00F0CB
:1062400037F837483749384A00F032F83748384984
:10625000384A00F02DF838483849394A00F028F813
:1062600038483949394A00F023F839483949002279
:1062700000F036F838483949002200F031F8384843
:106280003849091A01F01AF8374A90472548264933
:10629000884205D00268043003B4904703BCF7E796
:1062A00000208646EC4600200021304A9047FEE759
:1062B000884214D0521A12D003460B4313430324CE
:1062C000234206D1036804300B600431043AF9D14B
:1062D0007047037801300B700131013AF9D17047F2
:1062E000884202D002700130FAE7704700000120B6
:1062F00000E00020000001200000012030750200B5
:10630000685900206C590020E4630200E463020035
:10631000D0720200307502006859002068590020D0
:10632000D8720200D8720200D8720200D87202003D
:10633000D8720200D8720200D8720200D87202002D
:1063400030750200347502006C5900206C59002031
:106350006C5900209059002090590020905900203D
:106360009059002090790020B16302007F690200FB
:10637000FEE7FEE7FEE7FEE7FEE7FEE7FEE7FEE7F5
:10638000FEE7FEE700F002B8FFF7FCBF0F484FF052
:106390000701884385460E4880470E48016841F44E
:1063A00070010160BFF34F8FBFF36F8FFFF728BFFE
:1063B00009480A490A4A884207D0521A05D0037888
:1063C00001300B700131013AF9D170470000012012
:1063D000C16E020088ED00E0D8720200685900200A
:0463E00068590020D8
:1063E40000B583B00190019B1B68184600F0D7F8F4
:1063F4000346002B04D105494FF4F67000F01EFA51
:106404004FF0A043184603B05DF804FBD8720200B5
:1064140000B585B00190084611461A4603468DF82A
:1064240003300B468DF8023013468DF8013001AB72
:106434001846FFF7D5FF03909DF803209DF802301E
:106444005B001A439DF801309B001A439DF81830F5
:106454001B0242EA03019DF81C301B04019A1943F4
:10646400039B02F5E07243F8221000BF05B05DF80B
:1064740004FB00B585B0039000230193002300932F
:106484000023012201210398FFF7C2FF00BF05B0DA
:106494005DF804FB00B585B003900B468DF80B3016
:1064A4009DF80B300022019200220092002200216C
:1064B4000398FFF7ADFF00BF05B05DF804FB00B51E
:1064C40085B0019001AB1846FFF78AFF0390019B4A
:1064D400012202FA03F31946039800F04CF800BFB6
:1064E40005B05DF804FB00B585B0019001AB18461A
:1064F400FFF776FF0390019B012202FA03F319468A
:10650400039800F042F800BF05B05DF804FB00B545
:1065140085B0019001AB1846FFF762FF0390039B1F
:10652400D3F804350293029BDA43019B012101FA5B
:1065340003F31A40039BC3F80825019B01229A40E8
:10654400029B1A40039BC3F80C2500BF05B05DF8FD
:1065540004FB00B583B001900091009B002B03D194
:106564000198FFF7C0FF02E00198FFF7A8FF00BF02
:1065740003B05DF804FB82B001900091019B009A86
:10658400C3F8082500BF02B0704782B001900091A3
:10659400019B009AC3F80C2500BF02B0704784B079
:1065A4000190019B5B09029300230393029B002B40
:1065B40003D14FF0FF33039300BF019B03F01F038C
:1065C4000193039A019B22FA03F303F00103002BC6
:1065D40014BF01230023DBB2184604B07047000047
:1065E40000B583B00190019B032B03D907494720D1
:1065F40000F024F9064A019B13441B780121184634
:10660400FFF7A7FF00BF03B05DF804FB08730200A7
:106614004C73020000B583B00023019305E0019898
:10662400FFF7DEFF019B01330193019B032BF6D996
:1066340000BF00BF03B05DF804FB000000B583B0E9
:106644000190019B032B03D907495F2000F0F6F862
:10665400064A019B13441B781846FFF758FF00BFF6
:1066640003B05DF804FB00BF087302004C73020022
:1066740000B583B00023019309E0094A019B134448
:106684001B781846FFF7F5FE019B01330193019B2C
:10669400032BF2D9FFF7BEFF00BF03B05DF804FB84
:1066A4004C73020000B583B0002301930AE0094A49
:1066B400019B13441B7803211846FFF7EBFE019B53
:1066C40001330193019B032BF1D900BF00BF03B039
:1066D4005DF804FB5073020000B583B00190019B88
:1066E40003F00103002B01D0FFF7C2FF019B03F06D
:1066F4000203002B01D0FFF7D5FF00BF03B05DF804
:1067040004FB000086B003900291019201238DF8EE
:1067140017309DF81730204A039B13601E4A029BD2
:1067240053601D4A019B9360039B44F20102934210
:1067340012D0039B44F20202934220D1019B164AD9
:10674400D360154BDB681B68134A9361124BDB68FB
:106754005B68114AD36112E0019B0F4A13610E4B2F
:106764001B699B680C4A53610B4B1B691B680A4AE3
:106774009361094B1B695B68074AD36100BF72B61A
:1067840000BF00BF9DF81730DBB2002BFAD162B610
:1067940000BF00BF06B070476C59002000B583B03D
:1067A40002900091019244F2010071466A4600F0A1
:1067B40003F803B000BD00BF00B587B00390029199
:1067C400019272B600BF039B44F20202934217D0B7
:1067D400039B44F20202934218D8039B44F2010241
:1067E400934210D0039B44F2010293420ED8039BC0
:1067F400012B0DD0039B41F2010293420AD005E024
:10680400019B059307E0019B049304E000BF02E0B1
:1068140000BF00E000BF084B1B6803F00103002B1E
:1068240000D000BE019A02990398FFF76BFF00BFE6
:1068340007B05DF804FB00BFF0ED00E000B585B0E3
:1068440003460091ADF80630BDF806300293009B74
:10685400039302AB1A46002144F20200FFF7ACFF97
:1068640000BF05B05DF804FB00B583B00190009152
:10687400019B002B03D110495020FFF7DFFF009B41
:10688400002B03D10C495120FFF7D8FF019B009A3C
:106894001A60019B1B681A68019B5A60019B5A6825
:1068A400019B1B685B689A4202D1019B00225A60DB
:1068B40000BF03B05DF804FB5473020000B583B05D
:1068C4000190019B002B03D114496320FFF7B6FF0D
:1068D400019B1B68002B03D110496420FFF7AEFF16
:1068E400019B5B68002B14D0019B5B681A46019BDB
:1068F4001B689B6813441A46019B5A60019B5A68A3
:10690400019B1B685B689A4204D1019B00225A6078
:1069140000E000BF03B05DF804FB00BF5473020045
:1069240000B585B00190019B002B0AD0074B43F0C2
:1069340001030393019B9B010293039B02989847D5
:1069440000E000BF05B05DF804FB00BFC0730200A7
:1069540000B583B00190019B002B0AD04FF47A70EC
:10696400FFF7DEFF019B013B0193019B002BF5D157
:1069740000E000BF03B05DF804FB00B583B0012064
:10698400FFF7AAFE002301930AE0019B1846FFF7D4
:1069940055FE4FF4FA70FFF7DBFF019B01330193BF
:1069A400019B032BF1DDEDE7BFF34F8F00BF064BD7
:1069B400DB6803F4E0620449044B1343CB60BFF388
:1069C4004F8F00BF00BFFDE700ED00E00400FA05B3
:1069D40082B01B4B1B68B3F1FF3F0AD1194B1B68F4
:1069E400DBB20193184B1B681B0903F00F030093E0
:1069F40005E0134B1B680193144B1B680093019B28
:106A0400062B19D1009B033B032B13D801A252F888
:106A140023F000BF296A02002D6A0200316A0200D5
:106A2400356A0200012308E0012306E0012304E0A3
:106A3400012302E0012300E00023184602B070475E
:106A440030010010E00F00F0E80F00F034010010F6
:106A540082B0154B1B68DBB20193144B1B681B09F6
:106A640003F00F030093019B062B19D1009B033BFA
:106A7400032B13D801A252F823F000BF916A02003D
:106A8400956A0200996A02009D6A0200012308E0E7
:106A9400002306E0002304E0002302E0002300E0DA
:106AA4000023184602B07047E00F00F0E80F00F032
:106AB40082B01B4B1B68B3F1FF3F0AD1194B1B6813
:106AC400DBB20193184B1B681B0903F00F030093FF
:106AD40005E0134B1B680193144B1B680093019B47
:106AE400062B19D1009B033B032B13D801A252F8A8
:106AF40023F000BF096B02000D6B0200116B020052
:106B0400156B0200012308E0012306E0012304E0E1
:106B1400012302E0012300E00023184602B070477D
:106B240030010010E00F00F0E80F00F03401001015
:106B340082B0154B1B68DBB20193144B1B681B0915
:106B440003F00F030093019B062B19D1009B033B19
:106B5400032B13D801A252F823F000BF716B02007B
:106B6400756B0200796B02007D6B0200012308E063
:106B7400002306E0002304E0002302E0002300E0F9
:106B84000023184602B07047E00F00F0E80F00F051
:106B940082B01B4B1B68B3F1FF3F0AD1194B1B6832
:106BA400DBB20193184B1B681B0903F00F0300931E
:106BB40005E0134B1B680193144B1B680093019B66
:106BC400062B19D1009B033B032B13D801A252F8C7
:106BD40023F000BFE96B0200ED6B0200F16B0200D1
:106BE400F56B0200012308E0012306E0012304E021
:106BF400012302E0012300E00023184602B070479D
:106C040030010010E00F00F0E80F00F03401001034
:106C140082B0154B1B68DBB20193144B1B681B0934
:106C240003F00F030093019B062B19D1009B033B38
:106C3400032B13D801A252F823F000BF516C0200B9
:106C4400556C0200596C02005D6C0200012308E0DF
:106C5400002306E0002304E0002302E0002300E018
:106C64000023184602B07047E00F00F0E80F00F070
:106C740082B0154B1B68DBB20193144B1B681B09D4
:106C840003F00F030093019B062B19D1009B033BD8
:106C9400032B13D801A252F823F000BFB16C0200F9
:106CA400B56C0200B96C0200BD6C0200012308E05F
:106CB400002306E0002304E0002302E0002300E0B8
:106CC4000023184602B07047E00F00F0E80F00F010
:106CD40082B01B4B1B68B3F1FF3F0AD1194B1B68F1
:106CE400DBB20193184B1B681B0903F00F030093DD
:106CF40005E0134B1B680193144B1B680093019B25
:106D0400062B19D1009B033B032B13D801A252F885
:106D140023F000BF296D02002D6D0200316D0200C9
:106D2400356D0200002308E0002306E0012304E09F
:106D3400012302E0012300E00023184602B070475B
:106D440030010010E00F00F0E80F00F034010010F3
:106D540082B01B4B1B68B3F1FF3F0AD1194B1B6870
:106D6400DBB20193184B1B681B0903F00F0300935C
:106D740005E0134B1B680193144B1B680093019BA4
:106D8400062B19D1009B033B032B13D801A252F805
:106D940023F000BFA96D0200AD6D0200B16D0200C9
:106DA400B56D0200012308E0012306E0012304E09D
:106DB400012302E0012300E00023184602B07047DB
:106DC40030010010E00F00F0E80F00F03401001073
:106DD40082B01B4B1B68B3F1FF3F0AD1194B1B68F0
:106DE400DBB20193184B1B681B0903F00F030093DC
:106DF40005E0134B1B680193144B1B680093019B24
:106E0400062B19D1009B033B032B13D801A252F884
:106E140023F000BF296E02002D6E0200316E0200C5
:106E2400356E0200012308E0012306E0012304E09B
:106E3400012302E0012300E00023184602B070475A
:106E440030010010E00F00F0E80F00F034010010F2
:106E540082B0134B1B680193124B1B680093019B78
:106E6400062B19D1009B033B032B13D801A252F824
:106E740023F000BF896E02008D6E0200916E020045
:106E8400956E0200002308E0002306E0002304E0DE
:106E9400012302E0012300E00023184602B07047FA
:106EA4003001001034010010024B034A1A6000BF85
:106EB400704700BF685900200090D00308B5FFF761
:106EC40087FD0346002B06D0A04B1B681B0AA04A73
:106ED40003F01F031360FFF7BBFD0346002B02D032
:106EE4009C4B9D4A1A60FFF7E3FD0346002B06D036
:106EF4009A4B1B685B0B9A4A03F007031360FFF776
:106F040017FE0346002B05D0964BDB68954A23F009
:106F14008073D360FFF73CFE0346002B0ED04FF086
:106F240080430022C3F80C214FF080430022C3F8B1
:106F340010214FF080430022C3F83825FFF768FE84
:106F44000346002B02D0884B03221A60FFF790FE01
:106F54000346002B0BD0854B05221A60844B01227B
:106F64001A60844B00221A60834B3F221A60FFF799
:106F7400AFFE0346002B76D04FF080537F4AD3F800
:106F84000434C2F820354FF080537C4AD3F80834D7
:106F9400C2F824354FF08053784AD3F80C34C2F841
:106FA40028354FF08053754AD3F81034C2F82C3585
:106FB4004FF08053714AD3F81434C2F830354FF08F
:106FC40080536E4AD3F81834C2F834354FF08053E6
:106FD4006A4AD3F81C34C2F840354FF08053674AEC
:106FE400D3F82034C2F844354FF08053634AD3F8C1
:106FF4002434C2F848354FF08053604AD3F828341B
:10700400C2F84C354FF080535C4AD3F82C34C2F8A4
:1070140050354FF08053594AD3F83034C2F85435C0
:107024004FF08053554AD3F83434C2F860354FF0EA
:107034008053524AD3F83834C2F864354FF0805341
:107044004E4AD3F83C34C2F868354FF080534B4A6B
:10705400D3F84034C2F86C354FF08053474AD3F824
:107064004434C2F87035FFF773FE0346002B05D095
:10707400434B1B68434A03F04F031360FFF7A8FE1A
:107084000346002B0DD04FF08043D3F8003403F0B7
:107094000103002B05D04FF080436FF00102C3F8C9
:1070A4000024FFF7D5FE0346002B05D0364B1B68A2
:1070B400354A43F480631360344BD3F88830334A41
:1070C40043F47003C2F88830BFF34F8F00BFBFF39F
:1070D4006F8F00BF4FF01023D3F80032002B05DB75
:1070E4004FF01023D3F80432002B2BDA284B012263
:1070F400C3F8042500BF264BD3F80034002BFAD084
:107104004FF010231522C3F8002200BF204BD3F800
:107114000034002BFAD04FF010231522C3F80422B8
:1071240000BF1B4BD3F80034002BFAD0184B0022BD
:10713400C3F8042500BF164BD3F80034002BFAD053
:10714400FFF732FCFFF7B0FE00BF08BD24030010B8
:107154004035014074C007400DF0ADBA4402001040
:107164003C050040F0ED00E0A00500401056004052
:1071740088560040185600401456004000C0004095
:1071840058020010E40E00403C17004000ED00E0FF
:1071940000E0014000B583B00190019B002B03D1B6
:1071A4000449C420FFF74AFB019B5B68184603B0FF
:1071B4005DF804FBC873020000B585B06B46114945
:1071C4001846FFF751FB10E06B461846FFF7E2FF45
:1071D4000390039B1B680293039B5A68029B10460F
:1071E40098476B461846FFF769FB6B461846FFF74E
:1071F400D1FF0346002BE7D100BF00BF05B05DF807
:1072040004FB00BF7074020008B5FFF7D5FF00BF90
:1072140008BD000000B583B00190019B002B03D191
:107224000449C420FFF70AFB019B5B68184603B0BE
:107234005DF804FB7C7402004BDF704700BF184606
:1072440000B589B0019004AB1846FFF7F5FF07902D
:10725400079B002B03D0079B052B20D124E002AB16
:1072640013491846FFF700FB11E002AB1846FFF77D
:10727400D1FF0690069B1B680593049A069B5968E8
:10728400059B1046984702AB1846FFF717FB02AB65
:107294001846FFF7BFFF0346002BE6D1D3E7054AA4
:1072A4006B210798FFF77AFA00BF09B05DF804FB79
:1072B40024750200D0740200072904D9024A4160EF
:0C72C40000231060036070478C5900200C
:0872D0004572020000000000FD
:1072D8002E2E2F2E2E2F2E2E2F2E2E2F2E2E2F2EC1
:1072E8002E2F6D6F64756C65732F6E7266782F68BC
:1072F800616C2F6E72665F6770696F2E68000000A0
:10730800433A5C55736572735C534A49545C4465EF
:10731800736B746F705C49455431304E5F446576C9
:107328005F5F6769745C636F6D706F6E656E7473B1
:107338005C626F617264735C626F617264732E6306
:1073480000000000111213140D0E0F10433A5C5583
:10735800736572735C534A49545C4465736B746F0C
:10736800705C49455431304E5F4465765F5F6769AC
:10737800745C636F6D706F6E656E74735C6C69625C
:107388007261726965735C6578706572696D656E46
:1073980074616C5F73656374696F6E5F7661727335
:1073A8005C6E72665F73656374696F6E5F6974653E
:1073B800722E6300000000000338FDD870470000FB
:1073C8002E2E2F2E2E2F2E2E2F2E2E2F2E2E2F2ED0
:1073D8002E2F636F6D706F6E656E74732F6C69629C
:1073E8007261726965732F6578706572696D656E13
:1073F80074616C5F73656374696F6E5F76617273D5
:107408002F6E72665F73656374696F6E5F6974650A
:10741800722E6800433A5C55736572735C534A492F
:10742800545C4465736B746F705C49455431304EDD
:107438005F4465765F5F6769745C636F6D706F6EDC
:10744800656E74735C736F66746465766963655C96
:10745800636F6D6D6F6E5C6E72665F7364682E63CA
:107468000000000001000007D0720200D87202007C
:10747800080000002E2E2F2E2E2F2E2E2F2E2E2FD0
:107488002E2E2F2E2E2F636F6D706F6E656E747398
:107498002F6C69627261726965732F6578706572A5
:1074A800696D656E74616C5F73656374696F6E5F37
:1074B800766172732F6E72665F73656374696F6E3F
:1074C8005F697465722E6800433A5C557365727320
:1074D8005C534A49545C4465736B746F705C4945EE
:1074E8005431304E5F4465765F5F6769745C636FE3
:1074F8006D706F6E656E74735C736F6674646576B9
:107508006963655C636F6D6D6F6E5C6E72665F73E9
:1075180064685F736F632E6300000000D07202001E
:08752800D0720200080000000F
:047530000090D003F4
:0400000320006389ED
:00000001FF
